:020000040800F2
:10000000585600202D0300087D3A0008713500087D
:10001000793A0008CB0500081144000800000000F0
:100020000000000000000000000000006D02000859
:100030008B07000800000000C9020008813A000890
:100040004703000847030008470300084703000868
:100050004703000847030008470300084703000858
:100060004703000847030008470300084703000848
:10007000110600084703000847030008470300086B
:10008000210600084703000847030008E1050008AF
:10009000D10500084703000847030008470300088C
:1000A00047030008C93A000847030008470300084F
:1000B000D93A00084703000847030008470300082F
:1000C00047030008470300084703000847030008E8
:1000D00047030008D1430008E1430008F14300084A
:1000E00047030008470300084703000847030008C8
:1000F00047030008470300084703000847030008B8
:1001000047030008470300084703000847030008A7
:100110004703000847030008470300084703000897
:10012000470300083106000841060008470300089D
:10013000470300080000000000000000010600085E
:10014000F1050008470300084703000847030008BB
:10015000470300085106000847030008014400084F
:100160004703000847030008470300084703000847
:1001700047030008470300080000000000000000DB
:10018000470300084703000800F002F800F05EF89B
:100190000AA090E8000C82448344AAF10107DA45E2
:1001A00001D100F053F8AFF2090EBAE80F0013F0D6
:1001B000010F18BFFB1A43F0010318475CA00000B1
:1001C0007CA000000A444FF0000C10F8013B13F033
:1001D000070408BF10F8014B1D1108BF10F8015BA0
:1001E000641E05D010F8016B641E01F8016BF9D193
:1001F00013F0080F1EBF10F8014BAD1C0C1B09D1EA
:100200006D1E58BF01F801CBFAD505E014F8016B5B
:1002100001F8016B6D1EF9D59142D6D370470000ED
:100220000023002400250026103A28BF78C1FBD8FF
:10023000520728BF30C148BF0B6070471FB509F097
:10024000DCFE00F067F91FBD10B510BD00F088F9A5
:100250001146FFF7F3FF08F02FF800F0A6F903B4FA
:10026000FFF7F2FF03BC00F0A9F900002C4B19685E
:100270000868B0E8F04F80F30988BFF36F8F4FF044
:10028000000080F3118870470000000008480068F3
:10029000006880F308884FF0000080F3148862B68D
:1002A00061B6BFF34F8FBFF36F8F00DF00BF00BF9A
:1002B00008ED00E0DFF80C00016841F47001016016
:1002C000704700BF88ED00E0EFF30980BFF36F8F48
:1002D000134B1A681EF0100F08BF20ED108A20E99A
:1002E000F04F106009B44FF0500080F31188BFF355
:1002F0004F8FBFF36F8F08F01DFD4FF0000080F3AC
:10030000118809BC19680868B0E8F04F1EF0100F9A
:1003100008BFB0EC108A80F30988BFF36F8F704775
:10032000E8000020EFF3058070470000094880478F
:1003300009480047FEE7FEE7FEE7FEE7FEE7FEE7C7
:10034000FEE7FEE7FEE7FEE704480549054A064BDF
:1003500070470000B53A0008890100085850002095
:1003600058560020585200205852002053EA020CE0
:1003700000F069802DE9F04B4FF00006002B1FBF05
:10038000B3FA83F503FA05F424FA05F65E4012BFCA
:100390001643B2FA82F502FA05F4C5F120051EBF34
:1003A00022FA05FC44EA0C04203556EA044C4FEAD4
:1003B000144418BF641C4FF000084FF0000990422D
:1003C00071EB030C39D3002919BFB1FA81F701FA97
:1003D00007F6B0FA80F700FA07F6C7F120071EBF4C
:1003E00020FA07FC46EA0C062037B6FBF4FCA7EB24
:1003F0000507103F07F01F0BCBF120060CFA0BFB93
:100400002CFA06F644BFB3460026202FA4BF5E4652
:100410004FF0000B5BEA060C08BF4FF0010B19EB25
:100420000B09ABFB027C48EB0608C01B06FB02CCA9
:100430000BFB03CC71EB0C01C1E70B4602464146B6
:100440004846BDE8F08B13B54FF000004FF00001B7
:10045000AFF30080BDE81C40704710B5203AC0F0F3
:100460000B80B1E81850203AA0E81850B1E81850B5
:10047000A0E81850BFF4F5AF5FEA027C24BFB1E8F2
:100480001850A0E8185044BF18C918C0BDE8104063
:100490005FEA827C24BF51F8043B40F8043B08BF6C
:1004A0007047D20728BF31F8023B48BF11F8012B33
:1004B00028BF20F8023B48BF00F8012B70474FF0DF
:1004C000000200B5134694469646203922BFA0E8A4
:1004D0000C50A0E80C50B1F12001BFF4F7AF0907B0
:1004E00028BFA0E80C5048BF0CC05DF804EB8900A1
:1004F00028BF40F8042B08BF704748BF20F8022BE4
:1005000011F0804F18BF00F8012B704770477047FB
:100510007047000070B5064C7C44064D7D4403E0F6
:10052000206820448047241DAC42F9D170BD0000F2
:100530001C9D0000289D000010B500F009F800681F
:1005400010BD10B5044600F003F8046010BD0000B3
:1005500000487047F44F002000487047F44F0020D7
:100560007546FFF7F9FFAE4605006946534620F091
:100570000700854618B020B5FFF7E6FEBDE820402D
:100580004FF000064FF000074FF000084FF0000B4F
:1005900021F00701AC46ACE8C009ACE8C009ACE802
:1005A000C009ACE8C0098D46704710B50446AFF3EA
:1005B00000802046BDE81040FFF751BE01491820D9
:1005C000ABBEFEE726000200704700BFFEE700005A
:1005D00010B5024800F01EFB10BD0000B003002063
:1005E00010B5024800F016FB10BD0000B00300205B
:1005F00010B5024800F00EFB10BD000014040020EE
:1006000010B5024800F006FB10BD000014040020E5
:1006100010B5024800F044FF10BD00007008002033
:1006200010B5024800F03CFF10BD0000100800208B
:1006300010B5024800F034FF10BD0000D0080020C3
:1006400010B5024800F02CFF10BD0000B0070020DC
:1006500010B5024800F024FF10BD00003009002052
:100660000146087810381823B0FBF3F20848805C84
:10067000C865032A05D908686FF30900001D88655D
:1006800003E008686FF309008865886D7047000013
:1006900088A00008014600208A6A8B69CBB932B174
:1006A000012A0DD0022A03D0032A10D10EE000BF88
:1006B000CB6A03F08073B3F1807F00D1012007E0A3
:1006C000CB6AB3F1C07F00D1012001E000E000BFA0
:1006D00034E08B69B3F5005F1AD132B1012A07D03B
:1006E000022A03D0032A11D10AE000BF01200EE044
:1006F000CB6A03F08073B3F1807F00D1012006E064
:10070000CB6AB3F1C07F00D1012000E000BF15E04B
:1007100032B1012A05D0022A04D0032A0CD103E009
:1007200000BF00BF012008E0CB6A03F08073B3F183
:10073000807F00D1012000E000BF00BF704710B5EE
:10074000046863608468402C04D10468A260046873
:10075000E16003E00468A1600468E26010BD30B5A8
:100760000468246824F4802405682C6004686360AD
:100770008468402C04D10468A2600468E16003E04E
:100780000468A1600468E26030BD704772B600BFC3
:10079000FEE710B5024692F82030012B01D0022B63
:1007A00006D110684069084314686061002010BDDC
:1007B000506A40F4802050620120F8E7F0B504460A
:1007C0000D461E4694F8207020688368A86800B91A
:1007D00000E000BF012F01D0022F7CD103F0806028
:1007E00030B903F0006018B903F08050002873D0CE
:1007F000C3F30161022905D9606A40F40000606218
:100800000120F0BD012088403060A86860B9B5F8CB
:1008100000C0E86840EA4C5C206800F5C07000EB5E
:100820000110C0F800C00FE0D5E901C040EACC00DB
:10083000D5F80CC040EA0C00D4F800C00CF5C07C20
:100840000CEB011CCCF80000D5F810C0206800F5B6
:10085000C07000EB0110C0F804C0287D01280ED143
:10086000206800F5C07000EB0110406840F4807C07
:10087000206800F5C07000EB0110C0F804C0D0790A
:10088000000692F806C040EA0C4092F805C040EA23
:100890000C2C10794CEA000C206800F5C07000EBBD
:1008A0000110C0F80CC0D078000692F802C040EAEF
:1008B0000C4092F801C040EA0C2092F800C040EAD7
:1008C0000C00D4F800C00CF5C07C0CEB011CCCF87B
:1008D0000800206801E016E00FE000F5C07000EBB2
:1008E0000110006840F0010C206800F5C07000EBBA
:1008F0000110C0F800C0002083E7606A40F40010D7
:10090000606201207DE7606A40F48020606201201F
:1009100077E70000F0B504460A46216894F82050B5
:10092000012D01D0022D7ED1424901F500710868E8
:1009300040F001000860086820F47C5008600868F6
:10094000566A40EA06200860107D00F01F0601206C
:1009500000FA06F3C8699843C861A1F50071D0692F
:10096000C8B9D1F80C029843C1F80C02908880B243
:10097000968940EA064601F51070576940F83760DD
:10098000108880B2168940EA064601F51070576952
:1009900000EBC7004660D069012819D1D1F80C02DC
:1009A0001843C1F80C02908880B2168840EA0646C7
:1009B00001F51070576940F83760908980B2168948
:1009C00040EA064601F51070576900EBC700466023
:1009D000906928B9D1F804029843C1F8040204E0F0
:1009E000D1F804021843C1F80402106928B9D1F8FB
:1009F00014029843C1F8140204E0D1F81402184319
:100A0000C1F81402106A012804D1D1F81C0218435D
:100A1000C1F81C02D1F8000220F00100C1F8000268
:100A20000020F0BDFFE7606A40F480206062012092
:100A3000F7E700000064004010B5024692F820304D
:100A4000012B01D0022B06D110684069884314683D
:100A50006061002010BD506A40F480205062012087
:100A6000F8E7704770B5044694F82050012D01D086
:100A7000022D7DD151B92068C06800F0030080B913
:100A8000606A40F400106062012070BD2068006957
:100A900000F0030028B9606A40F400106062012091
:100AA000F3E7206800F5D87000EB0110006800F053
:100AB00004009060906840B9206800F5D87000EBA1
:100AC00001100068400D106007E0206800F5D87044
:100AD00000EB01100068C0085060206800F5D87075
:100AE00000EB0110006800F00200D060206800F503
:100AF000D87000EB0110406800F00F001061206812
:100B000000F5D87000EB0110406800F47F40000A47
:100B10009061206800F5D87000EB01104068000C6F
:100B20005061206800F5D87000EB011080681870E3
:100B3000206800F5D87000EB0110806800F47F4059
:100B4000000A5870206800F5D87000EB011080682A
:100B500000F47F00000C9870206800F5D87000EB5E
:100B600001108068000ED870206800F5D87000E091
:100B70002FE000EB0110C0681871206800F5D870F4
:100B800000EB0110C06800F47F40000A5871206833
:100B900000F5D87000EB0110C06800F47F00000C75
:100BA0009871206800F5D87000EB0110C068000E45
:100BB000D87131B92068C06840F020002668F06024
:100BC00005E02068006940F02000266830610020C0
:100BD0005BE7606A40F480206062012055E70146CF
:100BE000002091F82020012A01D0022A11D10B689F
:100BF0009B6803F0806303B1401C0B689B6803F0A3
:100C0000006303B1401C0B689B6803F0805303B181
:100C1000401C70472DE9F05F0446002520684669B6
:100C20002068D0F80490206887682068D0F80CA06D
:100C30002068D0F810B02068D0F8188006F00100C5
:100C4000002855D007F00100C0B10120216888605C
:100C500007F0020018B12046A16A88470EE007F0AD
:100C6000040010B145F4006508E007F0080010B179
:100C700045F4805502E02046616B884707F4807098
:100C8000C8B14FF480702168886007F4007018B113
:100C90002046E16A88470EE007F4806010B145F411
:100CA000005508E007F4006010B145F4804502E00B
:100CB0002046A16B884707F48030C8B14FF48030DC
:100CC0002168886007F4003018B12046216B8847FE
:100CD0000EE007F4802010B145F4004508E007F469
:100CE000002010B145F4803502E02046E16B8847D2
:100CF00006F0080038B10AF0100020B145F4007584
:100D000010202168C86006F0040040B10AF0080015
:100D100028B108202168C8602046616C884706F029
:100D2000020038B12068C06800F0030010B120460E
:100D3000216C884706F0400038B10BF0100020B15C
:100D400045F4806510202168086106F0200040B15C
:100D50000BF0080028B10820216808612046E16CEA
:100D6000884706F0100038B12068006900F00300E1
:100D700010B12046A16C884706F4003040B109F05C
:100D8000100028B11020216848602046216D884756
:100D900006F4803040B109F0080028B1082021682D
:100DA00048602046616D884706F4004088B309F02A
:100DB000040078B306F4807020B108F0010008B197
:100DC00045F0010506F4007020B108F0020008B1FA
:100DD00045F0020506F4806020B108F0040008B177
:100DE00045F0040506F40060A0B108F0700088B179
:100DF00008F07000402817D006DC10280BD02028FF
:100E00000CD0302819D10CE0502810D0602814D113
:100E100010E01DE019E045F008050FE045F0100571
:100E20000CE045F0200509E045F0400506E045F0FE
:100E3000800503E045F4807500E000BF00BF206836
:100E4000806920F070002168886104202168486072
:100E50002DB1606A284360622046A16D8847BDE8D5
:100E6000F09F000070B504460CB9012070BD94F8E5
:100E70002000002820D168482064684860646848E1
:100E8000A0646848E0646848A0626848E062684816
:100E90002063684860636848A0636848E063684806
:100EA0002065684860656848A065E06D08B96748D6
:100EB000E0652046E16D88472068006840F0010049
:100EC0002168086000F0F0FD05460DE000F0ECFD43
:100ED000401B0A2808D9606A40F40030606205208F
:100EE00084F820000120C1E72068406800F001007C
:100EF0000028EBD02068006820F00200216808601C
:100F000000F0D2FD05460DE000F0CEFD401B0A28A2
:100F100008D9606A40F400306062052084F820003F
:100F20000120A3E72068406800F002000028EBD110
:100F3000207E012806D12068006840F080002168EA
:100F4000086005E02068006820F0800021680860E3
:100F5000607E012806D12068006840F040002168CA
:100F6000086005E02068006820F040002168086003
:100F7000A07E012806D12068006840F0200021688A
:100F8000086005E02068006820F020002168086003
:100F9000E07E012806D12068006820F0100021685A
:100FA000086005E02068006840F0100021680860D3
:100FB000207F012806D12068006840F008002168E1
:100FC000086005E02068006820F0080021680860DB
:100FD000607F012806D12068006840F00400216885
:100FE000086005E02068006820F0040021680860BF
:100FF000D4E9020108432169084361690843616833
:10100000491E08432168C86100206062012084F8FD
:10101000200000202AE7000089120008871200083B
:101020008D1200088B120008F1120008F51200085A
:10103000F9120008EF120008F3120008F712000876
:101040008F120008FB120008630A00085110000804
:1010500010B586B00446142101A8FFF730FA5749AD
:10106000206888424AD156480068401C54490860AC
:101070000846006801280FD100BF002000905148A9
:10108000006840F000704F4908600846006800F0B2
:101090000070009000BF00BF00BF002000904948D2
:1010A0001038006840F001004649103908600846D1
:1010B000006800F00100009000BF00BF4FF4C05076
:1010C0000190022002900020039003200490092048
:1010D000059001A93C4800F0D7FB00220521132010
:1010E00000F092FD132000F07FFD00220521142066
:1010F00000F08AFD142000F077FD5CE033492068A1
:10110000884258D100BF002000902E48006840F06F
:1011100080602C4908600846006800F080600090FC
:1011200000BF00BF26480068401C254908600846EB
:10113000006801280FD100BF0020009021480068FE
:1011400040F000701F4908600846006800F0007019
:10115000009000BF00BF00BF002000901948103869
:10116000006840F00200174910390860084600681E
:1011700000F00200009000BF00BF6020019002203C
:10118000029000200390032004900920059001A9FB
:101190000F4800F079FB002205213F2000F034FDCC
:1011A0003F2000F021FD00220521402000F02CFD11
:1011B000402000F019FD06B010BD000000640040A2
:1011C0003400002040380240000002400068004027
:1011D0000004024010B5034600242AB9586A40F4BE
:1011E00080005862012010BD93F82000012830D102
:1011F0000F2927D2DFE801F0080A0C0E101214168E
:10120000181A1C1E202224009A6221E0DA621FE0D4
:101210001A631DE05A631BE09A6319E0DA6317E072
:101220001A6415E05A6413E09A6411E0DA640FE07E
:101230001A650DE05A650BE09A6509E0DA6507E08A
:101240001A6605E0586A40F480005862012400BF25
:1012500017E093F8200078B90D2902D00E2904D1A7
:1012600001E0DA6507E01A6605E0586A40F480009C
:101270005862012400BF04E0586A40F480005862BC
:1012800001242046AFE770477047704770477047AA
:1012900070B5044694F82000012822D1022084F879
:1012A00020002068006820F001002168086000F03C
:1012B000FBFB05460DE000F0F7FB401B0A2808D9B0
:1012C000606A40F400306062052084F8200001204C
:1012D00070BD2068406800F001000028EBD160621A
:1012E000F6E7606A40F4002060620120F0E7704792
:1012F00070477047704770477047704710B5044695
:101300000CB9012010BD607920B900202071204661
:1013100000F004F8012060710020F3E708B50A4AE4
:10132000016891420FD100BF00210091074909686F
:1013300041F48051054A11601146096801F4805159
:10134000009100BF00BF08BD0030024030380240AD
:101350002DE9F04704460E4617461D46DDF820806D
:101360004FF00009A068802804D1400060654FF06C
:10137000010929E000BF94F83400012802D10220BD
:10138000BDE8F087012084F8340000BF94F83500F0
:10139000012817D1022084F835002068006840F445
:1013A0008020216808602068056143463A4631463E
:1013B0002046FFF7C4F92068006840F0010021686A
:1013C000086001E04FF002094846D9E770B50446CD
:1013D000A56D00F069FB064694F83500022808D098
:1013E0008020606500BF002084F8340000BF012029
:1013F00070BD2068006820F0160021680860206831
:10140000406920F0800021684861206C08B9A06C18
:1014100028B12068006820F0080021680860206872
:10142000006820F001002168086010E000F03CFB3B
:10143000801B05280BD920206065032084F8350027
:1014400000BF002084F8340000BF0320D0E72068EC
:10145000006800F001000028E8D194F85C103F20FB
:101460008840A860012084F8350000BF002084F87F
:10147000340000BF00BFBBE7014691F835000228E9
:1014800003D08020486501207047052081F8350091
:101490000868006820F001000A6810600020F3E787
:1014A000F8B50446002000908C4800684FF41651AF
:1014B000B0FBF1F7A56D2E6894F85C100820884009
:1014C000304098B12068006800F0040070B12068D6
:1014D000006820F004002168086094F85C1008207F
:1014E0008840A860606D40F00100606594F85C1071
:1014F00001208840304068B12068406900F08000D9
:1015000040B194F85C1001208840A860606D40F004
:101510000200606594F85C1004208840304068B197
:101520002068006800F0020040B194F85C100420CC
:101530008840A860606D40F00400606594F85C101D
:1015400010208840304078B32068006800F0080020
:1015500050B394F85C1010208840A86020680068A0
:1015600000F4802080B12068006800F4002028B9D1
:10157000206CC8B12046216C884715E0A06C98B15A
:101580002046A16C88470FE02068006800F4807056
:1015900028B92068006820F0080021680860206CE5
:1015A00010B12046216C884794F85C1020208840B8
:1015B0003040002865D02068006800F01000002846
:1015C0005FD094F85C1020208840A86094F8350023
:1015D000052828D12068006820F0160021680860DE
:1015E0002068406920F0800021684861206C08B9BB
:1015F000A06C28B12068006820F00800216808600D
:1016000094F85C103F208840A860012084F83500E1
:1016100000BF002084F8340000BF206D10B12046C8
:10162000216D8847F8BD2068006800F4802080B1F3
:101630002068006800F4002028B9606C10B12046D2
:10164000616C88471DE0E06BD8B12046E16B8847AC
:1016500017E02068006800F4807068B920680068AE
:1016600020F0100021680860012084F8350000BFD8
:10167000002084F8340000BFE06B10B12046E16B1D
:101680008847606D38B3606D00F00100F0B105204F
:1016900084F835002068006820F0010021680860A7
:1016A00000BF0098401C0090B84200D905E02068B7
:1016B000006800F001000028F3D100BF012084F889
:1016C000350000BF002084F8340000BFE06C10B18A
:1016D0002046E16C884700BFA4E70000E40000203A
:1016E0002DE9F0410446002500F0DEF9074614B963
:1016F0000120BDE8F081606A00B100BF022084F8DB
:10170000350000BF002084F8340000BF2068006866
:1017100020F00100216808600AE000F0C5F9C01B54
:10172000052805D920206065032084F83500E0E70E
:101730002068006800F001000028EED120680568EC
:1017400021480540D4E901010843E16808432169C3
:10175000084361690843A1690843E1690843216AB4
:1017600008430543606A042803D1D4E90B01084308
:101770000543206805602068456925F00705606A13
:101780000543606A04280DD1A06A0543E06A48B1A8
:101790002046FEF77FFF28B140206065012084F8D5
:1017A0003500A6E7206845612046FEF759FF06464A
:1017B00094F85C103F208840B060002060650120F4
:1017C00084F83500002094E73F8010F02DE9F047C1
:1017D00004460D4616461F464FF00008D4F85890B0
:1017E00000BF94F83400012802D10220BDE8F08740
:1017F000012084F8340000BF94F83500012825D179
:10180000022084F83500002060653B4632462946B8
:101810002046FEF7A4FF94F85C103F208840C9F8EA
:1018200008002068006840F0160021680860206CFD
:1018300028B12068006840F008002168086020682E
:10184000006840F001002168086006E000BF002049
:1018500084F8340000BF4FF002084046C6E700009D
:1018600070B5044600F020F906462546681C10B104
:1018700004480078054400BF00F016F9801BA84218
:10188000FAD370BDE0000020F8B502460B460025F3
:10189000002400200021D5E0012606FA01F51E688B
:1018A00006EA0504AC4274D11E7906F00306012E47
:1018B00004D01E7906F00306022E13D190684F0063
:1018C0000326BE40B0434F00DE68BE403043906008
:1018D000506801268E40B0431E79C6F300168E4034
:1018E000304350601E7906F00306032E09D0D068FD
:1018F0004F000326BE40B0434F009E68BE403043B9
:10190000D0601E7906F00306022E13D1CF0802F133
:10191000200656F827004E07F70E0F26BE40B043AC
:101920004F07FF0E1E69BE403043CF0802F120066C
:1019300046F8270010684F000326BE40B0431E79CA
:1019400006F003064F00BE40304310605E6806F4A8
:101950004036002E75D000BF002600963B4E3668FC
:1019600046F48046394F3E603E46366806F480466F
:10197000009600BF00BF364E8F0856F827008E072E
:10198000370F0F26BE40B043324EB24202D100267E
:1019900024E056E0304EB24201D101261EE02F4E27
:1019A000B24201D1022619E02D4EB24201D10326E6
:1019B00014E02C4EB24201D104260FE02A4EB2426E
:1019C00001D105260AE0294EB24201D1062605E0E2
:1019D000274EB24201D1072600E008268F073F0FAD
:1019E000BE4030431A4E8F0846F82700214E30681B
:1019F000A0435E6806F4803606B120431D4E306079
:101A0000361D3068A0435E6806F4003606B12043F8
:101A1000184E361D3060361D3068A0435E6806F4EF
:101A2000801606B12043134E08363060361D3068EC
:101A3000A0435E6806F4001606B120430D4E0C3636
:101A40003060491C1029FFF427AFF8BD443802402C
:101A50000838014000000240000402400008024033
:101A6000000C024000100240001402400018024026
:101A7000001C0240003C0140024613690B400BB1C0
:101A8000012000E00020704710B5426921EA0203FE
:101A900002EA010443EA0443836110BD0AB1816193
:101AA00001E00B0483617047014800687047000043
:101AB000D800002003480068034909780844014918
:101AC00008607047D8000020E000002010B50D48E5
:101AD000006840F400700B4908600846006840F454
:101AE000806008600846006840F480700860032049
:101AF00000F0C8F80F2000F007F800F04BF80020C5
:101B000010BD0000003C024070B588B004460025BE
:101B1000002600222146192000F076F8192000F056
:101B200063F800BF002001901648006840F00100F3
:101B3000144908600846006800F00100019000BFE9
:101B400000BF02A903A800F073F900F0A9F945004D
:101B50000D48B5FBF0F0461E0C480D49086040F2F8
:101B6000E7310B48C160466000210161816000F0EF
:101B7000ABFC20B9064800F01BFD08B070BD012089
:101B8000FBE700004438024040420F0000000140E3
:101B90009009002008B500BF00200090114800689F
:101BA00040F480400F4908600846006800F4804017
:101BB000009000BF00BF00BF00200090081F006819
:101BC00040F08050091F08600846006800F080500F
:101BD000009000BF00BF00220F21901E00F014F8FB
:101BE00008BD00004438024001460846002809DBD1
:101BF00000F01F0301229A4043099B0003F1E023F8
:101C0000C3F8002100BF70472DE9F05F80460D4604
:101C10001646002705F070FC074639462A4633462B
:101C200001F00700C0F1070ABAF1040F02D94FF022
:101C3000040A01E0C0F1070AD14600F1040ABAF132
:101C4000070F02D24FF0000A01E0A0F1030AD446C8
:101C50004FF0010A0AFA09FAAAF1010A0AEA020A8D
:101C60000AFA0CFA4FF0010B0BFA0CFBABF1010B6B
:101C70000BEA030B4AEA0B042146404605F044FCFC
:101C8000BDE8F09F00BF00F00702064B19684FF651
:101C9000FF031940044B0B4343EA0221014B196037
:101CA00000BF70470CED00E00000FA0570B5044677
:101CB0000D460CB9012070BD5848006800F00700BF
:101CC000A84209D255490D700846006800F0070087
:101CD000A84201D00120EEE7207800F0020002289F
:101CE0001DD1207800F00400042805D14C4800687C
:101CF00040F4E0504A490860207800F008000828C5
:101D000005D14748006840F46040454908604448B0
:101D1000006820F0F000A16808434149086020787D
:101D200000F00100A8B36068012807D13C480838DA
:101D30000068C0F34040B8B90120BCE760680228E1
:101D400002D06068032807D1354808380068C0F31E
:101D5000406048B90120AEE7314808380068C0F358
:101D6000400008B90120A6E72D48006820F00300D4
:101D7000616808432A490860FFF796FE064609E0B5
:101D8000FFF792FE801B41F28831884202D903207E
:101D900091E707E02248006800F00C006168B0EBB2
:101DA000810FEDD11D48006800F00700A84209D955
:101DB0001A490D700846006800F00700A84201D0DB
:101DC000012078E7207800F00400042807D11448A7
:101DD000006820F4E050E168084311490860207869
:101DE00000F00800082808D10D48006820F4604081
:101DF000216940EAC1000A49086000F061F8084919
:101E00000968C1F30311074A515CC84006490860DC
:101E100006480068FFF778FE00204CE7003C0240CF
:101E20000838024090A00008E4000020DC000020F8
:101E30000F2202600D4A126802F0030242600B4A50
:101E4000126802F0F0028260084A126802F4E0525E
:101E5000C260064A126802F46042D2080261044A73
:101E6000126802F007020A6070470000083802405A
:101E7000003C02400148006870470000E400002078
:101E800000B5FFF7F7FF04490968C1F38221034A4F
:101E9000515CC84000BD000008380240A0A0000806
:101EA00000B5FFF7E7FF04490968C1F34231034A6F
:101EB000515CC84000BD000008380240A0A00008E6
:101EC0002DE9F047002400250026A146254800689A
:101ED00000F00C0020B1042805D008283AD105E014
:101EE000DFF8849039E0DFF8849036E01D48001F69
:101EF000006800F03F041B48001F006800F48000E9
:101F000078B11A481749091F0968C1F38811A0FB65
:101F100001700146224600233846FEF727FA05469F
:101F20000EE011480F49091F0968C1F38811A0FB91
:101F300001700146224600233846FEF717FA05468F
:101F40000848001F0068C0F30140401C4600B5FB74
:101F5000F6F902E0DFF8109000BF00BF4846BDE888
:101F6000F0870000083802400024F40000127A00D4
:101F7000F8B504460CB90120F8BD207800F0010046
:101F8000002874D0F948006800F00C0004280DD037
:101F9000F648006800F00C00082813D1F348001F31
:101FA000006800F48000B0F5800F0BD1EF480838CE
:101FB0000068C0F34040002859D06068002856D11E
:101FC0000120D9E700BF6068B0F5803F08D1E7483D
:101FD0000838006840F48030E449083908601EE0A1
:101FE0006068B0F5A02F0DD1E0480838006840F4D3
:101FF0008020DE49083908600846006840F48030D7
:1020000008600CE0D9480838006820F48030D749CF
:10201000083908600846006820F48020086000BF86
:10202000606890B1FFF740FD054606E0FFF73CFD14
:10203000401B642801D903209EE7CC48083800687B
:10204000C0F340400028F1D011E0FFF72DFD054618
:1020500006E0FFF729FD401B642801D903208BE728
:10206000C24808380068C0F340400028F1D1207809
:1020700000F0020002285FD1BC48006800F00C00AC
:1020800058B1BA48006800F00C0008281CD1B748C5
:10209000001F006800F48000B0B9B4480838006838
:1020A000C0F3400020B1E068012801D0012063E7BF
:1020B000AE480838006820F0F800216940EAC10005
:1020C000AA490839086037E0E06800B30120A84950
:1020D0000860FFF7E9FC054606E0FFF7E5FC401B5A
:1020E000022801D9032047E7A04808380068C0F358
:1020F00040000028F1D09D480838006820F0F80022
:10210000216940EAC10099490839086014E00020BB
:1021100097490860FFF7C8FC054606E0FFF7C4FCD6
:10212000401B022801D9032026E7904808380068A0
:10213000C0F340000028F1D1207800F00800082802
:102140002CD16069A8B101208A490860FFF7ACFC76
:10215000054606E0FFF7A8FC401B022801D9032032
:102160000AE782486C300068C0F340000028F1D0D4
:1021700014E000207F490860FFF796FC054606E062
:10218000FFF792FC401B022801D90320F4E67748B0
:102190006C300068C0F340000028F1D1207800F0D6
:1021A0000400042870D1002770483830006800F01F
:1021B000805090B900BF002000906C483830006813
:1021C00040F080506949383108600846006800F0E6
:1021D0008050009000BF00BF01276748006800F4EE
:1021E0008070B0B96448006840F48070624908604B
:1021F000FFF75AFC054606E0FFF756FC401B022895
:1022000001D90320B8E65C48006800F4807000281B
:10221000F2D000BFA068012808D154486830006897
:1022200040F001005149683108601DE0A0680528B0
:102230000DD14E486830006840F004004B496831C9
:1022400008600846006840F0010008600CE047485C
:102250006830006820F00100444968310860084691
:10226000006820F00400086000BFA068A8B1FFF774
:102270001BFC054609E0FFF717FC401B41F28831C3
:10228000884202D9032077E626E0384868300068A3
:10229000C0F340000028EED013E0FFF705FC054630
:1022A00008E0FFF701FC401B41F28831884201D968
:1022B000032061E62D4868300068C0F34000002824
:1022C000EFD1012F07D129483830006820F0805025
:1022D00026493831086000BFA069002845D023484E
:1022E000006800F00C0008285DD0A069022845D1E4
:1022F00000201F490866FFF7D7FB054606E0FFF7F9
:10230000D3FB401B022801D9032035E617480838C3
:102310000068C0F340600028F1D1D4E90701084308
:10232000616A40EA81110122A06AC2EB500041EAD1
:1023300000412C20005D41EA00600C49091F086043
:1023400001200B490866FFF7AFFB054606E0FFF7E3
:10235000ABFB401B022801D903200DE603480838D7
:102360000068C0F340600028F1D049E0083802401E
:1023700000004742800E4742007000400020214983
:102380000866FFF791FB054606E0FFF78DFB401B53
:10239000022801D90320EFE51B480068C0F3406024
:1023A0000028F2D12CE0A069012800D1E4E516480C
:1023B000001D0668A069012820D006F48001E069AC
:1023C00081421BD106F03F01206A814216D147F6B7
:1023D000C0703040616AB0EB811F0FD106F440310C
:1023E0000122A06AC2EB5000B1EB004F06D106F00B
:1023F00070612C20005DB1EB006F01D00120BBE5C6
:102400000020B9E50000474200380240704770479D
:102410007047000030B502460B4600BF92F83C0002
:10242000012801D1022030BD012082F83C0000BF0C
:10243000022082F83D00106844681068816824F02A
:1024400070041868044310684460184D1068A8426E
:102450001BD01068B0F1804F17D0154D1068A842FE
:1024600013D0144D1068A8420FD0134D1068A84225
:102470000BD0124D1068A84207D0114D1068A84229
:1024800003D0104D1068A84205D121F08001586892
:10249000014310688160012082F83D0000BF0020E8
:1024A00082F83C0000BF00BFBDE700000000014013
:1024B0000004004000080040000C004000040140FF
:1024C000004001400018004010B504460CB901203E
:1024D00010BD94F83D0060B9002084F83C0020460F
:1024E00001F070FCA06C08B91448A0642046A16CEF
:1024F0008847022084F83D00211D206801F0F4FA8D
:10250000012084F8460000BF84F83E0001213F20EE
:102510000155402001554120015500BF00BF012059
:1025200084F84200432001554420015545200155BF
:1025300000BF012084F83D000020C9E741250008C4
:1025400038B504462068B0F1804F18D100BF002094
:1025500000901548006840F00100134908600846E3
:10256000006800F00100009000BF00BF00220521BC
:102570001C20FFF749FB1C20FFF736FB13E00B493B
:10258000206888420FD100BF0020009006480068F4
:1025900040F00200044908600846006800F00200AC
:1025A000009000BF00BF38BD40380240000400402A
:1025B000014691F83D00012801D00120704702201A
:1025C00081F83D000868C06840F001000B68D860E1
:1025D0001A4B086898421BD00868B0F1804F17D09A
:1025E000174B0868984213D0164B086898420FD0D2
:1025F000154B086898420BD0144B0868984207D0D6
:10260000134B0868984203D0124B086898420CD1CB
:102610000868806800F00702062A0CD00868006885
:1026200040F001000B68186005E00868006840F0A1
:1026300001000B6818600020C0E7000000000140A6
:102640000004004000080040000C0040000401406D
:1026500000400140001800402DE9F04104460D46BD
:10266000002700BF94F83C00012802D10220BDE8F9
:10267000F081012084F83C0000BF022084F83D0076
:102680002068866826F0770626F47F4620688660F4
:102690002868502833D00CDC202850D004DC0028D7
:1026A0004BD0102851D149E0302849D040284CD196
:1026B00039E060282DD0702807D0B0F5805F03D0B6
:1026C000B0F5005F41D10DE041E0D5E902136A6841
:1026D000206801F086FA2068866846F07706206850
:1026E000866034E0D5E902136A68206801F079FA5F
:1026F0002068806840F480402168886027E0EA68AC
:102700006968206801F096FB5021206801F074FA96
:102710001DE0EA686968206801F09FFB602120687D
:1027200001F06AFA13E0EA686968206801F082FB48
:102730004021206801F060FA09E000BF00BF00BF3F
:102740002968206801F058FA01E0012700BF00BFA6
:10275000012084F83D0000BF002084F83C0000BF49
:10276000384684E770477047704710B504462068C4
:102770000069C0F34000F0B12068C068C0F34000B9
:10278000C8B16FF00200216808610120207720683D
:10279000806900F0030020B12046D4F890108847EB
:1027A00007E02046D4F8981088472046D4F89C10BB
:1027B00088470020207720680069C0F38000F0B1CE
:1027C0002068C068C0F38000C8B16FF004002168C1
:1027D0000861022020772068806900F4407020B1F1
:1027E0002046D4F89010884707E02046D4F8981087
:1027F00088472046D4F89C1088470020207720681E
:102800000069C0F3C000F0B12068C068C0F3C00028
:10281000C8B16FF0080021680861042020772068A3
:10282000C06900F0030020B12046D4F8901088471A
:1028300007E02046D4F8981088472046D4F89C102A
:1028400088470020207720680069C0F30010F0B1AD
:102850002068C068C0F30010C8B16FF01000216894
:102860000861082020772068C06900F4407020B11A
:102870002046D4F89010884707E02046D4F89810F6
:1028800088472046D4F89C1088470020207720688D
:10289000006900F0010060B12068C06800F001002C
:1028A00038B16FF00100216808612046D4F880102B
:1028B000884720680069C0F3C01060B12068C06814
:1028C000C0F3C01038B16FF0800021680861204665
:1028D000D4F8B010884720680069C0F3801060B158
:1028E0002068C068C0F3801038B16FF040002168E4
:1028F00008612046D4F88810884720680069C0F332
:10290000401060B12068C068C0F3401038B16FF06B
:102910002000216808612046D4F8A810884710BD1F
:1029200010B586B00446142101A8FDF7C8FD114971
:10293000206888421CD100BF002000900E4800682B
:1029400040F001000C4908600846006800F00100F2
:10295000009000BF00BFC020019002200290002024
:10296000039004900220059001A90448FEF78CFF13
:1029700006B010BD000400403038024000000240A4
:1029800070472DE9F04104460D461646002700BF6A
:1029900094F83C00012802D10220BDE8F08101201A
:1029A00084F83C0000BF36B1042E1BD0082E31D075
:1029B0000C2E5ED145E02946206801F027F92068F9
:1029C000806940F00800216888612068806920F0F3
:1029D00004002168886120688069296908432168AA
:1029E000886148E02946206801F048F9206880693C
:1029F00040F40060216888612068806920F480606C
:102A00002168886120688069296940EA012021687D
:102A1000886130E02946206801F06EF92068C069BD
:102A200040F008002168C8612068C06920F00400F7
:102A30002168C8612068C069296908432168C861A4
:102A400019E02946206801F093F92068C06940F434
:102A500000602168C8612068C06920F48060216836
:102A6000C8612068C069296940EA01202168C861FD
:102A700001E0012700BF00BF00BF002084F83C0038
:102A800000BF384689E7000010B504460CB90120A4
:102A900010BD94F83D0060B9002084F83C00204649
:102AA00001F090F9206E08B9144820662046216E86
:102AB0008847022084F83D00211D206801F014F8A9
:102AC000012084F8460000BF84F83E0001213F2029
:102AD0000155402001554120015500BF00BF012094
:102AE00084F84200432001554420015545200155FA
:102AF00000BF012084F83D000020C9E7012B000839
:102B0000704770477047000070B504460D4615B910
:102B100094F83E000BE0042D02D13F20005D06E05A
:102B2000082D02D14020005D01E04120005D012818
:102B300001D0012070BD1DB9022084F83E000EE0D6
:102B4000042D03D102213F20015508E0082D03D1B7
:102B500002214020015502E00221412001550122BD
:102B60002946206801F02CF823492068884203D0C8
:102B700022492068884201D1012000E0002028B1CC
:102B80002068406C40F40040216848641A4920687D
:102B900088421BD02068B0F1804F17D018492068B8
:102BA000884213D01749206888420FD01649206800
:102BB00088420BD011492068884207D01349206809
:102BC000884203D01249206888420CD1206880686E
:102BD00000F00706062E0CD02068006840F00100C7
:102BE0002168086005E02068006840F00100216865
:102BF000086000209EE70000000001400004014042
:102C00000004004000080040000C0040004001406B
:102C10000018004010B5044603492068884201D1DD
:102C2000FEF748FF10BD000000000140704710B5DE
:102C3000034600240AB9012010BD00BF93F83C00F0
:102C4000012801D10220F7E7012083F83C0000BFF2
:102C500093F83D00012857D11B2952D2DFE801F03B
:102C60000E10121416181A1C1E20222426282A2D93
:102C7000303336393C3F4245484B4E009A6442E07F
:102C8000DA6440E01A653EE05A653CE09A653AE055
:102C9000DA6538E01A6636E05A6634E09A6632E061
:102CA000DA6630E01A672EE05A672CE09A672AE06D
:102CB000DA6728E0C3F8802025E0C3F8842022E00A
:102CC000C3F888201FE0C3F88C201CE0C3F89020D4
:102CD00019E0C3F8942016E0C3F8982013E0C3F875
:102CE0009C2010E0C3F8A0200DE0C3F8A4200AE067
:102CF000C3F8A82007E0C3F8AC2004E0C3F8B02074
:102D000001E0012400BF2DE093F83D0048BB0E29EF
:102D100024D2DFE801F007090B0D0F111315171965
:102D20001B1D1F219A641BE0DA6419E01A6517E085
:102D30005A6515E09A6513E0DA6511E01A660FE04E
:102D40005A660DE09A660BE0DA6609E01A6707E05A
:102D50005A6705E09A6703E0DA6701E0012400BFE3
:102D600000E0012400BF002083F83C0000BF2046A3
:102D700062E7704770477047704770477047704709
:102D80002DE9F84F0446206805682068C668206869
:102D900047694FF00009CA4605F00F09B9F1000F65
:102DA0000AD105F0200038B106F0200020B12046FD
:102DB00001F04CF9BDE8F88FB9F1000F7CD007F0B5
:102DC000010018B906F49070002875D005F00100D4
:102DD00030B106F4807018B1206C40F0010020641E
:102DE00005F0040030B107F0010018B1206C40F08C
:102DF0000200206405F0020030B107F0010018B1B4
:102E0000206C40F00400206405F0080048B106F092
:102E1000200010B907F0010018B1206C40F0080044
:102E20002064206C002846D005F0200028B106F070
:102E3000200010B1204601F009F920684069C0F374
:102E4000801A206C00F0080010B9BAF1000F2DD0E4
:102E5000204601F07BF82068406900F040004028DF
:102E600020D100BF00BF2168143151E8001F21F0BC
:102E700040002168143141E80002002AF3D100BF6C
:102E8000A06B50B17548A16B0865A06BFEF7F4FA12
:102E900088B1A06B016D88470DE02046616D8847C1
:102EA00009E009E02046616D884704E02046616D35
:102EB0008847002020647DE7206B012876D105F04B
:102EC0001000002872D006F010000028FAD000BFD1
:102ED0000020009020680068009020684068009002
:102EE00000BF00BF2068406900F0400040285ED16C
:102EF000A06B006840681FFA80F8B8F1000F54D04A
:102F0000A08D404551DDA4F82E80A06BC069B0F5BE
:102F1000807F43D000BF00BF21680C3151E8001F03
:102F200021F4807021680C3141E80002002AF3D1BD
:102F300000BF00BF00BF2168143151E8001F21F01D
:102F400001002168143141E80002002AF3D100BFDA
:102F500000BF00BF2168143151E8001F21F040007C
:102F60002168143141E80002002AF3D100BF20207B
:102F700084F83E000020206300BF00BF21680C31B0
:102F800051E8001F21F0100021680C3141E80002D7
:102F9000002AF3D100BFA06BFEF718FAA08DE38DD5
:102FA000C01A81B22046A26E904703E740E0A08D90
:102FB000E18D401A1FFA80F8E08DC0B3B8F1000F20
:102FC00035D000BF00BF21680C3151E8001F21F44B
:102FD000907021680C3141E80002002AF3D100BF53
:102FE00000BF00BF2168143151E8001F21F001002B
:102FF0002168143141E80002002AF3D100BF2020EB
:1030000084F83E000020206300BF00BF21680C311F
:1030100051E8001F21F0100021680C3141E8000246
:10302000002AF3D100BF41462046A26E9047C1E678
:1030300005F0800030B106F0800018B1204601F0A4
:1030400097F9B7E605F0400030B106F0400018B13E
:10305000204600F0B1FFADE600BFABE6833E0008BE
:1030600010B504460CB9012010BDA06900B100E004
:1030700000BF94F83D0060B9002084F83C00204671
:1030800000F0BEFFE06E08B91548E0662046E16E2C
:103090008847242084F83D002068C06820F4005050
:1030A0002168C860204601F04DF82068006920F4CE
:1030B0009040216808612068406920F02A0021685A
:1030C00048612068C06840F400502168C860002052
:1030D0002064202084F83D0084F83E000020C3E7EF
:1030E000E530000810B586B00446142101A8FDF7AC
:1030F000E6F9D149206888425AD100BF00200090EB
:10310000CE48006840F01000CC49086008460068CE
:1031100000F01000009000BF00BF00BF0020009032
:10312000C6481438006840F00100C44914390860EA
:103130000846006800F00100009000BF00BF4FF497
:10314000C0600190022002900020039003200490B0
:103150000720059001A9BA48FEF796FBB948BA497D
:1031600008604FF0006048600021B7488160C1608E
:103170004FF4806101610021416181614FF48071F0
:10318000C1614902016200214162FEF7A9FA08B15A
:10319000FDF7FCFA00BFAC48A063846300BF0022C7
:1031A00005212520FEF730FD2520FEF71DFD40E11D
:1031B000A649206888425BD100BF002000909F484C
:1031C000001F006840F400309C49091F0860084651
:1031D000006800F40030009000BF00BF00BF002076
:1031E000009096481438006840F001009349143963
:1031F00008600846006800F00100009000BF00BFB2
:103200000C200190022002900020039003200490E3
:103210000720059001A98A48FEF736FB8C488D49A6
:1032200008604FF00060486000218A488160C160FA
:103230004FF4806101610021416181614FF480712F
:10324000C1614902016200214162FEF749FA08B1F9
:10325000FDF79CFA00BF7F48A063846300BF002293
:1032600005212620FEF7D0FC2620FEF7BDFCE0E07D
:103270007949206888425DD100BF002000906F48E6
:10328000001F006840F480206C49091F0860084650
:10329000006800F48020009000BF00BF00BF002045
:1032A000009066481438006840F0040063491439FF
:1032B00008600846006800F00400009000BF00BFEE
:1032C0004FF4406001900220029000200390032000
:1032D00004900720059001A96048FEF7D5FA5C48E4
:1032E00060385F4908604FF00060486000215C482A
:1032F0008160C1604FF480610161002141618161A1
:103300004FF48071C1614902016200214162FEF700
:10331000E7F908B1FDF73AFA00BF5148A0638463AA
:1033200000BF002205212720FEF76EFC2720FEF7B4
:103330005BFC7EE04B49206888427AD100BF0020C8
:1033400000903E48006840F020003C490860084674
:10335000006800F02000009000BF00BF00BF002008
:10336000009036481438006840F00400334914399E
:1033700008600846006800F00400009000BF00BF2D
:10338000C0200190022002900120039003200490AD
:103390000820059001A93148FEF776FA2948183827
:1033A000314908608005486000212F488160C16074
:1033B0004FF4806101610021416181614FF48071AE
:1033C000C1614902016200214162FEF789F908B139
:1033D000FDF7DCF900BF2448A063846300BF1948EF
:1033E0006030224908604FF02060486040211F484B
:1033F00081600021C1604FF4806101610021416161
:103400008161C1614FF40031016200214162FEF728
:1034100067F908B1FDF7BAF900BF14486063846327
:1034200000BF002205214720FEF7EEFB4720FEF7F4
:10343000DBFB06B010BD0000001001404438024024
:103440000000024040640240B007002000440040F9
:103450008860024010080020004800400008024038
:103460007008002000140140D0080020300900201E
:103470000246002329B9106C40F02000106401209E
:10348000704700BF92F83C00012801D10220F7E705
:10349000012082F83C0000BF92F83D00202801D1B5
:1034A000916604E0106C40F020001064012300BF1E
:1034B000002082F83C0000BF1846E1E770477047E3
:1034C000F7B50446154694F83D00202846D10198EA
:1034D00000B10DB90120FEBD00BF94F83C000128E9
:1034E00001D10220F7E7012084F83C0000BF0198D9
:1034F0002062A584E58400202064212084F83D001A
:103500001748616BC8631748616B08641648616BA4
:10351000C8640020616B086501AE23681A1D31681C
:103520002B46606BFEF752F96FF04000216808608F
:1035300000BF002084F83C0000BF00BF00BF21682E
:10354000143151E8001F41F080002168143141E836
:103550000002002AF3D100BF0020BCE70220BAE736
:10356000E73E00083F3F0008973E0008704770475D
:1035700000BFFEE700B970470278437842EA0322B1
:10358000C2F30A02154B9A804278D210837842EA3D
:103590004312C2F30A02114BDA8082789211C37887
:1035A00042EA8302037942EA8322C2F30A020B4B06
:1035B0001A8002795210437942EAC312C2F30A0216
:1035C000064B5A804279121192081A724279C2F35C
:1035D00001125A7201221A7500BFCCE75001002077
:1035E00010B50E480E4908600320486000210C48C1
:1035F0008160C1604FF4A02101614FF4C0014161BD
:103600000021017641768176C17601774177FDF719
:1036100029FC08B1FDF7BAF810BD000000640040B5
:10362000B003002010B50E480E4908600320486022
:1036300000210C488160C1604FF4A02101614FF46A
:10364000C00141610021017641768176C176017722
:103650004177FDF707FC08B1FDF798F810BD0000B1
:10366000006800401404002010B5054805490860B2
:103670000846FDF743FE08B1FDF788F810BD0000CD
:10368000003002403800002008B500BF0020009044
:103690002248006840F4800020490860084600681D
:1036A00000F48000009000BF00BF00BF0020009029
:1036B0000846006840F4001008600846006800F4FE
:1036C0000010009000BF00BF002205210C20FEF773
:1036D0009BFA0C20FEF788FA002205211020FEF745
:1036E00093FA1020FEF780FA002205213920FEF718
:1036F0008BFA3920FEF778FA002205213A20FEF7EE
:1037000083FA3A20FEF770FA002205214520FEF7E1
:103710007BFA4520FEF768FA08BD00003038024009
:1037200000B587B0142102A8FCF7C9FE00BF002035
:1037300001904848006840F0040046490860084687
:10374000006800F00400019000BF00BF00BF00202F
:1037500001900846006840F0800008600846006854
:1037600000F08000019000BF00BF00BF002001906A
:103770000846006840F0010008600846006800F054
:103780000100019000BF00BF00BF0020019008466B
:10379000006840F0020008600846006800F002007F
:1037A000019000BF00BF01224FF4C0412A48FEF73C
:1037B00075F9002240F203112748FEF76FF9002245
:1037C0004FF420712548FEF769F94FF4C04002908C
:1037D0000120039004900020059002A91E48FEF7E6
:1037E00053F80320029001200390049002200590DA
:1037F00002A91948FEF748F804200290002003901F
:103800000220049002A91448FEF73EF8012002901D
:10381000002003900220049002A91148FEF734F81A
:103820004FF48070029001200390002004900590D6
:1038300002A90948FEF728F84FF4207002900120F1
:10384000039000200490059002A90448FEF71CF89C
:1038500007B000BD303802400008024000040240BA
:103860000000024000B587B000200390049005904E
:103870000690019002904FF080401449086042F297
:10388000CF00486000211148816040F2E731C160FB
:10389000002101618161FEF717FE08B1FCF776FF98
:1038A0004FF48050039003A90848FEF7D5FE08B1F5
:1038B000FCF76CFF00200190029001A90348FEF77D
:1038C000A9FD08B1FCF762FF07B000BD7804002035
:1038D00000B58DB0002009900A900B900C900790D5
:1038E00008901C216846FCF7EAFD25482549086038
:1038F0005320486000212348816044F61F61C16065
:10390000002101618161FEF7DFFD08B1FCF73EFF98
:103910004FF48050099009A91A48FEF79DFE08B19E
:10392000FCF734FF1748FFF7AFF808B1FCF72EFF9C
:1039300000200790089007A91248FEF76BFD08B118
:10394000FCF724FF702000904FF47A700190022061
:10395000029000200490002269460A48FFF711F8FF
:1039600008B1FCF713FF042269460648FFF709F87F
:1039700008B1FCF70BFF0348FEF7D2FF0DB000BD06
:10398000000400402C05002010B50C480C490860CC
:103990000C4848604FF48051094881600021C160A3
:1039A0004FF4806101610421416100218161C161A5
:1039B000FFF756FB08B1FCF7E9FE10BD001001400F
:1039C000E0050020A086010010B50B480B490860F7
:1039D0004FF4E1304860002108488160C160016116
:1039E0000421416100218161C161FFF739FB08B108
:1039F000FCF7CCFE10BD000000440040540600203F
:103A000010B50D480D4908604FF4E13048604FF49F
:103A100080510A4881600021C1604FF480610161DA
:103A20000C21416100218161C161FFF719FB08B1DF
:103A3000FCF7ACFE10BD000000480040C8060020A6
:103A400010B50B480B4908604FF4E1304860002185
:103A500008488160C16001610C21416100218161E0
:103A6000C161FFF7FDFA08B1FCF790FE10BD000040
:103A7000001401403C07002000BFFEE700BFFEE746
:103A800010B500BF502080F31188BFF34F8FBFF3F4
:103A90006F8F00BF05F0C0FB18B14FF08050044994
:103AA000086000BF002080F3118800BF10BD000037
:103AB00004ED00E00348006840F47000014908602C
:103AC0007047000088ED00E010B50248FEF74DFE9B
:103AD00010BD00009009002010B50248FEF745FE19
:103AE00010BD00007804002010B50268294B9842F0
:103AF0000ED0B0F1804F0BD0274B984208D0274B07
:103B0000984205D0264B984202D0264B984203D1CA
:103B100022F070024B681A431E4B984220D0B0F13D
:103B2000804F1DD01C4B98421AD01C4B984217D086
:103B30001B4B984214D01B4B984211D01A4B984201
:103B40000ED01A4B98420BD0194B984208D0194B03
:103B5000984205D0184B984202D0184B984203D196
:103B600022F44072CB681A4322F080034C6943EA86
:103B7000040202608B68C3620B688362054B984243
:103B800002D0084B984201D10B69036301234361C2
:103B900010BD00000000014000040040000800408B
:103BA000000C00400004014000400140004401407E
:103BB0000048014000180040001C00400020004068
:103BC00030B501F01F05012404FA05F3046A9C4393
:103BD0000462046A01F01F0502FA05F52C43046231
:103BE00030BD30B50C46816821F47F4142EA03259F
:103BF00025432943816030BD0A46816821F0700168
:103C000042F00703194381607047000030B5056A30
:103C100025F001050562026A4368846924F0700496
:103C200024F003040D682C4322F002028D682A431D
:103C3000104DA84200D103E00F4DA84206D100BFAD
:103C400022F00802CD682A4322F00402094DA8425E
:103C500002D0094DA84207D123F4807323F40073E6
:103C60004D692B438D692B43436084614D684563E7
:103C7000026230BD000001400004014030B5056A19
:103C800025F010050562026A4368846924F4E04463
:103C900024F440740D6844EA052422F020028D6863
:103CA00042EA0512124DA84200D103E0114DA8428C
:103CB00007D100BF22F08002CD6842EA051222F04F
:103CC00040020B4DA84202D00A4DA84209D123F46C
:103CD000806323F400634D6943EA85038D6943EAF9
:103CE0008503436084614D688563026230BD0000D6
:103CF000000001400004014030B5056A25F48075DC
:103D00000562026A4368C46924F0700424F0030465
:103D10000D682C4322F400728D6842EA0522124D90
:103D2000A84200D103E0114DA84207D100BF22F400
:103D30000062CD6842EA052222F480620A4DA84260
:103D400002D00A4DA84209D123F4805323F4005332
:103D50004D6943EA05138D6943EA05134360C46165
:103D60004D68C563026230BD00000140000401409F
:103D700030B5056A25F480550562036A4468C26956
:103D800022F4E04222F440720D6842EA052223F454
:103D900000538D6843EA0533084DA84202D0084D10
:103DA000A84204D124F480444D6944EA8514446057
:103DB000C2614D680564036230BD0000000001402F
:103DC000000401400E4940F8801F0E4941600E4931
:103DD00081600E49C1600E4901610E4941610E4981
:103DE00081610E49C1610E4901620E4941620E496D
:103DF00081620E49C1620E4901638038704700003C
:103E0000152C00082D2C0008732D0008752D0008B6
:103E1000672700086927000881290008032B00088C
:103E2000052B0008652700080F240008112400084E
:103E30000D24000830B50B461446026A056A25F0C9
:103E400001050562816921F0F00141EA041122F0C7
:103E50000A021A438161026230BD30B50B46144636
:103E6000056A25F0100505628169026A21F4704136
:103E700041EA043122F0A00242EA031281610262A7
:103E800030BD70B50546AC6B0020E085E08420466F
:103E9000616D884770BD70B505460026AC6B206823
:103EA0004069C0F3C01694F83D00212805D126B121
:103EB0000020E084204600F08FF820684069C0F3BD
:103EC000801694F83E00222805D126B10020E08516
:103ED000204600F03BF8206C40F0100020642046A3
:103EE000616D884770BD70B50546AC6B2868006889
:103EF00000F48070F8B90020E08400BF00BF2168A2
:103F0000143151E8001F21F080002168143141E88C
:103F10000002002AF3D100BF00BF00BF21680C31AE
:103F200051E8001F41F0400021680C3141E80002D7
:103F3000002AF3D102E02046A16C884770BD70B51D
:103F40000446A56B2846696C884770BD00BF00BF5A
:103F500002680C3252E8002F22F4907102680C3291
:103F600042E80013002BF3D100BF00BF00BF02687E
:103F7000143252E8002F22F001010268143242E8A4
:103F80000013002BF3D100BF016B01290ED100BF3C
:103F900000BF02680C3252E8002F22F010010268C4
:103FA0000C3242E80013002BF3D100BF202180F82F
:103FB0003E1000210163704710B504462068C068B8
:103FC00020F040002168C860202084F83D00204691
:103FD000A16C8847002010BD00BF00BF02680C32F2
:103FE00052E8002F22F0C00102680C3242E80013B0
:103FF000002BF3D100BF202180F83D107047000056
:1040000009494164094981640949C1640949016553
:1040100009494165094981650949C165094901663F
:1040200009498166704700006F3500086D3500084A
:10403000BF340008BD3400087F2D0008792D00082A
:104040007D2D00087B2D0008772D0008F8B504466B
:1040500094F83E00222873D1A068B0F5805F0CD19F
:10406000206950B90025A66A20684068C0F308009E
:104070003080A06A801CA06215E0A56A0026A068B6
:10408000B0F5805F03D0A06828B9206918B920680E
:104090004068287004E02068406800F07F002870C5
:1040A000A06A401CA062E08D401E80B2E08500281E
:1040B00044D12068C06820F020002168C8602068D2
:1040C000C06820F480702168C8602068406920F0D2
:1040D000010021684861202084F83E00206B0128FF
:1040E00026D10020206300BF00BF21680C3151E8B9
:1040F000001F21F0100021680C3141E80002002A65
:10410000F3D100BF2068006800F0100010280AD129
:1041100000BF002000902068006800902068406880
:10412000009000BF00BFA18D2046A26E904702E024
:104130002046216D88470020F8BD01E00020FBE704
:104140000220F9E72DE9F84F04462068006920F4C1
:104150004050E1680843216808612169A06808436C
:1041600061690843E169084300902068C06849F22A
:104170000C618843009908432168C8602068406941
:1041800020F44070A169084321684861764920689D
:10419000884203D075492068884203D1FDF780FE2C
:1041A000814602E0FDF76CFE8146E069B0F5004F04
:1041B0006CD102206168A0FB015003461920A9FBC5
:1041C000007001462A463846FCF7D0F86421B0FB5F
:1041D000F1F04FEA001A02206168A0FB01510B4682
:1041E0001920A9FB00712A463846FCF7BFF8834620
:1041F00002206168A0FB015003461920A9FB007151
:104200002A463846FCF7B2F86421B0FBF1F000EB27
:10421000C00101EB0010ABEB8000322101EBC000CC
:104220006421B0FBF1F000F0F8000AEB400A022034
:104230006168A0FB015003461920A9FB00700146EC
:104240002A463846FCF792F8834602206168A0FBB4
:10425000015003461920A9FB00712A463846FCF795
:1042600085F86421B0FBF1F000EBC00101EB001018
:10427000ABEB8000322101EBC0006421B0FBF1F018
:1042800000F007005044216888606AE004206168FB
:10429000A0FB015003461920A9FB007001462A46E5
:1042A0003846FCF763F8824604206168A0FB0150A1
:1042B00003461920A9FB007001462A463846FCF740
:1042C00055F86421B0FBF1F000EBC00101EB0010E8
:1042D000AAEB8000322101EB00106421B0FBF1F069
:1042E00000F0F00A04206168A0FB01700346192069
:1042F000A9FB00513A462846FCF738F86421B0FB88
:10430000F1F00AEB001A04206168A0FB01510B4692
:104310001920A9FB00712A463846FCF727F8834686
:1043200004206168A0FB015003461920A9FB00701E
:1043300001462A463846FCF719F86421B0FBF1F033
:1043400000EBC00101EB0010ABEB8000322101EB70
:1043500000106421B0FBF1F000F00F005044216820
:104360008860BDE8F88F0000001001400014014093
:10437000014691F83D00212828D18868B0F5805F7A
:104380000BD1086948B90A6A1088C0F308000B68A5
:104390005860086A801C086205E00B6A581C0862B5
:1043A00018780B685860C88C401E80B2C88458B911
:1043B0000868C06820F080000B68D8600868C06892
:1043C00040F040000B68D860002070470220FCE7F6
:1043D00010B50248FEF7D4FC10BD0000E005002037
:1043E00010B50248FEF7CCFC10BD000054060020BA
:1043F00010B50248FEF7C4FC10BD0000C80600203E
:1044000010B50248FEF7BCFC10BD00003C070020C0
:1044100000BFFEE710B5082202490348FFF750F835
:1044200010BD0000C40000203C070020F0EE400A50
:10443000B1EE041A20EE811AF2EE001A81EE212A62
:10444000B3EE031A22EE011ADFED071A61EE211A0C
:104450009FED062A81EE821ADFED051A81EE212AF0
:10446000B0EE420A70470000000070425C8FC23D0F
:10447000D00F494000BF034802F068F8012003F064
:1044800042FFF8E79900002010B52DED048BB0EE47
:10449000408AF0EE608AB0EE419ADFED190A88EEAC
:1044A000A00AF7EE080A20EE200A164880ED9D0AC1
:1044B000DFED130A88EE200AF7EE080A20EE200A44
:1044C00080ED9C0ADFED0E0A89EE200AF1EE040A67
:1044D00020EE200A80ED9E0AD0ED9E1AB0EE611A01
:1044E000D0ED9D1AF0EE610AD0ED9C1AB0EE610A93
:1044F00000F02CFF00F064FBBDEC048B10BD00004D
:1045000000002544440A00201F4800780A2838D2B9
:10451000DFE800F0070506090A0B080C0D0E00BFC6
:1045200000BF704700BF00BF00BF00BF00BF00BF9B
:104530001648007A012804D002281DD003281FD174
:1045400016E01248407A012804D002280AD0032835
:104550000CD103E006200C49087007E008200A4946
:10456000087003E009200849087000BF00BF07E099
:1045700007200549087003E005200349087000BFC3
:1045800000BF00BFCDE700009900002050010020CF
:1045900000B502462AB110785A2802D15078A528D1
:1045A00000D000BDD07BB0282FD1107C537C40EAD6
:1045B000032000B200EE100AB8EEC00AF2EE040AC0
:1045C00080EE201A2D4880ED001A907CD37C40EAC2
:1045D000032000B200EE100AB8EEC00AF2EE040AA0
:1045E00080EE201A254880ED011A107D537D40EAA7
:1045F000032000B200EE100AB8EEC00AF2EE040A80
:1046000080EE201A1D4880ED021A507FD02833D149
:1046100012F81E0F537840EA032000B200EE100A91
:10462000B8EEC00ADFED160A80EE201A134880EDBE
:10463000031A9078D37840EA032000B200EE100A03
:10464000B8EEC00ADFED0E0A80EE201A0B4880EDAE
:10465000061A107953791E3A40EA032000B200EEA0
:10466000100AB8EEC00AF2EE040A80EE201A0348DF
:1046700080ED041A00F00EF800BF92E77C120020D3
:104680000000C84201F04AFB00BF012003F03BFEDE
:10469000FBE700001E48D0ED040A1E4890ED001A0A
:1046A00070EEC10AB0EE600ADFED1B0AB4EEE00A5C
:1046B000F1EE10FA0BDD1648D0ED050A9FED171A42
:1046C00030EE411A70EE810AC0ED050A19E0DFED07
:1046D000140AB4EEE00AF1EE10FA0BD20C48D0ED59
:1046E000050A9FED0E1A30EE011A70EE810AC0ED38
:1046F000050A06E00648D0ED050A70EE800AC0ED16
:10470000050A0348D0ED040A0248C0ED000A7047CC
:104710007C120020B0000020000034430000B443AD
:10472000000034C300BF064801F0C8FC044801F093
:1047300091FB044802F06EFA012003F0E4FDF2E779
:1047400099000020D00E002010B59FED283ADFED33
:10475000282A9FED282ADFED281A9FED281ADFED81
:10476000280AB7EE000A274802F02FF99FED1F3AFA
:10477000DFED252A9FED1F2ADFED241A9FED241A75
:10478000DFED240AB1EE040A1E4802F045F99FED60
:10479000173ADFED172A9FED172ADFED171A9FED65
:1047A000171ADFED170AB7EE000A1648843002F038
:1047B0000CF99FED0E3ADFED142A9FED0E2ADFED86
:1047C000131A9FED131ADFED130AB1EE040A0D4818
:1047D000843002F021F900210A4802F061F800213A
:1047E0000848843002F05CF810BD000000000000B2
:1047F00000409C450080BB450000FA430000004299
:1048000052499D3A54110020007C924800401C46B9
:104810008FC2753DCDCC4C3D0146074A0868904299
:1048200001D101207047054A0868904201D1022059
:10483000F8E70020F6E70000006400400068004050
:1048400001462B4A0868904201D101207047086850
:10485000B0F1804F01D10220F8E7264A0868904263
:1048600001D10320F2E7244A0868904201D10420D4
:10487000ECE7224A0868904201D10520E6E7204A89
:104880000868904201D10620E0E71E4A086890427D
:1048900001D10720DAE71C4A0868904201D10820BC
:1048A000D4E71A4A0868904201D10920CEE7184A95
:1048B0000868904201D10A20C8E7164A0868904269
:1048C00001D10B20C2E7144A0868904201D10C20A4
:1048D000BCE7124A0868904201D10D20B6E7104AA1
:1048E0000868904201D10E20B0E70020AEE700003A
:1048F000000001400004004000080040000C00409F
:10490000001000400014004000040140004001403D
:10491000004401400048014000180040001C0040D5
:10492000002000400278012A06D04278032A03D0F2
:104930008278042A00D07047C2781206037942EACE
:104940000342437942EA032283791A43014B1A60F6
:1049500000BFF0E7D400002010B5B3EE043ADFED5D
:104960002A2A9FED2A2ADFED2A1A9FED2A1ADFED67
:104970002A0A9FED2A0A2A4802F044FC9FED253AB4
:10498000DFED282A9FED222ADFED271A9FED211A5D
:10499000DFED200AB2EE0E0A214802F05AFC9FED2C
:1049A0001D3ADFED192A9FED212ADFED211A9FED37
:1049B000211ADFED180A9FED200A19488C3002F009
:1049C00004F89FED143ADFED102A9FED182ADFED71
:1049D000181AB3EE0E1ADFED0F0AB1EE000A1048F6
:1049E0008C3002F019F800210D48A0F88E106420D8
:1049F000FCF736FF00210A488C3001F051FF0021FE
:104A0000074801F04DFF10BD00409C4500001643D3
:104A100000004843000000000AD7233C9A99193F40
:104A2000441000200060EA460000FA440050434869
:104A300000A00C468FC2753D9A99993F044988425F
:104A400002DD9FED040A70479FED030AFBE70000BB
:104A500090EEFEFF00C05AC50000000010B5002413
:104A60004CE004EB440101EB04112E4A02EB8100FF
:104A70009FED2D3ADFED2D2A9FED2C2ADFED2C1A2C
:104A80009FED2C1ADFED2C0AB1EE040A02F011F8AA
:104A900004EB44122349E43101EB8200B3EE0E3AF9
:104AA000DFED232A9FED252ADFED251A9FED251A3C
:104AB000DFED250AB7EE000A01F087FF04EB441290
:104AC0001849E43101EB82009FED173ADFED1F2A10
:104AD0009FED1A2ADFED151A9FED171ADFED150A63
:104AE000B1EE040A01F098FF04EB44120D49E431E1
:104AF00001EB8200002101F0D3FE641C032CB0DB2B
:104B0000B7EE003ADFED112A9FED0C2ADFED101A07
:104B10009FED051ADFED040ABFEE000A0D4802F012
:104B200095FC10BD440A00200000000000409C4598
:104B300000401C46CDCC4C3D8FC2753D0080BB452E
:104B400000803B450000004252499D3A007C92485B
:104B500000002544340E00200146134A08689042A4
:104B600001D101207047114A0868904201D102200A
:104B7000F8E70F4A0868904201D10320F2E70D4A96
:104B80000868904201D10420ECE70B4A0868904283
:104B900001D10520E6E7094A0868904201D10620C4
:104BA000E0E70020DEE70000001001400044004084
:104BB00000480040004C00400050004000140140FC
:104BC00010B50024C4E104EB4411E54800EB81007A
:104BD000806800287EDB04EB4411E14800EB810093
:104BE00090ED020AB8EEC00ADE49E01C01EB80003D
:104BF000D0ED000A30EE600ADFEDDB0AB4EEE00A29
:104C0000F1EE10FA17D804EB4411D54800EB8100FF
:104C100090ED020AB8EEC00AD249E01C01EB800018
:104C2000D0ED000A30EE600ADFEDD00AB4EEE00A03
:104C3000F1EE10FA25DA04EB4411C94800EB8100CB
:104C400090ED020AB8EEC00AC649E01C01EB8000F4
:104C5000D0ED000A30EE600ADFEDC50AB4EEE00ADE
:104C6000F1EE10FA0EDDE01C01EB800090ED000A81
:104C7000DFEDC00A30EE200AE01C01EB800080ED81
:104C8000000A1BE104EB4411B54800EB810090EDF4
:104C9000020AB8EEC00AB349E01C01EB8000D0ED77
:104CA000000AB4EEE00AF1EE10FA1CDDE01C01EBA4
:104CB000800090ED000ADFEDB00A30EE200AE01C23
:104CC00001EB800080ED000A084600EB840090EDC7
:104CD000000A00E036E0B1EE400A084600EB84002E
:104CE00080ED000AEAE004EB44119D4800EB8100EE
:104CF00090ED020AB8EEC00A9A49E01C01EB800070
:104D0000D0ED000AB4EEE00AF1EE10FAB9D2E01CE0
:104D100001EB800090ED000ADFED970A30EE600AAB
:104D2000E01C01EB800080ED000A084600EB8400E7
:104D300090ED000AB1EE400A084600EB840080EDD9
:104D4000000ABBE004EB4411854800EB8100806859
:104D5000002855DA04EB4411814800EB810090ED06
:104D6000020AB8EEC00A7F49E01C01EB8000D0EDDA
:104D7000000A30EE600ADFED7C0AB4EEE00AF1EEE4
:104D800010FA17D804EB4411754800EB810090ED40
:104D9000020AB8EEC00A7349E01C01EB8000D0EDB6
:104DA000000A30EE600ADFED710AB4EEE00AF1EEBF
:104DB00010FA25DA04EB4411694800EB810090ED0C
:104DC000020AB8EEC00A6749E01C01EB8000D0ED92
:104DD000000A30EE600ADFED690AB4EEE00AF1EE97
:104DE00010FA0ED2E01C01EB800090ED000ADFED1E
:104DF000610A30EE600AE01C01EB800080ED000AE1
:104E00005CE004EB4411564800EB810090ED020A8F
:104E1000B8EEC00A5349E01C01EB8000D0ED000A57
:104E2000B4EEE00AF1EE10FA1ADDE01C01EB8000AE
:104E300090ED000ADFED500A30EE200AE01C01EB95
:104E4000800080ED000A084600EB840090ED000A27
:104E5000B1EE400A084600EB840080ED000A2DE028
:104E600004EB44113E4800EB810090ED020AB8EEDD
:104E7000C00A3C49E01C01EB8000D0ED000AB4EE12
:104E8000E00AF1EE10FA19D2E01C01EB800090ED7F
:104E9000000ADFED390A30EE600AE01C01EB800009
:104EA00080ED000A084600EB840090ED000AB1EEA8
:104EB000400A084600EB840080ED000A04EB441130
:104EC000274800EB8100B0F90400132190FBF1F0BA
:104ED00000EB80004000412190FBF1F000EB40012D
:104EE00001EB001000EE100AB8EEC00A244800EBF7
:104EF000840080ED000A1B4BE21C03EB820292ED62
:104F0000000ABDEEC00A10EE101A04EB4413144A56
:104F100002EB830001F010FD124A02EB840292EDD5
:104F2000000A174A02EB8402D2ED000A30EE600A52
:104F3000BDEEC00A10EE102A11B204EB440202EBDF
:104F40000412074BE43B03EB820001F0D9FD641C23
:104F5000032CFFF638AE0B4801F05CFE10BD0000DC
:104F6000280B0020900E002000007748000077C832
:104F700000403949000077490000F748004039C92E
:104F8000C00E0020C00C002000BFFFF7BDFA0120BA
:104F900003F0B9F9F9E7000010B500243BE004EB99
:104FA0004412204901EB8200002101F0C5FC04EB12
:104FB00044111C4800EB8100B0F90400132190FB60
:104FC000F1F000EB80004000412190FBF1F000EB9C
:104FD000400101EB001000EE100AB8EEC00A1248C2
:104FE00000EB840080ED000A0F4A02EB840292ED90
:104FF000000AB1EE400ABDEEC00A10EE102A11B24E
:1050000004EB440202EB0412064BE43B03EB820088
:1050100001F076FD641C032CC1DB044801F0FAFDAD
:1050200010BD0000280B0020C00E0020C00C002086
:1050300086B000BF4FF0FF321C21684603F0A4F990
:105040009DE8070003AB07C3039808281FD1049805
:1050500000F0040018B100210F4802F041F8049854
:1050600000F0080018B100210C4802F039F804984B
:1050700000F0100018B10021094802F031F804983E
:1050800000F0800018B10021064802F029F8012044
:1050900003F039F9CEE700006C010020E0010020A8
:1050A000540200203C03002000B59FB01422244984
:1050B0001AA8FBF7D2F900211AA803F096F92149A2
:1050C000086014221E49143115A8FBF7C6F9002107
:1050D00015A803F08AF91C490860142218492831E0
:1050E00010A8FBF7BAF9002110A803F07EF91749C0
:1050F0000860142212493C310BA8FBF7AEF90021DD
:105100000BA803F072F91249086014220C495031BF
:1051100006A8FBF7A2F9002106A803F066F90D49DD
:10512000086014220649643101A8FBF796F90021B2
:1051300001A803F05AF9084908601FB000BD00003B
:1051400010A000081C0000202000002024000020E7
:10515000280000202C0000203000002000BF01208B
:1051600003F0D1F8FBE7000010B5044621460448DF
:1051700001F061FF21460248083001F05CFF10BDDC
:105180006C12002010B5094801F03BFF012802D144
:10519000074801F02CFF054801F033FF10B904481F
:1051A00001F01BFF034801F035FF10BD1000002087
:1051B000080000200000002010B54FF47A71054867
:1051C00001F039FF4FF47A710248083001F033FFE3
:1051D00010BD00006C12002000B593B0302107A86C
:1051E000FBF76DF9142102A8FBF769F900BF002055
:1051F00001902348006840F080502149086008462B
:10520000006800F08050019000BF00BF00200190B6
:105210001C48006840F480401A490860084600684D
:1052200000F48040019000BF012007900004089026
:1052300002200D9041050E9104210F91A82110919B
:10524000022111910421129107A8FCF791FE08B1E7
:10525000FBF79CFA0F20029002200390002004909C
:105260004FF4A05005904FF480500690052102A8FD
:10527000FCF71CFD08B1FBF789FA13B000BD000074
:105280004038024000700040F0EE400A9FED0B1ADB
:10529000B0EE410A9FED0A1AC0EE811A9FED091A7D
:1052A00021EE811A9FED082AC1EE021A9FED071A1E
:1052B00021EE811AB0EE410A7047000000000000A4
:1052C000D00F4940000034430000B44300000046C2
:1052D00010B102785B2A00D070474278184B1A70E0
:1052E000C278837842EA032212B2154B5A8042797F
:1052F000037942EA032212B2114B9A8082795A70E2
:10530000027AC37942EA03220E4B1A600C4A1278E1
:105310000B4BB3F902301A44094BB3F904301A4469
:10532000074B5B781A44084B1A60064A12681B68E0
:105330009A4202D10122024B9A7100BFCCE70000D1
:10534000B4000020BC000020C000002010B52DEDEE
:105350000C8BF0EE408AB0EE609AB0EE418A69EEB6
:10536000090A48EEA80AB0EE600A02F07EF810EED4
:10537000104A204604F0D0FDFE4A03C2F0EE680A4F
:10538000B0EE490A02F07DF810EE104A204604F013
:10539000C3FDF94A03C200200DE000EB4013F74AB9
:1053A00002EB83029168CA1701EBD2425213F44B0D
:1053B00043F82020401C0328EFDBB5EEC08AF1EE55
:1053C00010FA40D1F5EEC08AF1EE10FA04D1B5EE34
:1053D000C09AF1EE10FA36D0E74890ED000B51EC90
:1053E000100B04F09BF8E7490860E34890ED000BD0
:1053F00051EC100B04F092F8E2494860DE4890ED61
:10540000000B51EC100B04F089F8DE498860D94894
:1054100090ED000B51EC100B04F080F8DA490860B5
:10542000D44890ED000B51EC100B04F077F8D649FE
:105430004860D04890ED000B51EC100B04F06EF872
:10544000D149886039E3B5EEC08AF1EE10FA2CD06C
:10545000F5EEC08AF1EE10FA27D1B5EEC09AF1EE62
:1054600010FA22D19FEDC90AC64880ED000A9FEDCF
:10547000C80A80ED010A9FEDC70A80ED020A9FED80
:10548000C60A28EE000AC04880ED000AB1EE480ABC
:10549000DFEDC10A20EE200A80ED010A9FEDBE0A71
:1054A00028EE000A80ED020A07E3B5EEC08AF1EEAD
:1054B00010FA7DD0F5EEC08AF1EE10FA04D1B5EE07
:1054C000C09AF1EE10FAF4D018EE100A04F024FDA0
:1054D00041EC1B0B53EC1B2BA64890ED000B51EC41
:1054E000100B04F001F941EC1A0B9FEDAC0B53ECDF
:1054F000102B04F0E5FB0FD218EE100A04F00CFD9F
:1055000041EC1A0B53EC1A2B9A4890ED000B51EC1E
:10551000100B04F0E9F812E018EE100A04F0FCFC9D
:1055200041EC1B0B53EC1B2B924890ED000B51EC04
:10553000100B04F0D9F841EC1A0B03F0E3FF994A81
:1055400003C28D4890ED000B02F07EF9B0EE40BA38
:10555000F0EE60BA934890ED000B53EC102B51EC39
:105560001B0B04F0AFFA41EC1A0B03F0D7FF8E4986
:105570000860814890ED000B02F002F9B0EE40BAED
:10558000F0EE60BA874890ED000B53EC102B51EC15
:105590001B0B04F097FA41EC1A0B03F0BFFF834991
:1055A0000860B5EEC08AF1EE10FA7DD27E4800E0C8
:1055B00076E2D0ED000A9FED781A71EE600AF1EE06
:1055C000600AB0EE600A0846D0ED000A01F059FF0B
:1055D0006C4880ED000A754890ED001ADFED741AF2
:1055E00031EE211AF0EE410A6F4890ED001ADFED1E
:1055F000711A31EE211AB0EE410A01F042FF614802
:1056000080ED010A694890ED001ADFED691A31EE6C
:10561000611AF0EE410A644890ED001ADFED651A58
:1056200031EE211AB0EE410A01F02BFF554880ED12
:10563000020A9FED5A0B53EC102B4E4890ED000BD5
:1056400051EC100B04F03CFB02D24A4803C806E0C0
:10565000484890ED000B51EC100B03F053FF41EC68
:105660001B0B5148D0ED000A9FED4B1A70EEC10A9A
:1056700060EEA00A4D4890ED001AD0ED001A41EE00
:10568000210AB0EE600A01F0F0FE10EE104A20464A
:1056900004F042FC41EC1D0B424890ED000B53EC32
:1056A000102B51EC1D0B00E0D2E004F01DF841EC92
:1056B0001C0B53EC1B2B04F005FA41EC1A0B03F006
:1056C0002DFF314908609FED350B53EC102B294815
:1056D00090ED000B51EC100B04F0F2FA02D22548C9
:1056E00003C806E0234890ED000B51EC100B03F0CB
:1056F00009FF41EC1B0B2C48D0ED000A9FED2D1A41
:1057000070EE810A60EEA00A284890ED001ADFEDE5
:10571000281A31EE611AD0ED001A9FED252A71EE9C
:10572000C21A41EE210AB0EE600A01F09EFE10EEB0
:10573000104A204604F0F0FB41EC1D0B194890ED97
:10574000000B53EC102B51EC1D0B03F0CDFF41EC83
:105750001C0B53EC1B2B04F0B5F941EC1A0B03F0B6
:10576000DDFE094948609FED0D0B53EC102B0148FD
:1057700022E000004000002048000020280B00200C
:10578000B00E0020680E00207C0E0020D00FC93F14
:105790008B0A063F8B0A06BFD34DA23E00000000D5
:1057A00000000000500000205C0000205800002095
:1057B0005AF5893ED34D223E90ED000B51EC100B73
:1057C00004F07EFA02D2FE4803C806E0FC4890EDE1
:1057D000000B51EC100B03F095FE41EC1B0BF9484C
:1057E000D0ED000A1FED0D1A70EE810A60EEA00ADE
:1057F000F54890ED001A5FED121A31EE211AD0ED46
:10580000001A1FED152A71EE821A41EE210AB0EE40
:10581000600A01F02AFE10EE104A204604F07CFBDC
:1058200041EC1D0BE94890ED000B53EC102B51ECB3
:105830001D0B03F059FF41EC1C0B53EC1B2B04F028
:1058400041F941EC1A0B03F069FEE149886034E14B
:10585000DC48D0ED000A1FED301A70EE810AB0EE80
:10586000600AD948D0ED000A01F00BFED94880ED5E
:10587000000AD54890ED001A5FED331A31EE611A37
:10588000F0EE410ACF4890ED001A5FED361A31EE86
:10589000611AB0EE410A01F0F4FDCE4880ED010A34
:1058A000C94890ED001A5FED3E1A31EE211AF0EE74
:1058B000410AC44890ED001A5FED421A31EE611AB8
:1058C000B0EE410A01F0DDFDC24880ED020A1FED95
:1058D0004D0B53EC102BBA4890ED000B51EC100B14
:1058E00004F0EEF902D2B64803C806E0B44890EDE1
:1058F000000B51EC100B03F005FE41EC1B0BB14803
:10590000D0ED000A1FED5C1A70EE810A60EEA00A6D
:10591000AD4890ED001AD0ED001A41EE210AB0EE2C
:10592000600A01F0A2FD10EE104A204604F0F4FADD
:1059300041EC1D0BA54890ED000B53EC102B51ECE6
:105940001D0B03F0D1FE41EC1C0B53EC1B2B04F0A0
:10595000B9F841EC1A0B03F0E1FD9D4908601FED19
:10596000710B53EC102B964890ED000B51EC100B83
:1059700004F0A6F902D2924803C806E0904890EDE0
:10598000000B51EC100B03F0BDFD41EC1B0B8D48DF
:10599000D0ED000A1FED791A70EEC10A60EEA00A80
:1059A000894890ED001A5FED7E1A31EE211AD0ED94
:1059B000001A1FED812A71EE821A41EE210AB0EE23
:1059C000600A01F052FD10EE104A204604F0A4FADD
:1059D00041EC1D0B7D4890ED000B53EC102B51EC6E
:1059E0001D0B03F081FE41EC1C0B53EC1B2B04F050
:1059F00069F841EC1A0B03F091FD754948601FED01
:105A0000990B53EC102B6E4890ED000B51EC100BE2
:105A100004F056F902D26A4803C806E0684890EDDF
:105A2000000B51EC100B03F06DFD41EC1B0B6548B6
:105A3000D0ED000A1FEDA11A70EEC10A60EEA00AB7
:105A4000614890ED001A5FEDA61A31EE611AD0EDB3
:105A5000001A1FEDA92A71EEC21A41EE210AB0EE1A
:105A6000600A01F002FD10EE104A204604F054FADC
:105A700041EC1D0B554890ED000B53EC102B51ECF5
:105A80001D0B03F031FE41EC1C0B53EC1B2B04F0FF
:105A900019F841EC1A0B03F041FD4D4988600CE008
:105AA0009FED4D0A4A4880ED000A9FED4B0A80EDBC
:105AB000010A9FED490A80ED020A4548D0ED000A2F
:105AC000B0EE600AFEF7B2FC444880ED000A4048A0
:105AD000D0ED010AB0EE600AFEF7A8FC3F4880ED69
