:020000040800F2
:10000000D8540020ED020008E53700084D33000801
:10001000E13700086B0500089D4000080000000063
:100020000000000000000000000000002D02000899
:10003000EF0600080000000089020008E937000808
:100040000703000807030008070300080703000868
:100050000703000807030008070300080703000858
:100060000703000807030008070300080703000848
:10007000B10500080703000807030008070300088C
:10008000C1050008070300080703000881050008F0
:1000900071050008070300080703000807030008AC
:1000A00007030008313800080703000807030008A9
:1000B0004138000807030008070300080703000889
:1000C00007030008070300080703000807030008E8
:1000D000070300085D4000086D4000087D400008EF
:1000E00007030008070300080703000807030008C8
:1000F00007030008070300080703000807030008B8
:1001000007030008070300080703000807030008A7
:100110000703000807030008070300080703000897
:1001200007030008D1050008E105000807030008DF
:10013000070300080000000000000000A1050008FF
:1001400091050008070300080703000807030008DB
:100150000703000807030008070300088D40000894
:100160000703000807030008070300080703000847
:10017000070300080703000800000000000000005B
:10018000070300080703000800F002F800F03EF83B
:100190000AA090E8000C82448344AAF10107DA45E2
:1001A00001D100F033F8AFF2090EBAE80F0013F0F6
:1001B000010F18BFFB1A43F0010318472C6B000016
:1001C0004C6B0000103A24BF78C878C1FAD85207A7
:1001D00024BF30C830C144BF04680C6070470000C1
:1001E0000023002400250026103A28BF78C1FBD840
:1001F000520728BF30C148BF0B6070471FB506F0DB
:10020000F9FC00F067F91FBD10B510BD00F078F9DA
:100210001146FFF7F3FF05F0C7FB00F096F903B4B2
:10022000FFF7F2FF03BC00F099F900002C4B1968AE
:100230000868B0E8F04F80F30988BFF36F8F4FF084
:10024000000080F311887047000000000848006833
:10025000006880F308884FF0000080F3148862B6CD
:1002600061B6BFF34F8FBFF36F8F00DF00BF00BFDA
:1002700008ED00E0DFF80C00016841F47001016056
:10028000704700BF88ED00E0EFF30980BFF36F8F88
:10029000134B1A681EF0100F08BF20ED108A20E9DA
:1002A000F04F106009B44FF0500080F31188BFF395
:1002B0004F8FBFF36F8F06F0B5F84FF0000080F35B
:1002C000118809BC19680868B0E8F04F1EF0100FDB
:1002D00008BFB0EC108A80F30988BFF36F8F7047B6
:1002E00078000020EFF30580704700000948804740
:1002F00009480047FEE7FEE7FEE7FEE7FEE7FEE708
:10030000FEE7FEE7FEE7FEE704480549054A064B1F
:10031000704700001D38000889010008D84E0020F1
:10032000D8540020D8500020D850002053EA020CA6
:1003300000F069802DE9F04B4FF00006002B1FBF45
:10034000B3FA83F503FA05F424FA05F65E4012BF0A
:100350001643B2FA82F502FA05F4C5F120051EBF74
:1003600022FA05FC44EA0C04203556EA044C4FEA14
:10037000144418BF641C4FF000084FF0000990426D
:1003800071EB030C39D3002919BFB1FA81F701FAD7
:1003900007F6B0FA80F700FA07F6C7F120071EBF8C
:1003A00020FA07FC46EA0C062037B6FBF4FCA7EB64
:1003B0000507103F07F01F0BCBF120060CFA0BFBD3
:1003C0002CFA06F644BFB3460026202FA4BF5E4693
:1003D0004FF0000B5BEA060C08BF4FF0010B19EB66
:1003E0000B09ABFB027C48EB0608C01B06FB02CCEA
:1003F0000BFB03CC71EB0C01C1E70B4602464146F7
:100400004846BDE8F08B13B54FF000004FF00001F7
:10041000AFF30080BDE81C40704710B5203AC0F033
:100420000B80B1E81850203AA0E81850B1E81850F5
:10043000A0E81850BFF4F5AF5FEA027C24BFB1E832
:100440001850A0E8185044BF18C918C0BDE81040A3
:100450005FEA827C24BF51F8043B40F8043B08BFAC
:100460007047D20728BF31F8023B48BF11F8012B73
:1004700028BF20F8023B48BF00F8012B70474FF01F
:10048000000200B5134694469646203922BFA0E8E4
:100490000C50A0E80C50B1F12001BFF4F7AF0907F0
:1004A00028BFA0E80C5048BF0CC05DF804EB8900E1
:1004B00028BF40F8042B08BF704748BF20F8022B24
:1004C00011F0804F18BF00F8012B7047704770473C
:1004D0007047000070B5064C7C44064D7D4403E037
:1004E000206820448047241DAC42F9D170BD000033
:1004F0002C6800003468000000487047744E0020EB
:100500007546FFF7F9FFAE4605006946534620F0F1
:100510000700854618B020B5FFF7F6FEBDE820407D
:100520004FF000064FF000074FF000084FF0000BAF
:1005300021F00701AC46ACE8C009ACE8C009ACE862
:10054000C009ACE8C0098D46704710B50446AFF34A
:1005500000802046BDE81040FFF761BE0149182029
:10056000ABBEFEE726000200704700BFFEE70000BA
:1005700010B5024800F000FB10BD0000CC020020C6
:1005800010B5024800F0F8FA10BD0000CC020020BF
:1005900010B5024800F0F0FA10BD00003003002052
:1005A00010B5024800F0E8FA10BD0000300300204A
:1005B00010B5024800F026FF10BD00008C07002097
:1005C00010B5024800F01EFF10BD00002C070020EF
:1005D00010B5024800F016FF10BD0000EC07002027
:1005E00010B5024800F00EFF10BD0000CC06002040
:1005F0000146087810381823B0FBF3F20848805CF5
:10060000C865032A05D908686FF30900001D8865CD
:1006100003E008686FF309008865886D7047000083
:10062000786C0008014600208A6A8B69CBB932B128
:10063000012A0DD0022A03D0032A10D10EE000BFF8
:10064000CB6A03F08073B3F1807F00D1012007E013
:10065000CB6AB3F1C07F00D1012001E000E000BF10
:1006600034E08B69B3F5005F1AD132B1012A07D0AB
:10067000022A03D0032A11D10AE000BF01200EE0B4
:10068000CB6A03F08073B3F1807F00D1012006E0D4
:10069000CB6AB3F1C07F00D1012000E000BF15E0BC
:1006A00032B1012A05D0022A04D0032A0CD103E07A
:1006B00000BF00BF012008E0CB6A03F08073B3F1F4
:1006C000807F00D1012000E000BF00BF704710B55F
:1006D000046863608468402C04D10468A2600468E4
:1006E000E16003E00468A1600468E26010BD704747
:1006F00072B600BFFEE710B5024692F82030012B1B
:1007000001D0022B06D1106840690843146860616B
:10071000002010BD506A40F4802050620120F8E7AC
:10072000F0B504460D461E4694F820702068836894
:10073000A86800B900E000BF012F01D0022F7CD1D2
:1007400003F0806030B903F0006018B903F0805006
:10075000002873D0C3F30161022905D9606A40F40F
:10076000000060620120F0BD012088403060A86870
:1007700060B9B5F800C0E86840EA4C5C206800F554
:10078000C07000EB0110C0F800C00FE0D5E901C057
:1007900040EACC00D5F80CC040EA0C00D4F800C008
:1007A0000CF5C07C0CEB011CCCF80000D5F810C097
:1007B000206800F5C07000EB0110C0F804C0287D6F
:1007C00001280ED1206800F5C07000EB01104068D0
:1007D00040F4807C206800F5C07000EB0110C0F888
:1007E00004C0D079000692F806C040EA0C4092F8A6
:1007F00005C040EA0C2C10794CEA000C206800F58A
:10080000C07000EB0110C0F80CC0D078000692F860
:1008100002C040EA0C4092F801C040EA0C2092F875
:1008200000C040EA0C00D4F800C00CF5C07C0CEB12
:10083000011CCCF80800206801E016E00FE000F58C
:10084000C07000EB0110006840F0010C206800F55A
:10085000C07000EB0110C0F800C0002083E7606AA0
:1008600040F40010606201207DE7606A40F480205F
:100870006062012077E70000F0B504460A4621686F
:1008800094F82050012D01D0022D7ED1424901F56E
:100890000071086840F001000860086820F47C508E
:1008A00008600868566A40EA06200860107D00F07B
:1008B0001F06012000FA06F3C8699843C861A1F534
:1008C0000071D069C8B9D1F80C029843C1F80C0284
:1008D000908880B2968940EA064601F51070576903
:1008E00040F83760108880B2168940EA064601F564
:1008F0001070576900EBC7004660D069012819D114
:10090000D1F80C021843C1F80C02908880B2168806
:1009100040EA064601F51070576940F83760908943
:1009200080B2168940EA064601F51070576900EB5F
:10093000C7004660906928B9D1F804029843C1F80D
:10094000040204E0D1F804021843C1F8040210695B
:1009500028B9D1F814029843C1F8140204E0D1F880
:1009600014021843C1F81402106A012804D1D1F806
:100970001C021843C1F81C02D1F8000220F001004B
:10098000C1F800020020F0BDFFE7606A40F480205B
:1009900060620120F7E700000064004010B50246E5
:1009A00092F82030012B01D0022B06D1106840694B
:1009B000884314686061002010BD506A40F48020B4
:1009C00050620120F8E7704770B5044694F8205053
:1009D000012D01D0022D7DD151B92068C06800F0F1
:1009E000030080B9606A40F400106062012070BDAD
:1009F0002068006900F0030028B9606A40F4001024
:100A000060620120F3E7206800F5D87000EB011068
:100A1000006800F004009060906840B9206800F51C
:100A2000D87000EB01100068400D106007E02068EE
:100A300000F5D87000EB01100068C0085060206815
:100A400000F5D87000EB0110006800F00200D060E3
:100A5000206800F5D87000EB0110406800F00F002E
:100A60001061206800F5D87000EB0110406800F4B8
:100A70007F40000A9061206800F5D87000EB0110FB
:100A80004068000C5061206800F5D87000EB011040
:100A900080681870206800F5D87000EB011080683D
:100AA00000F47F40000A5870206800F5D87000EB11
:100AB0000110806800F47F00000C9870206800F539
:100AC000D87000EB01108068000ED870206800F527
:100AD000D87000E02FE000EB0110C06818712068AA
:100AE00000F5D87000EB0110C06800F47F40000AE8
:100AF0005871206800F5D87000EB0110C06800F450
:100B00007F00000C9871206800F5D87000EB011090
:100B1000C068000ED87131B92068C06840F020006C
:100B20002668F06005E02068006940F02000266833
:100B3000306100205BE7606A40F480206062012041
:100B400055E70146002091F82020012A01D0022A11
:100B500011D10B689B6803F0806303B1401C0B68E4
:100B60009B6803F0006303B1401C0B689B6803F0B3
:100B7000805303B1401C70472DE9F05F0446002507
:100B8000206846692068D0F804902068876820684B
:100B9000D0F80CA02068D0F810B02068D0F81880E9
:100BA00006F00100002855D007F00100C0B1012077
:100BB0002168886007F0020018B12046A16A8847C2
:100BC0000EE007F0040010B145F4006508E007F0FE
:100BD000080010B145F4805502E02046616B88475B
:100BE00007F48070C8B14FF480702168886007F402
:100BF000007018B12046E16A88470EE007F4806073
:100C000010B145F4005508E007F4006010B145F458
:100C1000804502E02046A16B884707F48030C8B1C8
:100C20004FF480302168886007F4003018B1204606
:100C3000216B88470EE007F4802010B145F4004591
:100C400008E007F4002010B145F4803502E02046AA
:100C5000E16B884706F0080038B10AF0100020B1B7
:100C600045F4007510202168C86006F0040040B10A
:100C70000AF0080028B108202168C8602046616C8D
:100C8000884706F0020038B12068C06800F0030011
:100C900010B12046216C884706F0400038B10BF0B7
:100CA000100020B145F4806510202168086106F02D
:100CB000200040B10BF0080028B10820216808612D
:100CC0002046E16C884706F0100038B120680069C2
:100CD00000F0030010B12046A16C884706F40030F4
:100CE00040B109F0100028B110202168486020466A
:100CF000216D884706F4803040B109F0080028B122
:100D00000820216848602046616D884706F400404D
:100D100088B309F0040078B306F4807020B108F0BD
:100D2000010008B145F0010506F4007020B108F09B
:100D3000020008B145F0020506F4806020B108F019
:100D4000040008B145F0040506F40060A0B108F005
:100D5000700088B108F07000402817D006DC102819
:100D60000BD020280CD0302819D10CE0502810D0FE
:100D7000602814D110E01DE019E045F008050FE0EF
:100D800045F010050CE045F0200509E045F0400570
:100D900006E045F0800503E045F4807500E000BF03
:100DA00000BF2068806920F07000216888610420FD
:100DB000216848602DB1606A284360622046A16DB9
:100DC0008847BDE8F09F000070B504460CB90120CB
:100DD00070BD94F82000002820D16848206468483D
:100DE00060646848A0646848E0646848A062684835
:100DF000E06268482063684860636848A0636848A8
:100E0000E06368482065684860656848A065E06DF3
:100E100008B96748E0652046E16D884720680068AA
:100E200040F001002168086000F0A6FD05460DE0D5
:100E300000F0A2FD401B0A2808D9606A40F4003087
:100E40006062052084F820000120C1E72068406826
:100E500000F001000028EBD02068006820F00200BC
:100E60002168086000F088FD05460DE000F084FD73
:100E7000401B0A2808D9606A40F4003060620520EF
:100E800084F820000120A3E72068406800F00200F9
:100E90000028EBD1207E012806D12068006840F0B0
:100EA00080002168086005E02068006820F080006C
:100EB00021680860607E012806D12068006840F043
:100EC00040002168086005E02068006820F04000CC
:100ED00021680860A07E012806D12068006840F0E3
:100EE00020002168086005E02068006820F02000EC
:100EF00021680860E07E012806D12068006820F0A3
:100F000010002168086005E02068006840F01000CB
:100F100021680860207F012806D12068006840F021
:100F200008002168086005E02068006820F00800DB
:100F300021680860607F012806D12068006840F0C1
:100F400004002168086005E02068006820F00400C3
:100F500021680860D4E902010843216908436169F6
:100F600008436168491E08432168C8610020606227
:100F7000012084F8200000202AE70000ED1100087D
:100F8000EB110008F1110008EF11000855120008DC
:100F9000591200085D120008531200085712000889
:100FA0005B120008F31100085F120008C70900086F
:100FB000B50F000810B586B00446142101A8FFF74C
:100FC0005EFA5749206888424AD156480068401C5A
:100FD000544908600846006801280FD100BF00206E
:100FE00000905148006840F000704F490860084682
:100FF000006800F00070009000BF00BF00BF00203C
:10100000009049481038006840F001004649103906
:1010100008600846006800F00100009000BF00BFB3
:101020004FF4C05001900220029000200390032052
:1010300004900920059001A93C4800F08DFB002296
:101040000521132000F048FD132000F035FD00229B
:101050000521142000F040FD142000F02DFD5CE07F
:1010600033492068884258D100BF002000902E48A4
:10107000006840F080602C4908600846006800F075
:101080008060009000BF00BF26480068401C2549D2
:1010900008600846006801280FD100BF00200090BA
:1010A0002148006840F000701F4908600846006849
:1010B00000F00070009000BF00BF00BF0020009053
:1010C00019481038006840F00200174910390860CC
:1010D0000846006800F00200009000BF00BF6020DA
:1010E0000190022002900020039003200490092028
:1010F000059001A90F4800F02FFB002205213F2099
:1011000000F0EAFC3F2000F0D7FC0022052140203F
:1011100000F0E2FC402000F0CFFC06B010BD000063
:1011200000640040380000204038024000000240C7
:10113000006800400004024010B5034600242AB9AC
:10114000586A40F480005862012010BD93F82000D6
:10115000012830D10F2927D2DFE801F0080A0C0E50
:1011600010121416181A1C1E202224009A6221E064
:10117000DA621FE01A631DE05A631BE09A6319E00C
:10118000DA6317E01A6415E05A6413E09A6411E018
:10119000DA640FE01A650DE05A650BE09A6509E024
:1011A000DA6507E01A6605E0586A40F48000586284
:1011B000012400BF17E093F8200078B90D2902D070
:1011C0000E2904D101E0DA6507E01A6605E0586AE5
:1011D00040F480005862012400BF04E0586A40F4E3
:1011E0008000586201242046AFE77047704770477F
:1011F0007047704770B5044694F82000012822D14A
:10120000022084F820002068006820F00100216896
:10121000086000F0B1FB05460DE000F0ADFB401B9F
:101220000A2808D9606A40F400306062052084F81A
:101230002000012070BD2068406800F001000028F7
:10124000EBD16062F6E7606A40F400206062012042
:10125000F0E77047704770477047704770477047B6
:1012600010B504460CB9012010BD607920B90020EA
:101270002071204600F004F8012060710020F3E79F
:1012800008B50A4A016891420FD100BF00210091C0
:101290000749096841F48051054A116011460968FF
:1012A00001F48051009100BF00BF08BD0030024032
:1012B000303802402DE9F04704460E4617461D46D9
:1012C000DDF820804FF00009A068802804D140009C
:1012D00060654FF0010929E000BF94F8340001284F
:1012E00002D10220BDE8F087012084F8340000BF5D
:1012F00094F83500012817D1022084F835002068C1
:10130000006840F480202168086020680561434639
:101310003A4631462046FFF7DAF92068006840F087
:1013200001002168086001E04FF002094846D9E752
:1013300070B50446A56D00F01FFB064694F8350015
:10134000022808D08020606500BF002084F83400A7
:1013500000BF012070BD2068006820F016002168E1
:1013600008602068406920F0800021684861206C96
:1013700008B9A06C28B12068006820F00800216836
:1013800008602068006820F001002168086010E013
:1013900000F0F2FA801B05280BD92020606503209D
:1013A00084F8350000BF002084F8340000BF03201B
:1013B000D0E72068006800F001000028E8D194F828
:1013C0005C103F208840A860012084F8350000BFF1
:1013D000002084F8340000BF00BFBBE7014691F84D
:1013E0003500022803D08020486501207047052081
:1013F00081F835000868006820F001000A68106074
:101400000020F3E7F8B50446002000908C480068FF
:101410004FF41651B0FBF1F7A56D2E6894F85C10EF
:1014200008208840304098B12068006800F004002F
:1014300070B12068006820F004002168086094F80A
:101440005C1008208840A860606D40F00100606575
:1014500094F85C1001208840304068B120684069F1
:1014600000F0800040B194F85C1001208840A86032
:10147000606D40F00200606594F85C1004208840C4
:10148000304068B12068006800F0020040B194F874
:101490005C1004208840A860606D40F00400606526
:1014A00094F85C1010208840304078B320680068C1
:1014B00000F0080050B394F85C1010208840A86039
:1014C0002068006800F4802080B12068006800F483
:1014D000002028B9206CC8B12046216C884715E04F
:1014E000A06C98B12046A16C88470FE02068006886
:1014F00000F4807028B92068006820F00800216896
:101500000860206C10B12046216C884794F85C106C
:10151000202088403040002865D02068006800F016
:10152000100000285FD094F85C1020208840A8604C
:1015300094F83500052828D12068006820F01600AE
:10154000216808602068406920F0800021684861B7
:10155000206C08B9A06C28B12068006820F0080051
:101560002168086094F85C103F208840A860012042
:1015700084F8350000BF002084F8340000BF206DDF
:1015800010B12046216D8847F8BD2068006800F43E
:10159000802080B12068006800F4002028B9606CC9
:1015A00010B12046616C88471DE0E06BD8B1204641
:1015B000E16B884717E02068006800F4807068B924
:1015C0002068006820F0100021680860012084F87D
:1015D000350000BF002084F8340000BFE06B10B17C
:1015E0002046E16B8847606D38B3606D00F0010004
:1015F000F0B1052084F835002068006820F0010073
:101600002168086000BF0098401C0090B84200D9D3
:1016100005E02068006800F001000028F3D100BF59
:10162000012084F8350000BF002084F8340000BF9A
:10163000E06C10B12046E16C884700BFA4E70000D1
:10164000740000202DE9F0410446002500F094F9D3
:10165000074614B90120BDE8F081606A00B100BFFF
:10166000022084F8350000BF002084F8340000BF59
:101670002068006820F00100216808600AE000F09E
:101680007BF9C01B052805D920206065032084F85C
:101690003500E0E72068006800F001000028EED186
:1016A0002068056821480540D4E901010843E16844
:1016B00008432169084361690843A1690843E16956
:1016C0000843216A08430543606A042803D1D4E92A
:1016D0000B0108430543206805602068456925F033
:1016E0000705606A0543606A04280DD1A06A0543B6
:1016F000E06A48B12046FEF795FF28B140206065BA
:10170000012084F83500A6E7206845612046FEF7F1
:101710006FFF064694F85C103F208840B0600020C0
:101720006065012084F83500002094E73F8010F0C8
:1017300070B5044600F020F906462546681C10B135
:1017400004480078054400BF00F016F9801BA84249
:10175000FAD370BD70000020F8B502460B46002594
:10176000002400200021D5E0012606FA01F51E68BC
:1017700006EA0504AC4274D11E7906F00306012E78
:1017800004D01E7906F00306022E13D190684F0094
:101790000326BE40B0434F00DE68BE403043906039
:1017A000506801268E40B0431E79C6F300168E4065
:1017B000304350601E7906F00306032E09D0D0682E
:1017C0004F000326BE40B0434F009E68BE403043EA
:1017D000D0601E7906F00306022E13D1CF0802F165
:1017E000200656F827004E07F70E0F26BE40B043DE
:1017F0004F07FF0E1E69BE403043CF0802F120069E
:1018000046F8270010684F000326BE40B0431E79FB
:1018100006F003064F00BE40304310605E6806F4D9
:101820004036002E75D000BF002600963B4E36682D
:1018300046F48046394F3E603E46366806F48046A0
:10184000009600BF00BF364E8F0856F827008E075F
:10185000370F0F26BE40B043324EB24202D10026AF
:1018600024E056E0304EB24201D101261EE02F4E58
:10187000B24201D1022619E02D4EB24201D1032617
:1018800014E02C4EB24201D104260FE02A4EB2429F
:1018900001D105260AE0294EB24201D1062605E013
:1018A000274EB24201D1072600E008268F073F0FDE
:1018B000BE4030431A4E8F0846F82700214E30684C
:1018C000A0435E6806F4803606B120431D4E3060AA
:1018D000361D3068A0435E6806F4003606B120432A
:1018E000184E361D3060361D3068A0435E6806F421
:1018F000801606B12043134E08363060361D30681E
:10190000A0435E6806F4001606B120430D4E0C3667
:101910003060491C1029FFF427AFF8BD443802405D
:101920000838014000000240000402400008024064
:10193000000C024000100240001402400018024057
:10194000001C0240003C0140024613690B400BB1F1
:10195000012000E00020704710B5426921EA02032F
:1019600002EA010443EA0443836110BD0AB18161C4
:1019700001E00B0483617047014800687047000074
:1019800068000020034800680349097808440149B9
:1019900008607047680000207000002010B50D48F6
:1019A000006840F400700B4908600846006840F485
:1019B000806008600846006840F48070086003207A
:1019C00000F0C8F80F2000F007F800F04BF80020F6
:1019D00010BD0000003C024070B588B004460025F0
:1019E000002600222146192000F076F8192000F088
:1019F00063F800BF002001901648006840F0010025
:101A0000144908600846006800F00100019000BF1A
:101A100000BF02A903A800F073F900F0A9F945007E
:101A20000D48B5FBF0F0461E0C480D49086040F229
:101A3000E7310B48C160466000210161816000F020
:101A4000ABFC20B9064800F01BFD08B070BD0120BA
:101A5000FBE700004438024040420F000000014014
:101A60004C08002008B500BF002000901148006815
:101A700040F480400F4908600846006800F4804048
:101A8000009000BF00BF00BF00200090081F00684A
:101A900040F08050091F08600846006800F0805040
:101AA000009000BF00BF00220F21901E00F014F82C
:101AB00008BD00004438024001460846002809DB02
:101AC00000F01F0301229A4043099B0003F1E02329
:101AD000C3F8002100BF70472DE9F05F80460D4636
:101AE0001646002703F0C8FE074639462A46334605
:101AF00001F00700C0F1070ABAF1040F02D94FF054
:101B0000040A01E0C0F1070AD14600F1040ABAF163
:101B1000070F02D24FF0000A01E0A0F1030AD446F9
:101B20004FF0010A0AFA09FAAAF1010A0AEA020ABE
:101B30000AFA0CFA4FF0010B0BFA0CFBABF1010B9C
:101B40000BEA030B4AEA0B042146404603F09CFED5
:101B5000BDE8F09F00BF00F00702064B19684FF682
:101B6000FF031940044B0B4343EA0221014B196068
:101B700000BF70470CED00E00000FA0570B50446A8
:101B80000D460CB9012070BD5848006800F00700F0
:101B9000A84209D255490D700846006800F00700B8
:101BA000A84201D00120EEE7207800F002000228D0
:101BB0001DD1207800F00400042805D14C480068AD
:101BC00040F4E0504A490860207800F008000828F6
:101BD00005D14748006840F46040454908604448E2
:101BE000006820F0F000A1680843414908602078AF
:101BF00000F00100A8B36068012807D13C4808380C
:101C00000068C0F34040B8B90120BCE76068022812
:101C100002D06068032807D1354808380068C0F34F
:101C2000406048B90120AEE7314808380068C0F389
:101C3000400008B90120A6E72D48006820F0030005
:101C4000616808432A490860FFF796FE064609E0E6
:101C5000FFF792FE801B41F28831884202D90320AF
:101C600091E707E02248006800F00C006168B0EBE3
:101C7000810FEDD11D48006800F00700A84209D986
:101C80001A490D700846006800F00700A84201D00C
:101C9000012078E7207800F00400042807D11448D8
:101CA000006820F4E050E16808431149086020789A
:101CB00000F00800082808D10D48006820F46040B2
:101CC000216940EAC1000A49086000F061F808494A
:101CD0000968C1F30311074A515CC840064908600E
:101CE00006480068FFF778FE00204CE7003C024001
:101CF00008380240806C0008740000206C0000204E
:101D00000F2202600D4A126802F0030242600B4A81
:101D1000126802F0F0028260084A126802F4E0528F
:101D2000C260064A126802F46042D2080261044AA4
:101D3000126802F007020A6070470000083802408B
:101D4000003C024001480068704700007400002019
:101D500000B5FFF7F7FF04490968C1F38221034A80
:101D6000515CC84000BD000008380240906C00087B
:101D700000B5FFF7E7FF04490968C1F34231034AA0
:101D8000515CC84000BD000008380240906C00085B
:101D90002DE9F047002400250026A14625480068CB
:101DA00000F00C0020B1042805D008283AD105E045
:101DB000DFF8849039E0DFF8849036E01D48001F9A
:101DC000006800F03F041B48001F006800F480001A
:101DD00078B11A481749091F0968C1F38811A0FB97
:101DE00001700146224600233846FEF79FFA054659
:101DF0000EE011480F49091F0968C1F38811A0FBC3
:101E000001700146224600233846FEF78FFA054648
:101E10000848001F0068C0F30140401C4600B5FBA5
:101E2000F6F902E0DFF8109000BF00BF4846BDE8B9
:101E3000F0870000083802400024F40000127A0005
:101E4000F8B504460CB90120F8BD207800F0010077
:101E5000002874D0F948006800F00C0004280DD068
:101E6000F648006800F00C00082813D1F348001F62
:101E7000006800F48000B0F5800F0BD1EF480838FF
:101E80000068C0F34040002859D06068002856D14F
:101E90000120D9E700BF6068B0F5803F08D1E7486E
:101EA0000838006840F48030E449083908601EE0D2
:101EB0006068B0F5A02F0DD1E0480838006840F404
:101EC0008020DE49083908600846006840F4803008
:101ED00008600CE0D9480838006820F48030D74901
:101EE000083908600846006820F48020086000BFB8
:101EF000606890B1FFF740FD054606E0FFF73CFD46
:101F0000401B642801D903209EE7CC4808380068AC
:101F1000C0F340400028F1D011E0FFF72DFD054649
:101F200006E0FFF729FD401B642801D903208BE759
:101F3000C24808380068C0F340400028F1D120783A
:101F400000F0020002285FD1BC48006800F00C00DD
:101F500058B1BA48006800F00C0008281CD1B748F6
:101F6000001F006800F48000B0B9B4480838006869
:101F7000C0F3400020B1E068012801D0012063E7F0
:101F8000AE480838006820F0F800216940EAC10036
:101F9000AA490839086037E0E06800B30120A84981
:101FA0000860FFF7E9FC054606E0FFF7E5FC401B8B
:101FB000022801D9032047E7A04808380068C0F389
:101FC00040000028F1D09D480838006820F0F80053
:101FD000216940EAC10099490839086014E00020ED
:101FE00097490860FFF7C8FC054606E0FFF7C4FC08
:101FF000401B022801D9032026E7904808380068D2
:10200000C0F340000028F1D1207800F00800082833
:102010002CD16069A8B101208A490860FFF7ACFCA7
:10202000054606E0FFF7A8FC401B022801D9032063
:102030000AE782486C300068C0F340000028F1D005
:1020400014E000207F490860FFF796FC054606E093
:10205000FFF792FC401B022801D90320F4E67748E1
:102060006C300068C0F340000028F1D1207800F007
:102070000400042870D1002770483830006800F050
:10208000805090B900BF002000906C483830006844
:1020900040F080506949383108600846006800F017
:1020A0008050009000BF00BF01276748006800F41F
:1020B0008070B0B96448006840F48070624908607C
:1020C000FFF75AFC054606E0FFF756FC401B0228C6
:1020D00001D90320B8E65C48006800F4807000284D
:1020E000F2D000BFA068012808D1544868300068C9
:1020F00040F001005149683108601DE0A0680528E2
:102100000DD14E486830006840F004004B496831FA
:1021100008600846006840F0010008600CE047488D
:102120006830006820F001004449683108600846C2
:10213000006820F00400086000BFA068A8B1FFF7A5
:102140001BFC054609E0FFF717FC401B41F28831F4
:10215000884202D9032077E626E0384868300068D4
:10216000C0F340000028EED013E0FFF705FC054661
:1021700008E0FFF701FC401B41F28831884201D999
:10218000032061E62D4868300068C0F34000002855
:10219000EFD1012F07D129483830006820F0805056
:1021A00026493831086000BFA069002845D023487F
:1021B000006800F00C0008285DD0A069022845D115
:1021C00000201F490866FFF7D7FB054606E0FFF72A
:1021D000D3FB401B022801D9032035E617480838F5
:1021E0000068C0F340600028F1D1D4E9070108433A
:1021F000616A40EA81110122A06AC2EB500041EA03
:1022000000412C20005D41EA00600C49091F086074
:1022100001200B490866FFF7AFFB054606E0FFF714
:10222000ABFB401B022801D903200DE60348083808
:102230000068C0F340600028F1D049E0083802404F
:1022400000004742800E47420070004000202149B4
:102250000866FFF791FB054606E0FFF78DFB401B84
:10226000022801D90320EFE51B480068C0F3406055
:102270000028F2D12CE0A069012800D1E4E516483D
:10228000001D0668A069012820D006F48001E069DD
:1022900081421BD106F03F01206A814216D147F6E8
:1022A000C0703040616AB0EB811F0FD106F440313D
:1022B0000122A06AC2EB5000B1EB004F06D106F03C
:1022C00070612C20005DB1EB006F01D00120BBE5F7
:1022D0000020B9E5000047420038024070477047CF
:1022E0007047000030B502460B4600BF92F83C0034
:1022F000012801D1022030BD012082F83C0000BF3E
:10230000022082F83D00106844681068816824F05B
:1023100070041868044310684460184D1068A8429F
:102320001BD01068B0F1804F17D0154D1068A8422F
:1023300013D0144D1068A8420FD0134D1068A84256
:102340000BD0124D1068A84207D0114D1068A8425A
:1023500003D0104D1068A84205D121F080015868C3
:10236000014310688160012082F83D0000BF002019
:1023700082F83C0000BF00BFBDE700000000014044
:102380000004004000080040000C00400004014030
:10239000004001400018004010B504460CB901206F
:1023A00010BD94F83D0060B9002084F83C00204640
:1023B00001F0BCFBA06C08B91448A0642046A16CD5
:1023C0008847022084F83D00211D206801F040FA72
:1023D000012084F8460000BF84F83E0001213F2020
:1023E0000155402001554120015500BF00BF01208B
:1023F00084F84200432001554420015545200155F1
:1024000000BF012084F83D000020C9E71124000826
:1024100038B504462068B0F1804F18D100BF0020C5
:1024200000901548006840F0010013490860084614
:10243000006800F00100009000BF00BF00220521ED
:102440001C20FFF749FB1C20FFF736FB13E00B496C
:10245000206888420FD100BF002000900648006825
:1024600040F00200044908600846006800F00200DD
:10247000009000BF00BF38BD40380240000400405B
:10248000014691F83D00012801D00120704702204B
:1024900081F83D000868C06840F001000B68D86012
:1024A0001A4B086898421BD00868B0F1804F17D0CB
:1024B000174B0868984213D0164B086898420FD003
:1024C000154B086898420BD0144B0868984207D007
:1024D000134B0868984203D0124B086898420CD1FD
:1024E0000868806800F00702062A0CD008680068B7
:1024F00040F001000B68186005E00868006840F0D3
:1025000001000B6818600020C0E7000000000140D7
:102510000004004000080040000C0040000401409E
:1025200000400140001800402DE9F04104460D46EE
:10253000002700BF94F83C00012802D10220BDE82A
:10254000F081012084F83C0000BF022084F83D00A7
:102550002068866826F0770626F47F462068866025
:102560002868502833D00CDC202850D004DC002808
:102570004BD0102851D149E0302849D040284CD1C7
:1025800039E060282DD0702807D0B0F5805F03D0E7
:10259000B0F5005F41D10DE041E0D5E902136A6872
:1025A000206801F0D2F92068866846F07706206836
:1025B000866034E0D5E902136A68206801F0C5F945
:1025C0002068806840F480402168886027E0EA68DD
:1025D0006968206801F0E2FA5021206801F0C0F932
:1025E0001DE0EA686968206801F0EBFA6021206864
:1025F00001F0B6F913E0EA686968206801F0CEFAE4
:102600004021206801F0ACF909E000BF00BF00BF25
:102610002968206801F0A4F901E0012700BF00BF8C
:10262000012084F83D0000BF002084F83C0000BF7A
:10263000384684E770477047704710B504462068F5
:102640000069C0F34000F0B12068C068C0F34000EA
:10265000C8B16FF00200216808610120207720686E
:10266000806900F0030020B12046D4F8901088471C
:1026700007E02046D4F8981088472046D4F89C10EC
:1026800088470020207720680069C0F38000F0B1FF
:102690002068C068C0F38000C8B16FF004002168F2
:1026A0000861022020772068806900F4407020B122
:1026B0002046D4F89010884707E02046D4F89810B8
:1026C00088472046D4F89C1088470020207720684F
:1026D0000069C0F3C000F0B12068C068C0F3C0005A
:1026E000C8B16FF0080021680861042020772068D5
:1026F000C06900F0030020B12046D4F8901088474C
:1027000007E02046D4F8981088472046D4F89C105B
:1027100088470020207720680069C0F30010F0B1DE
:102720002068C068C0F30010C8B16FF010002168C5
:102730000861082020772068C06900F4407020B14B
:102740002046D4F89010884707E02046D4F8981027
:1027500088472046D4F89C108847002020772068BE
:10276000006900F0010060B12068C06800F001005D
:1027700038B16FF00100216808612046D4F880105C
:10278000884720680069C0F3C01060B12068C06845
:10279000C0F3C01038B16FF0800021680861204696
:1027A000D4F8B010884720680069C0F3801060B189
:1027B0002068C068C0F3801038B16FF04000216815
:1027C00008612046D4F88810884720680069C0F363
:1027D000401060B12068C068C0F3401038B16FF09D
:1027E0002000216808612046D4F8A810884710BD51
:1027F00010B586B00446142101A8FDF740FE11492A
:10280000206888421CD100BF002000900E4800685C
:1028100040F001000C4908600846006800F0010023
:10282000009000BF00BFC020019002200290002055
:10283000039004900220059001A90448FEF78CFF44
:1028400006B010BD000400403038024000000240D5
:1028500070472DE9F04104460D461646002700BF9B
:1028600094F83C00012802D10220BDE8F08101204B
:1028700084F83C0000BF36B1042E1BD0082E31D0A6
:102880000C2E5ED145E02946206801F073F82068DF
:10289000806940F00800216888612068806920F024
:1028A00004002168886120688069296908432168DB
:1028B000886148E02946206801F094F82068806922
:1028C00040F40060216888612068806920F480609D
:1028D0002168886120688069296940EA01202168AF
:1028E000886130E02946206801F0BAF82068C069A4
:1028F00040F008002168C8612068C06920F0040029
:102900002168C8612068C069296908432168C861D5
:1029100019E02946206801F0DFF82068C06940F41A
:1029200000602168C8612068C06920F48060216867
:10293000C8612068C069296940EA01202168C8612E
:1029400001E0012700BF00BF00BF002084F83C0069
:1029500000BF384689E7000010B504460CB90120D5
:1029600010BD94F83D0060B9002084F83C0020467A
:1029700001F0DCF8206E08B9144820662046216E6C
:102980008847022084F83D00211D206800F060FF88
:10299000012084F8460000BF84F83E0001213F205A
:1029A0000155402001554120015500BF00BF0120C5
:1029B00084F842004320015544200155452001552B
:1029C00000BF012084F83D000020C9E7D12900089C
:1029D000704770477047000070B504460D4615B942
:1029E00094F83E000BE0042D02D13F20005D06E08C
:1029F000082D02D14020005D01E04120005D01284A
:102A000001D0012070BD1DB9022084F83E000EE007
:102A1000042D03D102213F20015508E0082D03D1E8
:102A200002214020015502E00221412001550122EE
:102A30002946206800F078FF23492068884203D0A7
:102A400022492068884201D1012000E0002028B1FD
:102A50002068406C40F40040216848641A492068AE
:102A600088421BD02068B0F1804F17D018492068E9
:102A7000884213D01749206888420FD01649206831
:102A800088420BD011492068884207D0134920683A
:102A9000884203D01249206888420CD1206880689F
:102AA00000F00706062E0CD02068006840F00100F8
:102AB0002168086005E02068006840F00100216896
:102AC000086000209EE70000000001400004014073
:102AD0000004004000080040000C0040004001409D
:102AE0000018004010B5044603492068884201D10F
:102AF000FEF748FF10BD000000000140704710B510
:102B0000034600240AB9012010BD00BF93F83C0021
:102B1000012801D10220F7E7012083F83C0000BF23
:102B200093F83D00012857D11B2952D2DFE801F06C
:102B30000E10121416181A1C1E20222426282A2DC4
:102B4000303336393C3F4245484B4E009A6442E0B0
:102B5000DA6440E01A653EE05A653CE09A653AE086
:102B6000DA6538E01A6636E05A6634E09A6632E092
:102B7000DA6630E01A672EE05A672CE09A672AE09E
:102B8000DA6728E0C3F8802025E0C3F8842022E03B
:102B9000C3F888201FE0C3F88C201CE0C3F8902005
:102BA00019E0C3F8942016E0C3F8982013E0C3F8A6
:102BB0009C2010E0C3F8A0200DE0C3F8A4200AE098
:102BC000C3F8A82007E0C3F8AC2004E0C3F8B020A5
:102BD00001E0012400BF2DE093F83D0048BB0E2921
:102BE00024D2DFE801F007090B0D0F111315171997
:102BF0001B1D1F219A641BE0DA6419E01A6517E0B7
:102C00005A6515E09A6513E0DA6511E01A660FE07F
:102C10005A660DE09A660BE0DA6609E01A6707E08B
:102C20005A6705E09A6703E0DA6701E0012400BF14
:102C300000E0012400BF002083F83C0000BF2046D4
:102C400062E770477047704770477047704770473A
:102C50002DE9F84F0446206805682068C66820689A
:102C600047694FF00009CA4605F00F09B9F1000F96
:102C70000AD105F0200038B106F0200020B120462E
:102C800001F02AF8BDE8F88FB9F1000F7CD007F009
:102C9000010018B906F49070002875D005F0010005
:102CA00030B106F4807018B1206C40F0010020644F
:102CB00005F0040030B107F0010018B1206C40F0BD
:102CC0000200206405F0020030B107F0010018B1E5
:102CD000206C40F00400206405F0080048B106F0C4
:102CE000200010B907F0010018B1206C40F0080076
:102CF0002064206C002846D005F0200028B106F0A2
:102D0000200010B1204600F0E7FF20684069C0F3C2
:102D1000801A206C00F0080010B9BAF1000F2DD015
:102D2000204600F06CFF2068406900F04000402819
:102D300020D100BF00BF2168143151E8001F21F0ED
:102D400040002168143141E80002002AF3D100BF9D
:102D5000A06B50B17548A16B0865A06BFEF73EFBF8
:102D600088B1A06B016D88470DE02046616D8847F2
:102D700009E009E02046616D884704E02046616D66
:102D80008847002020647DE7206B012876D105F07C
:102D90001000002872D006F010000028FAD000BF02
:102DA0000020009020680068009020684068009033
:102DB00000BF00BF2068406900F0400040285ED19D
:102DC000A06B006840681FFA80F8B8F1000F54D07B
:102DD000A08D404551DDA4F82E80A06BC069B0F5F0
:102DE000807F43D000BF00BF21680C3151E8001F35
:102DF00021F4807021680C3141E80002002AF3D1EF
:102E000000BF00BF00BF2168143151E8001F21F04E
:102E100001002168143141E80002002AF3D100BF0B
:102E200000BF00BF2168143151E8001F21F04000AD
:102E30002168143141E80002002AF3D100BF2020AC
:102E400084F83E000020206300BF00BF21680C31E1
:102E500051E8001F21F0100021680C3141E8000208
:102E6000002AF3D100BFA06BFEF762FAA08DE38DBC
:102E7000C01A81B22046A26E904703E740E0A08DC1
:102E8000E18D401A1FFA80F8E08DC0B3B8F1000F51
:102E900035D000BF00BF21680C3151E8001F21F47C
:102EA000907021680C3141E80002002AF3D100BF84
:102EB00000BF00BF2168143151E8001F21F001005C
:102EC0002168143141E80002002AF3D100BF20201C
:102ED00084F83E000020206300BF00BF21680C3151
:102EE00051E8001F21F0100021680C3141E8000278
:102EF000002AF3D100BF41462046A26E9047C1E6AA
:102F000005F0800030B106F0800018B1204601F0D5
:102F100075F8B7E605F0400030B106F0400018B192
:102F2000204600F0A2FEADE600BFABE6EB3B00089A
:102F300010B504460CB9012010BDA06900B100E035
:102F400000BF94F83D0060B9002084F83C002046A2
:102F500000F09CFEE06E08B91548E0662046E16E80
:102F60008847242084F83D002068C06820F4005081
:102F70002168C860204600F02BFF2068006920F41B
:102F80009040216808612068406920F02A0021688B
:102F900048612068C06840F400502168C860002083
:102FA0002064202084F83D0084F83E000020C3E720
:102FB000B52F000810B586B00446142101A8FDF70E
:102FC0005EFAC049206888425AD100BF00200090B4
:102FD000BD48006840F01000BB4908600846006822
:102FE00000F01000009000BF00BF00BF0020009064
:102FF000B5481438006840F00100B349143908603E
:103000000846006800F00100009000BF00BF4FF4C8
:10301000C0600190022002900020039003200490E1
:103020000720059001A9A948FEF796FBA848A949E1
:1030300008604FF0006048600021A6488160C160D0
:103040004FF4806101610021416181614FF4807121
:10305000C1614902016200214162FEF7F3FA08B141
:10306000FDF746FB00BF9B48A063846300BF0022BE
:1030700005212520FEF730FD2520FEF71DFD1EE170
:103080009549206888425BD100BF002000908E489F
:10309000001F006840F400308B49091F0860084693
:1030A000006800F40030009000BF00BF00BF0020A7
:1030B000009085481438006840F0010082491439B6
:1030C00008600846006800F00100009000BF00BFE3
:1030D0000C20019002200290002003900320049015
:1030E0000720059001A97948FEF736FB7B487C490B
:1030F00008604FF000604860002179488160C1603D
:103100004FF4806101610021416181614FF4807160
:10311000C1614902016200214162FEF793FA08B1E0
:10312000FDF7E6FA00BF6E48A063846300BF00228B
:1031300005212620FEF7D0FC2620FEF7BDFCBEE0D0
:103140006849206888425DD100BF002000905E4839
:10315000001F006840F480205B49091F0860084692
:10316000006800F48020009000BF00BF00BF002076
:10317000009055481438006840F004005249143952
:1031800008600846006800F00400009000BF00BF1F
:103190004FF4406001900220029000200390032031
:1031A00004900720059001A94F48FEF7D5FA4B4837
:1031B00060384E4908604FF00060486000214B487D
:1031C0008160C1604FF480610161002141618161D2
:1031D0004FF48071C1614902016200214162FEF732
:1031E00031FA08B1FDF784FA00BF4048A063846358
:1031F00000BF002205212720FEF76EFC2720FEF7E6
:103200005BFC5CE03A492068884258D100BF00204E
:1032100000902D48006840F020002B4908600846C7
:10322000006800F02000009000BF00BF00BF002039
:10323000009025481438006840F0040022491439F1
:1032400008600846006800F00400009000BF00BF5E
:10325000C0200190022002900020039003200490DF
:103260000820059001A92048FEF776FA184818387A
:10327000204908608005486000211E488160C160C7
:103280004FF4806101610021416181614FF48071DF
:10329000C1614902016200214162FEF7D3F908B120
:1032A000FDF726FA00BF1348A063846300BF002225
:1032B00005214720FEF710FC4720FEF7FDFB06B076
:1032C00010BD0000001001404438024000000240E0
:1032D00040640240CC060020004400408860024068
:1032E0002C07002000480040000802408C07002006
:1032F00000140140EC0700200246002329B9106C9D
:1033000040F0200010640120704700BF92F83C009C
:10331000012801D10220F7E7012082F83C0000BF1C
:1033200092F83D00202801D1916604E0106C40F035
:1033300020001064012300BF002082F83C0000BF81
:103340001846E1E7704770477047704700BFFEE7D7
:1033500000B970470278437842EA0322C2F30A02B6
:10336000154B9A804278D210837842EA4312C2F316
:103370000A02114BDA8082789211C37842EA830202
:10338000037942EA8322C2F30A020B4B1A800279C4
:103390005210437942EAC312C2F30A02064B5A8022
:1033A0004279121192081A724279C2F301125A72CA
:1033B00001221A7500BFCCE7E000002010B50E48CE
:1033C0000E4908600320486000210C488160C160FC
:1033D0004FF4A02101614FF4C00141610021017649
:1033E00041768176C17601774177FDF7EDFC08B132
:1033F000FDF77EF910BD000000640040CC02002003
:1034000010B50E480E4908600320486000210C48A2
:103410008160C1604FF4A02101614FF4C00141619E
:103420000021017641768176C17601774177FDF7FB
:10343000CBFC08B1FDF75CF910BD0000006800404E
:103440003003002010B50548054908600846FDF71F
:1034500007FF08B1FDF74CF910BD00000030024035
:103460003C00002008B500BF002000901E48006806
:1034700040F480001C4908600846006800F48000A1
:10348000009000BF00BF00BF002000900846006809
:1034900040F4001008600846006800F40010009036
:1034A00000BF00BF002205210C20FEF715FB0C20F9
:1034B000FEF702FB002205211020FEF70DFB102075
:1034C000FEF7FAFA002205213920FEF705FB392024
:1034D000FEF7F2FA002205213A20FEF7FDFA3A2023
:1034E000FEF7EAFA08BD00003038024000B587B0A8
:1034F000142102A8FCF7C3FF00BF00200190304850
:10350000006840F080002E4908600846006800F01E
:103510008000019000BF00BF00BF0020019008465E
:10352000006840F0040008600846006800F00400ED
:10353000019000BF00BF00BF002001900846006856
:1035400040F0010008600846006800F001000190AA
:1035500000BF00BF00BF002001900846006840F097
:10356000020008600846006800F00200019000BFF9
:1035700000BF002203211348FEF7F8F90320029050
:103580000120039004900220059002A90D48FEF747
:10359000E3F804200290002003900220049002A986
:1035A0000848FEF7D9F8012002900020039002207D
:1035B000049002A90448FEF7CFF807B000BD000050
:1035C00030380240000802400000024000B587B0D9
:1035D00000200390049005900690019002904FF017
:1035E00080401449086042F2CF0048600021114831
:1035F000816040F2E731C160002101618161FEF725
:10360000CBFE08B1FDF774F84FF48050039003A986
:103610000848FEF789FF08B1FDF76AF8002001901D
:10362000029001A90348FEF75DFE08B1FDF760F8BE
:1036300007B000BD9403002000B58DB000200990B4
:103640000A900B900C90079008901C216846FCF79C
:1036500016FF25482549086053204860002123486B
:10366000816044F61F61C160002101618161FEF744
:1036700093FE08B1FDF73CF84FF48050099009A97A
:103680001A48FEF751FF08B1FDF732F81748FFF767
:1036900063F908B1FDF72CF800200790089007A9FE
:1036A0001248FEF71FFE08B1FDF722F870200090C7
:1036B0004FF47A70019002200290002004900022C2
:1036C00069460A48FFF7C5F808B1FDF711F804226A
:1036D00069460648FFF7BDF808B1FDF709F8034849
:1036E000FFF786F80DB000BD00040040480400203C
:1036F00010B50C480C4908600C4848604FF48051E4
:10370000094881600021C1604FF48061016104219A
:10371000416100218161C161FFF70AFC08B1FCF73A
:10372000E7FF10BD00100140FC040020A08601004E
:1037300010B50B480B4908604FF4E1304860002198
:1037400008488160C16001610421416100218161FB
:10375000C161FFF7EDFB08B1FCF7CAFF10BD000027
:10376000004400407005002010B50D480D49086068
:103770004FF4E13048604FF480510A4881600021E5
:10378000C1604FF4806101610C21416100218161C0
:10379000C161FFF7CDFB08B1FCF7AAFF10BD000027
:1037A00000480040E405002010B50B480B490860B4
:1037B0004FF4E1304860002108488160C160016138
:1037C0000421416100218161C161FFF7B1FB08B1B2
:1037D000FCF78EFF10BD00000014014058060020C9
:1037E00000BFFEE700BFFEE710B500BF502080F32A
:1037F0001188BFF34F8FBFF36F8F00BF03F084F8C2
:1038000018B14FF080500449086000BF002080F3D9
:10381000118800BF10BD000004ED00E003480068FF
:1038200040F47000014908607047000088ED00E036
:1038300010B50248FEF701FF10BD00004C08002043
:1038400010B50248FEF7F9FE10BD000094030020F9
:1038500010B50268294B98420ED0B0F1804F0BD0C2
:10386000274B984208D0274B984205D0264B9842C8
:1038700002D0264B984203D122F070024B681A43C3
:103880001E4B984220D0B0F1804F1DD01C4B984267
:103890001AD01C4B984217D01B4B984214D01B4B8C
:1038A000984211D01A4B98420ED01A4B98420BD026
:1038B000194B984208D0194B984205D0184B9842A2
:1038C00002D0184B984203D122F44072CB681A43BD
:1038D00022F080034C6943EA040202608B68C362F1
:1038E0000B688362054B984202D0084B984201D185
:1038F0000B6903630123436110BD00000000014018
:103900000004004000080040000C0040000401409A
:1039100000400140004401400048014000180040C0
:10392000001C00400020004030B501F01F050124BC
:1039300004FA05F3046A9C430462046A01F01F055B
:1039400002FA05F52C43046230BD30B50C4681689F
:1039500021F47F4142EA032525432943816030BD9C
:103960000A46816821F0700142F007031943816023
:103970007047000030B5056A25F001050562026A4E
:103980004368846924F0700424F003040D682C4318
:1039900022F002028D682A43104DA84200D103E0B4
:1039A0000F4DA84206D100BF22F00802CD682A437D
:1039B00022F00402094DA84202D0094DA84207D1C5
:1039C00023F4807323F400734D692B438D692B43DB
:1039D000436084614D684563026230BD0000014070
:1039E0000004014030B5056A25F010050562026A41
:1039F0004368846924F4E04424F440740D6844EA84
:103A0000052422F020028D6842EA0512124DA842D8
:103A100000D103E0114DA84207D100BF22F080027F
:103A2000CD6842EA051222F040020B4DA84202D0B6
:103A30000A4DA84209D123F4806323F400634D6941
:103A400043EA85038D6943EA8503436084614D68D9
:103A50008563026230BD00000000014000040140A7
:103A600030B5056A25F480750562026A4368C46949
:103A700024F0700424F003040D682C4322F4007237
:103A80008D6842EA0522124DA84200D103E0114D93
:103A9000A84207D100BF22F40062CD6842EA0522A5
:103AA00022F480620A4DA84202D00A4DA84209D1F0
:103AB00023F4805323F400534D6943EA05138D69C1
:103AC00043EA05134360C4614D68C563026230BDBB
:103AD000000001400004014030B5056A25F480551E
:103AE0000562036A4468C26922F4E04222F440722B
:103AF0000D6842EA052223F400538D6843EA05333A
:103B0000084DA84202D0084DA84204D124F48044B4
:103B10004D6944EA85144460C2614D6805640362DE
:103B200030BD000000000140000401400E4940F893
:103B3000801F0E4941600E4981600E49C1600E49E7
:103B400001610E4941610E4981610E49C1610E4911
:103B500001620E4941620E4981620E49C1620E49FD
:103B60000163803870470000E52A0008FD2A00083C
:103B7000432C0008452C0008372600083926000889
:103B800051280008D3290008D52900083526000847
:103B9000DF220008E1220008DD22000830B50B46D4
:103BA0001446026A056A25F001050562816921F063
:103BB000F00141EA041122F00A021A438161026213
:103BC00030BD30B50B461446056A25F01005056278
:103BD0008169026A21F4704141EA043122F0A002B5
:103BE00042EA03128161026230BD70B50546AC6BDA
:103BF0000020E085E0842046616D884770BD00BFED
:103C000000BF02680C3252E8002F22F49071026863
:103C10000C3242E80013002BF3D100BF00BF00BFFD
:103C20000268143252E8002F22F0010102681432B7
:103C300042E80013002BF3D100BF016B01290ED124
:103C400000BF00BF02680C3252E8002F22F01001C2
:103C500002680C3242E80013002BF3D100BF202190
:103C600080F83E1000210163704710B504462068BB
:103C7000C06820F040002168C860202084F83D0022
:103C80002046A16C8847002010BD0000094941640E
:103C9000094981640949C1640949016509494165C6
:103CA000094981650949C165094901660949816672
:103CB000704700004B3300084933000847330008C1
:103CC000453300084F2C0008492C00084D2C0008F3
:103CD0004B2C0008472C0008F8B5044694F83E0029
:103CE000222873D1A068B0F5805F0CD1206950B94B
:103CF0000025A66A20684068C0F308003080A06AEA
:103D0000801CA06215E0A56A0026A068B0F5805F5F
:103D100003D0A06828B9206918B9206840682870C5
:103D200004E02068406800F07F002870A06A401C12
:103D3000A062E08D401E80B2E085002844D120685A
:103D4000C06820F020002168C8602068C06820F4A6
:103D500080702168C8602068406920F001002168F7
:103D60004861202084F83E00206B012826D10020E5
:103D7000206300BF00BF21680C3151E8001F21F013
:103D8000100021680C3141E80002002AF3D100BF85
:103D90002068006800F0100010280AD100BF002041
:103DA000009020680068009020684068009000BF84
:103DB00000BFA18D2046A26E904702E02046216DF3
:103DC00088470020F8BD01E00020FBE70220F9E76A
:103DD0002DE9F84F04462068006920F44050E1685E
:103DE0000843216808612169A068084361690843A4
:103DF000E169084300902068C06849F20C6188437B
:103E0000009908432168C8602068406920F4407028
:103E1000A16908432168486176492068884203D037
:103E200075492068884203D1FDF7A2FF814602E070
:103E3000FDF78EFF8146E069B0F5004F6CD102209E
:103E40006168A0FB015003461920A9FB00700146E0
:103E50002A463846FCF76AFA6421B0FBF1F04FEAD3
:103E6000001A02206168A0FB01510B461920A9FB32
:103E700000712A463846FCF759FA834602206168E9
:103E8000A0FB015003461920A9FB00712A463846C1
:103E9000FCF74CFA6421B0FBF1F000EBC00101EB40
:103EA0000010ABEB8000322101EBC0006421B0FBBD
:103EB000F1F000F0F8000AEB400A02206168A0FB74
:103EC000015003461920A9FB007001462A463846D6
:103ED000FCF72CFA834602206168A0FB01500346E0
:103EE0001920A9FB00712A463846FCF71FFA642105
:103EF000B0FBF1F000EBC00101EB0010ABEB800078
:103F0000322101EBC0006421B0FBF1F000F00700AA
:103F10005044216888606AE004206168A0FB015079
:103F200003461920A9FB007001462A463846FCF7D3
:103F3000FDF9824604206168A0FB01500346192068
:103F4000A9FB007001462A463846FCF7EFF96421C8
:103F5000B0FBF1F000EBC00101EB0010AAEB800018
:103F6000322101EB00106421B0FBF1F000F0F00A07
:103F700004206168A0FB017003461920A9FB0051D1
:103F80003A462846FCF7D2F96421B0FBF1F00AEB7F
:103F9000001A04206168A0FB01510B461920A9FBFF
:103FA00000712A463846FCF7C1F98346042061684F
:103FB000A0FB015003461920A9FB007001462A46C8
:103FC0003846FCF7B3F96421B0FBF1F000EBC00117
:103FD00001EB0010ABEB8000322101EB00106421FB
:103FE000B0FBF1F000F00F00504421688860BDE89C
:103FF000F88F00000010014000140140014691F8C4
:104000003D00212828D18868B0F5805F0BD1086970
:1040100048B90A6A1088C0F308000B685860086A3B
:10402000801C086205E00B6A581C086218780B684F
:104030005860C88C401E80B2C88458B90868C068EF
:1040400020F080000B68D8600868C06840F040002D
:104050000B68D860002070470220FCE710B50248CA
:10406000FEF7F6FD10BD0000FC04002010B502486C
:10407000FEF7EEFD10BD00007005002010B50248EF
:10408000FEF7E6FD10BD0000E405002010B5024873
:10409000FEF7DEFD10BD00005806002000BFFEE761
:1040A00000BF012001F0A7FCFBE700001D480078DD
:1040B000072834D2DFE800F006040508090A0700E3
:1040C00000BF00BF704700BF00BF00BF1648007AA6
:1040D000012804D002281DD003281FD116E0124861
:1040E000407A012804D002280AD003280CD103E02A
:1040F00006200C49087007E003200A49087003E015
:1041000004200849087000BF00BF07E005200549EA
:10411000087003E005200349087000BF00BF00BF1E
:10412000D0E700004C000020E000002000B502466F
:104130002AB110785A2802D15078A52800D000BDA5
:10414000D07BB0282FD1107C537C40EA032000B2F2
:1041500000EE100AB8EEC00AF2EE040A80EE201A51
:104160002D4880ED001A907CD37C40EA032000B2F9
:1041700000EE100AB8EEC00AF2EE040A80EE201A31
:10418000254880ED011A107D537D40EA032000B2DE
:1041900000EE100AB8EEC00AF2EE040A80EE201A11
:1041A0001D4880ED021A507FD02833D112F81E0F1F
:1041B000537840EA032000B200EE100AB8EEC00ABD
:1041C000DFED160A80EE201A134880ED031A90786E
:1041D000D37840EA032000B200EE100AB8EEC00A1D
:1041E000DFED0E0A80EE201A0B4880ED061A1079DA
:1041F00053791E3A40EA032000B200EE100AB8EEEE
:10420000C00AF2EE040A80EE201A034880ED041A78
:1042100000F00EF800BF92E7FC1000200000C8423A
:1042200000F066FC00BF012001F0E5FBFBE70000A9
:104230001E48D0ED040A1E4890ED001A70EEC10A27
:10424000B0EE600ADFED1B0AB4EEE00AF1EE10FA00
:104250000BDD1648D0ED050A9FED171A30EE411A16
:1042600070EE810AC0ED050A19E0DFED140AB4EE24
:10427000E00AF1EE10FA0BD20C48D0ED050A9FEDE2
:104280000E1A30EE011A70EE810AC0ED050A06E042
:104290000648D0ED050A70EE800AC0ED050A034815
:1042A000D0ED040A0248C0ED000A7047FC1000205F
:1042B00054000020000034430000B443000034C325
:1042C00000BF064800F03EFD044800F09FFC044893
:1042D00000F058FF012001F08EFBF2E74C000020B7
:1042E000580D002010B59FED283ADFED282A9FEDEC
:1042F000282ADFED281A9FED281ADFED280AB7EEED
:10430000000A274800F035FE9FED1F3ADFED252A11
:104310009FED1F2ADFED241A9FED241ADFED240AFA
:10432000B1EE040A1E4800F04BFE9FED173ADFED98
:10433000172A9FED172ADFED171A9FED171ADFEDE9
:10434000170AB7EE000A1648843000F012FE9FEDFF
:104350000E3ADFED142A9FED0E2ADFED131A9FEDC2
:10436000131ADFED130AB1EE040A0D48843000F091
:1043700027FE00210A4800F067FD0021084884302C
:1043800000F062FD10BD00000000000000409C45F0
:104390000080BB450000FA430000004252499D3AAC
:1043A000D40F0020007C924800401C468FC2753D0F
:1043B000CDCC4C3D0146074A0868904201D101200E
:1043C0007047054A0868904201D10220F8E70020B2
:1043D000F6E70000006400400068004001462B4AF8
:1043E0000868904201D1012070470868B0F1804F01
:1043F00001D10220F8E7264A0868904201D1032043
:10440000F2E7244A0868904201D10420ECE7224AEE
:104410000868904201D10520E6E7204A08689042EA
:1044200001D10620E0E71E4A0868904201D107202A
:10443000DAE71C4A0868904201D10820D4E71A4AFA
:104440000868904201D10920CEE7184A08689042D6
:1044500001D10A20C8E7164A0868904201D10B2012
:10446000C2E7144A0868904201D10C20BCE7124A06
:104470000868904201D10D20B6E7104A08689042C2
:1044800001D10E20B0E70020AEE70000000001409F
:104490000004004000080040000C004000100040F4
:1044A000001400400004014000400140004401406D
:1044B0000048014000180040001C0040002000405F
:1044C00010B59FED2B3ADFED2B2A9FED2B2ADFED68
:1044D0002B1A9FED2B1ADFED2B0AB7EE000A2A48A4
:1044E00000F047FD9FED223ADFED282A9FED222ABA
:1044F000DFED271A9FED271ADFED270AB1EE040A38
:10450000214800F05DFD9FED1A3ADFED1A2A9FED7C
:10451000232ADFED1F1A9FED1F1ADFED150A9FED0D
:10452000200A1948843000F024FD9FED113ADFED98
:10453000112A9FED1A2ADFED161AB3EE0E1ADFEDDF
:104540000C0AB1EE000A1048843000F039FD002159
:104550000D48A0F886106420FDF7EAF800210A480B
:10456000843000F071FC0021074800F06DFC10BDA4
:104570000000000000409C450080BB4500007A44DC
:104580000000004252499D3ACC0E0020007C924827
:1045900000A00C468FC2753DCDCC4C3D0050434829
:1045A0009A99993F0449884202DD9FED040A7047B9
:1045B0009FED030AFBE7000090EEFEFF00C05AC526
:1045C0000000000010B500244CE004EB440101EBB6
:1045D00004112F4A02EB81009FED2E3ADFED2E2AC7
:1045E0009FED2D2ADFED2D1A9FED2D1ADFED2D0AFF
:1045F000B1EE040A00F031FD04EB44122449E43129
:1046000001EB82009FED233ADFED232A9FED262A5E
:10461000DFED211A9FED251ADFED250AB7EE000A1E
:1046200000F0A7FC04EB44121949E43101EB8200CD
:104630009FED183ADFED1F2A9FED1B2ADFED171AB9
:104640009FED181ADFED160AB1EE040A00F0B8FC6F
:1046500004EB44120E49E43101EB8200002100F02A
:10466000F3FB641C032CB0DB9FED0A3ADFED0A2A52
:104670009FED092ADFED091A9FED091ADFED090AFE
:10468000B3EE040A0248983000F0E7FC10BD0000C9
:10469000000900200000000000409C4500401C462E
:1046A000CDCC4C3D8FC2753D0080BB450000004223
:1046B00052499D3A007C92480146134A086890424C
:1046C00001D101207047114A0868904201D10220AF
:1046D000F8E70F4A0868904201D10320F2E70D4A3B
:1046E0000868904201D10420ECE70B4A0868904228
:1046F00001D10520E6E7094A0868904201D1062069
:10470000E0E70020DEE70000001001400044004028
:1047100000480040004C00400050004000140140A0
:1047200000BFFFF7C3FC012001F065F9F9E70000C5
:1047300086B000BF4FF0FF321C21684601F09CF9A3
:104740009DE8070003AB07C30398082817D1049816
:1047500000F0040018B100210B4800F079FF049824
:1047600000F0080018B10021084800F071FF04981B
:1047700000F0100018B10021054800F069FF012089
:1047800001F039F9D6E70000FC000020700100209C
:10479000E401002000B59FB0142224491AA8FBF7B9
:1047A0003CFE00211AA801F098F921490860142262
:1047B0001E49143115A8FBF730FE002115A801F0A1
:1047C0008CF91C49086014221849283110A8FBF7FD
:1047D00024FE002110A801F080F917490860142276
:1047E00012493C310BA8FBF718FE00210BA801F081
:1047F00074F91249086014220C49503106A8FBF7DD
:104800000CFE002106A801F068F90D490860142289
:104810000649643101A8FBF700FE002101A801F060
:104820005CF9084908601FB000BD0000006C00087A
:104830001C00002020000020240000202800002070
:104840002C0000203000002000BF012001F0D3F830
:10485000FBE7000010B504462146044800F0A3FE23
:1048600021460248083000F09EFE10BDEC100020EA
:1048700010B5094800F07DFE012802D1074800F07C
:104880006EFE054800F075FE10B9044800F05DFEAC
:10489000034800F077FE10BD100000200800002043
:1048A0000000002010B54FF47A71054800F07BFE3F
:1048B0004FF47A710248083000F075FE10BD000018
:1048C000EC10002000B593B0302107A8FBF7D7FD0E
:1048D000142102A8FBF7D3FD00BF0020019023485C
:1048E000006840F08050214908600846006800F0E8
:1048F0008050019000BF00BF002001901C4800685C
:1049000040F480401A4908600846006800F480407E
:10491000019000BF012007900004089002200D9034
:1049200041050E9104210F91A821109102211191AE
:104930000421129107A8FDF783FA08B1FBF7D8FE0E
:104940000F20029002200390002004904FF4A0500A
:1049500005904FF480500690052102A8FDF70EF94E
:1049600008B1FBF7C5FE13B000BD0000403802409F
:104970000070004010B102785B2A00D07047427886
:10498000184B1A70C278837842EA032212B2154B90
:104990005A804279037942EA032212B2114B9A807B
:1049A00082795A70027AC37942EA03220E4B1A6066
:1049B0000C4A12780B4BB3F902301A44094BB3F985
:1049C00004301A44074B5B781A44084B1A60064AB5
:1049D00012681B689A4202D10122024B9A7100BFF1
:1049E000CCE7000058000020600000206400002098
:1049F000DFED020AB0EE600A704700000000FAC462
:104A000070B504462046FFF7D5FC034951F8205005
:104A1000284600F053FB70BD084E002070B50446D8
:104A20002046FFF7C7FC034951F82050284600F004
:104A3000F2FC70BD084E002070B504462046FFF71A
:104A4000CDFC0546034850F82560304600F076FD61
:104A500070BD0000144E00202DE9F04106460F46BF
:104A60003046FFF729FE0546204850F82540092D1D
:104A700038D2DFE805F037050B11171D2329300068
:104A800021680868042100F0C7FF2BE0216808684E
:104A9000082100F0C1FF25E021680868102100F01E
:104AA000BBFF1FE021680868202100F0B5FF19E076
:104AB00021680868402100F0AFFF13E02168086812
:104AC000802100F0A9FF0DE0216808684FF4807193
:104AD00000F0A2FF06E0216808684FF4007100F0C2
:104AE0009BFF00BF00BFBDE8F0810000504E0020DA
:104AF00010B5FFF7F7FBFFF7E3FCFFF763FD2C4A68
:104B00002C492D4800F002FD2C4B2D4A2D492E48F2
:104B100000F06CFD294B2D4A2D492E4800F066FD12
:104B2000264B2D4A2D492E4800F060FD002415E04B
:104B300004EB440000EB04102A4901EB80022A49EF
:104B40002A4800F08DFC04EB44112648E43000EBC9
:104B500081022549254800F083FC641C032CE7DB17
:104B6000234A2449244800F07BFC214A843221490D
:104B7000214800F075FC214A1E491F4800F070FCD6
:104B80001E4A84321B491C4800F06AFC00221C4962
:104B90001C4800F020FD042219491A48083000F092
:104BA0001AFD0220184908700620087010BD000088
:104BB0007148000894030020180000202000002005
:104BC00051330008FC040020FC0000202D410008A7
:104BD000700500207001002075490008E4050020E0
:104BE000E401002000090020CC0200207C0B002002
:104BF000CC0E002030030020580D0020D40F0020E0
:104C000048040020EC1000204C00002010B50446A1
:104C1000207807287FD2DFE800F0047E7E1B5C7DD1
:104C20000B0000213D48A0F80A11FFF73BFE73E09E
:104C30009FED3B0A3B4800F0EAF93B49394800F058
:104C40004FF93A483A49086037483A49086063E002
:104C500038480068643837490860084600683649B3
:104C6000884202DA084633490860324800682E4913
:104C7000884202DD08462F4908602D48006814303C
:104C80002B490860084600682C49884202DA084629
:104C9000274908602648006810F57A7F02DD23481E
:104CA000234908609FED260A1E48843000F0AFF9C2
:104CB0001F4801681B48843000F012F99FED200A5C
:104CC000184800F0A4F91B480168164800F008F9DC
:104CD00022E017480068401E154908600846006831
:104CE0001649884202DA08461149086010480068EF
:104CF00010F57A7F02DD0D480D4908609FED100A1E
:104D0000084800F084F90D490648843000F0E8F8BE
:104D100002E000E000E000BF00BF10BDCC0E0020AC
:104D20000000FA43D40F0020E0B1FFFF18FCFFFFA2
:104D30004800002044000020008FFDFFD8E2FEFF65
:104D400000409C4510B504462078072867D2DFE86C
:104D500000F0046666164C580A000020314948806D
:104D6000FFF7A0FD5CE030492E4800F0B9F82F496C
:104D70002C48843000F0B4F8FFF794FD50E02C4844
:104D8000C088A0F5806000EE100AB8EEC00ADFED22
:104D9000290A20EE200A9FED281AC0EE010A2748B2
:104DA00090ED000AB8EEC00A30EE600ABDEEC00A0F
:104DB00080ED000A00682249884202DA08461F494D
:104DC00008601E480068002802DD00201B490860BA
:104DD0001A480168134800F083F8144911488430D8
:104DE00000F07EF8FFF75EFD1AE00F490D4800F075
:104DF00077F800210B48843000F072F8FFF752FD7D
:104E00000EE04FF4E160FFF725FD0749054800F08B
:104E100067F80C490348843000F062F800E000BFF6
:104E200000BF10BDCC0E002080C7FEFF18FCFFFFA6
:104E3000E000002000002042000025445000002037
:104E4000A033FAFFE08AC7FF81604FF6FF73038249
:104E5000704730B5134602889A423BD14A780C78A5
:104E600042EA0424C480CA788C7842EA042212B24E
:104E700082804A790C7942EA042214B2C4818C7986
:104E80000473028A4FF6FF74A24201D1C4880482DF
:104E9000B0F90420052A04DCB0F9042012F1050F52
:104EA00016DAC588048A2C1B22B28468A51885608E
:104EB00012F5805F04DA846804F50054846006E02B
:104EC000B2F5805F03DD8468A4F50054846000BF00
:104ED000C488048230BD01804FF6FF73038270479F
:104EE00070B52DED028B04460D46656194ED021AF6
:104EF000B8EEC11AF0EE410A94ED051AB8EEC11AE7
:104F0000B0EE410A04F1180000F0F0FBBDEEC00A5B
:104F100010EE100A00B208EE100AB4F9040000EE18
:104F2000100AB8EEC00AF0EE400AB8EEC80A04F162
:104F30004C0000F0DBFBBDEEC00A10EE100A00B220
:104F40006080D4F8800088B1D4F880106069884708
:104F5000B4F9020000EE900AF8EEE00A30EE200A02
:104F6000BDEEC00A10EE100A00B26080BDEC028BEC
:104F700070BD10B52DED088B0446B0EE408AF0EE02
:104F8000608AB0EE419AF0EE619AB0EE42AAF0EE7D
:104F900062AAB0EE43BAB0EE4B3AF0EE6A2AB0EE37
:104FA0004A2AF0EE691AB0EE491AF0EE680AB0EE3D
:104FB000480A04F1180000F04FFCBDEC088B10BD4E
:104FC00010B52DED088B0446B0EE408AF0EE608AF5
:104FD000B0EE419AF0EE619AB0EE42AAF0EE62AA0B
:104FE000B0EE43BAB0EE4B3AF0EE6A2AB0EE4A2A7F
:104FF000F0EE691AB0EE491AF0EE680AB0EE480A0F
:1050000004F14C0000F028FCBDEC088B10BD10B57D
:105010002DED028B0446B0EE408AB0EE480A04F152
:10502000180000F05FFBBDEC028B10BD70B50446AC
:105030000D46164631462046FFF74DFF0446C4F89C
:105040008050204670BD30B504460D4629462046A6
:10505000FFF741FF0446204630BD10B52DED088B0B
:105060000446B0EE408AF0EE608AB0EE419AF0EE6F
:10507000619AB0EE42AAF0EE62AAB0EE43BAB0EE88
:105080004B3AF0EE6A2AB0EE4A2AF0EE691AB0EE18
:10509000491AF0EE680AB0EE480A04F1140000F074
:1050A000DBFBBDEC088B10BD30B504460D46294630
:1050B0002046FFF710FF0446204630BD70B5044679
:1050C00004F12D0304F138020021A068FBF77CFCF9
:1050D000D8B900250EE004F10C0050F8250038B1D5
:1050E00004F10C0151F825002131A26BFFF7B1FE4C
:1050F000681CC5B294F82C00A842ECDC606820B1B2
:1051000004F12D006268A16B904770BDF8B50446AC
:105110000D461646A068FBF714FD30B16B463246CB
:105120002946A068FBF7FCFA2BE094F8541001F034
:10513000070101EB410204F1B40101EBC2001822A6
:105140002946FBF76AF900200AE0325C94F8541013
:1051500001F0070304F1740101EBC3010A54401C80
:1051600029698142F1D8606D401C6065D4E9150160
:10517000401A082801D9FBF7BBFA0121A068FBF708
:10518000BAFAF8BD30B587B0044600200690029008
:10519000039008200490002512E104F10C0050F85F
:1051A000250000287ED004F10C0050F8250000886E
:1051B000A0F201200B281CD2DFE800F0064A8FD2B3
:1051C0001C61A6E93379BC009DF81800401CC0B2F0
:1051D0008DF8180004F10C0050F825004088000AF2
:1051E00084F85C0004F10C0050F8250081785D2003
:1051F0000155E2E09DF81900401CC0B28DF819007D
:1052000004F10C0050F825004088C0F30721642009
:10521000015504F10C0050F82500817884F86510E0
:10522000CBE09DF81A00401CC0B28DF81A0004F1C2
:105230000C0050F825004088C0F307216C20015570
:1052400004F10C0050F82500817884F86D10B4E06A
:105250009DF81800401CC0B28DF8180004F10C0035
:1052600050F825004088C0F307215E20015504F165
:105270000C0050F8250081785F2001559DE09DF8D5
:105280001900401CC0B28DF8190004F10C0050F850
:1052900025004088010A84F8661004F10C0050F8DB
:1052A000250000E08AE0817884F8671085E09DF8A9
:1052B0001A00401CC0B28DF81A0004F10C0050F81E
:1052C00025004088010A84F86E1004F10C0050F8A3
:1052D0002500817884F86F106FE09DF81800401C5D
:1052E000C0B28DF8180004F10C0050F82500408879
:1052F000C0F307216020015504F10C0050F825008F
:1053000081786120015558E09DF81900401CC0B219
:105310008DF8190004F10C0050F825004088010AAE
:1053200084F8681004F10C0050F82500817884F8A6
:10533000691042E09DF81A00401CC0B28DF81A00B6
:1053400004F10C0050F825004088010A84F8701020
:1053500004F10C0050F82500817884F871102CE0DD
:105360009DF81800401CC0B28DF8180004F10C0024
:1053700050F825004088C0F307216220015504F150
:105380000C0050F8250081786320015515E09DF848
:105390001900401CC0B28DF8190004F10C0050F83F
:1053A00025004088010A84F86A1004F10C0050F8C6
:1053B0002500817884F86B1000BF00BF681CC5B25F
:1053C00094F82C00A8423FF7E8AE9DF8180040B1D1
:1053D0004FF40070009004F15C0269462046FFF72C
:1053E00095FE9DF8190040B140F2FF10009004F1C5
:1053F000640269462046FFF789FE9DF81A0040B115
:1054000040F2FF20009004F16C0269462046FFF74D
:105410007DFE07B030BD38B50446D4E91501884299
:1054200019D994F8583003F0070504F1740303EB1D
:10543000C50294F8583003F0070303EB430504F169
:10544000B40303EBC5016B46A068FBF769F9A06DD7
:10545000401CA06503E00121A068FBF79FFA38BD5E
:1054600070B58AB004460D461646A5602846FEF77C
:10547000A1FF224941F8204094F82C1004F10C00BF
:1054800040F8216094F82C00401C84F82C001C4942
:105490002868884204D1002005900E20099002E07F
:1054A0000E20059009900020049000900190029039
:1054B0000390069001200790089069462846FBF764
:1054C000DBF9104A00212846FBF736FE0D4A012180
:1054D0002846FBF731FE0B4A02212846FBF72CFE3B
:1054E000094A06212846FBF727FE02212846FBF73A
:1054F00002F92846FBF77EFE0AB070BD084E002078
:10550000006400401D4A0008014A000870B50446C6
:105510000D4616462846FEF761FF064941F8204031
:105520002660054A0E212846FDF7E9FA2846FCF7D1
:10553000A7FF70BD144E0020394A000810B504467C
:10554000206808B12068804710BD10B504460020CF
:10555000A071A18800222068FCF708FA10BD10B5E0
:1055600004460120A071A18801222068FCF7FEF901
:1055700010BD10B50446A1882068FCF7E5F9A071BC
:10558000A07910BD10B50446A1882068FCF7E4F9A5
:10559000A1882068FCF7D8F9A07110BD00238371A1
:1055A00001608280704742681AB9026812685163CC
:1055B00010E04268042A03D102681268916309E08E
:1055C0004268082A03D102681268D16302E00268C7
:1055D00012681164704770B504460E461546266081
:1055E000656029463046FDF7F7F970BDF8B5054608
:1055F0000C4616461F46EC662F602046FFF75CF807
:10560000114941F820506E6010492046FDF774FEA4
:105610002068C06840F010002168C8600120206345
:105620003220A08500902268111D05F13A0305F192
:105630000802A06BFBF73EFE2068406940F0400086
:1056400021684861F8BD0000504E0020594A00080A
:1056500070B504460D46E06E806B0068006801215D
:1056600021EAD04084F87000E06E806B006800682A
:1056700020F00100E16E896B09680860E06E806BC4
:105680000068006800F4002050B1E06E806B006894
:10569000006820F40020E16E896B0968086009E069
:1056A000E06E806B0068006840F40020E16E896B5A
:1056B00009680860E06E806B0068006840F00100D7
:1056C000E16E896B09680860E9B294F8703003EB09
:1056D000C30606EB031604F1080303EB46006268F9
:1056E000904770BD80ED0C0A70470000B0EE401A84
:1056F00031EE600A80ED030A90ED030AD0ED041A42
:10570000B4EEE10AF1EE10FA03DD90ED040A80ED4B
:10571000030A90ED030AD0ED041AF1EE611AB4EE1B
:10572000E10AF1EE10FA05D290ED040AB1EE400A5A
:1057300080ED030A90ED030AB5EEC00AF1EE10FA0F
:1057400002DD90ED030A03E090ED030AB1EE400A9A
:10575000D0ED081AB4EEE10AF1EE10FA03D89FED8D
:105760003D0A80ED030A90ED050AD0ED031A30EEF4
:10577000210A80ED050A90ED030AD0ED051A20EE0E
:10578000210AB5EEC00AF1EE10FA03D29FED310AFC
:1057900080ED050A90ED050AD0ED061AB4EEE10A97
:1057A000F1EE10FA03DD90ED060A80ED050A90EDAA
:1057B000050AD0ED061AF1EE611AB4EEE10AF1EE37
:1057C00010FA05D290ED060AB1EE400A80ED050A06
:1057D00090ED030AD0ED091A30EE610A80ED070A58
:1057E00090ED000AD0ED031A20EE210AD0ED011A47
:1057F00090ED052A01EE820AD0ED021A90ED072AFB
:1058000001EE820A80ED0B0A90ED0B0AD0ED0C1A26
:10581000B4EEE10AF1EE10FA03DD90ED0C0A80ED32
:105820000B0A90ED0B0AD0ED0C1AF1EE611AB4EEF2
:10583000E10AF1EE10FA05D290ED0C0AB1EE400A41
:1058400080ED0B0A90ED030A80ED090A90ED0B0A3A
:10585000704700000000000080ED000AC0ED010A62
:1058600080ED021AC0ED0C1A80ED042AC0ED062A64
:1058700080ED083A7047000002480068C0F302203B
:10588000704700000CED00E010B5002804DB0A07AB
:10589000130E054A135406E00A07140E034A00F0DB
:1058A0000F031B1FD45410BD00E400E018ED00E00E
:1058B00010B540F2012211491148FFF7B7FB40F241
:1058C00002210F488430FFF7BEFB4FF401720D49EF
:1058D0000D48FFF7ABFB40F203210B488430FFF784
:1058E000B2FB012209490A48FFF758FE0122074985
:1058F00007480830FFF752FE10BD0000F1490008CC
:10590000CC0E0020A5450008D40F00200000024066
:10591000DC10002010B540F201211048FFF7C4FB55
:1059200040F202210D484C30FFF7BEFB40F203214C
:105930000A489830FFF7B8FB4FF401710748E4308C
:10594000FFF781FB40F205210548FFF77CFB40F2A1
:10595000062103488430FFF776FB10BD00090020C4
:10596000680A002010B5022207490848FFF716FE12
:10597000012205490648FFF711FE042202490548A5
:10598000FFF70CFE10BD00000008024000000020E0
:10599000080000201000002000BFEFF3058008B1D0
:1059A000012070470020FCE7FBF7F8FFFEF78AFFB5
:1059B000FDF79CFDFDF746FDFDF700FDFDF752FDEF
:1059C000FDF704FEFDF738FEFDF792FEFDF718FD2A
:1059D000FDF7AEFEFDF7C8FEFDF7E6FEFEF7DAFEC8
:1059E00000F015F800BFFEE701460020842901D031
:1059F000CA1C1044704770B5044625460DB12946AF
:105A000000E00121084600F093FC002070BD10B5B5
:105A100000F0BCFC002010BD3EB504460D46002041
:105A200002900190FFF7B8FFB8B102A801AB0122C4
:105A300029460090204600F0B3FE012802D04FF026
:105A400000403EBD029898B14FF08050094908606F
:105A5000BFF34F8FBFF36F8F0AE001AB01222946DE
:105A6000204600F009FE012802D04FF00040E8E790
:105A70000198E6E704ED00E0FEB506460F46144641
:105A8000002001900025601C08B96D1E03E014B1D0
:105A9000254605B90125FFF77FFF10B18220009050
:105AA00016E02B4601AA3946002000F0D1FF01285C
:105AB00006D015B9002000900AE04020009007E0D1
:105AC0000198002802DA8620009001E0082000906A
:105AD0009DE8070086E80700FEBDFEB504460D46BA
