:020000040800F2
:10000000B81E0020290200089D6D000885480008E0
:10001000D55F0008D90A0008B97700080000000081
:10002000000000000000000000000000E96D000872
:10003000B310000800000000A16D00082570000842
:10004000430200084302000843020008430200087C
:10005000430200084302000843020008430200086C
:10006000430200084302000843020008430200085C
:10007000450F000843020008550F0008430200081E
:10008000650F0008750F00084302000843020008CE
:10009000DD0A00084302000843020008430200088A
:1000A000430200084302000843020008430200081C
:1000B000F5700008430200084302000843020008EC
:1000C00043020008430200084302000843020008FC
:1000D00043020008797700088977000899770008BB
:1000E00043020008430200084302000843020008DC
:1000F00043020008430200084302000843020008CC
:1001000043020008430200084302000843020008BB
:1001100043020008430200084302000843020008AB
:1001200043020008850F0008950F000843020008ED
:100130004302000800000000000000004302000825
:10014000ED0A0008430200084302000843020008C9
:1001500043020008A50F000843020008A977000821
:10016000430200084302000843020008430200085B
:1001700043020008430200080000000000000000E5
:10018000430200084302000800F002F800F03CF8C7
:100190000AA090E8000C82448344AAF10107DA45E2
:1001A00001D100F031F8AFF2090EBAE80F0013F0F8
:1001B000010F18BFFB1A43F0010318479C9500007C
:1001C000BC950000103A24BF78C878C1FAD852070D
:1001D00024BF30C830C144BF04680C6070470000C1
:1001E0000023002400250026103A28BF78C1FBD840
:1001F000520728BF30C148BF0B6070471FB509F0D8
:10020000B0F91FBD10B510BD00F014F91146FFF78D
:10021000F5FF08F009FB00F032F903B4FFF7F2FF35
:1002200003BC00F035F90000094880470948004741
:10023000FEE7FEE7FEE7FEE7FEE7FEE7FEE7FEE796
:10024000FEE7FEE704480549054A064B70470000F3
:10025000E170000889010008B8180020B81E0020CD
:10026000B81A0020B81A002053EA020C00F0698086
:100270002DE9F04B4FF00006002B1FBFB3FA83F5BA
:1002800003FA05F424FA05F65E4012BF1643B2FAEB
:1002900082F502FA05F4C5F120051EBF22FA05FC1D
:1002A00044EA0C04203556EA044C4FEA144418BFC3
:1002B000641C4FF000084FF00009904271EB030CF2
:1002C00039D3002919BFB1FA81F701FA07F6B0FA5C
:1002D00080F700FA07F6C7F120071EBF20FA07FCD7
:1002E00046EA0C062037B6FBF4FCA7EB0507103FE7
:1002F00007F01F0BCBF120060CFA0BFB2CFA06F6CD
:1003000044BFB3460026202FA4BF5E464FF0000B2B
:100310005BEA060C08BF4FF0010B19EB0B09ABFBB6
:10032000027C48EB0608C01B06FB02CC0BFB03CC8F
:1003300071EB0C01C1E70B46024641464846BDE859
:10034000F08B13B54FF000004FF00001AFF30080C9
:10035000BDE81C40704710B5203AC0F00B80B1E8F2
:100360001850203AA0E81850B1E81850A0E81850EA
:10037000BFF4F5AF5FEA027C24BFB1E81850A0E8F3
:10038000185044BF18C918C0BDE810405FEA827C0D
:1003900024BF51F8043B40F8043B08BF7047D20724
:1003A00028BF31F8023B48BF11F8012B28BF20F8C5
:1003B000023B48BF00F8012B70474FF0000200B528
:1003C000134694469646203922BFA0E80C50A0E878
:1003D0000C50B1F12001BFF4F7AF090728BFA0E826
:1003E0000C5048BF0CC05DF804EB890028BF40F8F2
:1003F000042B08BF704748BF20F8022B11F0804F34
:1004000018BF00F8012B704770477047704710B550
:1004100000F008F8006810BD10B5044600F002F8BE
:10042000046010BD00487047541800200048704711
:10043000541800207546FFF7F9FFAE4605006946DF
:10044000534620F00700854618B020B5FFF7FAFEA6
:10045000BDE820404FF000064FF000074FF00008C5
:100460004FF0000B21F00701AC46ACE8C009ACE846
:10047000C009ACE8C009ACE8C0098D46704710B5AA
:100480000446AFF300802046BDE81040FFF7C5BE2C
:1004900001491820ABBEFEE72600020070470000AD
:1004A00010B506F0BFF81B491B4805F0E7F81B49DB
:1004B0001B4805F0E3F81B491B4805F0DFF81B4912
:1004C0001B4805F0DBF8142002F03CFDB0EE003ACA
:1004D000DFED182A9FED182ADFED181A9FED181A84
:1004E000DFED170ABFEE000A164804F069FE164950
:1004F000164804F007FA1449154804F003FA1549A0
:10050000154804F025FF15480078032800D000BFE7
:1005100010BD0000014F0008740200206957000858
:10052000E8020020918700085C030020DD870008B6
:10053000D00300200000FA440000B443000025442A
:1005400000000000E8060020A54C0008F80000208C
:100550005C010020996E0008C00100204C000020C2
:100560001E48D0ED040A1E4890ED001A70EEC10A34
:10057000B0EE600ADFED1B0AB4EEE00AF1EE10FA0D
:100580000BDD1648D0ED050A9FED171A30EE411A23
:1005900070EE810AC0ED050A19E0DFED140AB4EE31
:1005A000E00AF1EE10FA0BD20C48D0ED050A9FEDEF
:1005B0000E1A30EE011A70EE810AC0ED050A06E04F
:1005C0000648D0ED050A70EE800AC0ED050A034822
:1005D000D0ED040A0248C0ED000A7047C41700209D
:1005E00068000020000034430000B443000034C31E
:1005F00010B5A3480078B0B1A248007898B1A248DD
:10060000007880B9A148D0F85406A0F580509F49E1
:10061000C1F854069E480068A0F580509C490860C7
:100620000120994908709648007800287DD09548A7
:100630000078002879D197480078022803D096489E
:10064000007805280ED195480068B0F5FA6F09DAF0
:100650009248006840F2DC51884203DD0320904953
:10066000086015E08D48006840F2DC5188420CDAE1
:1006700088480078022803D105208949086007E0EE
:10068000854800788649086002E0002084490860B7
:100690008048007820B1012834D0022831D183E08D
:1006A0007E480068B0F5FA7F0DDB7C480068B0F545
:1006B0007A7F08DC012291027A4802F04FFD012086
:1006C000794908701DE075480068B0F57A7F0DDB48
:1006D00072480068B0F5FA6F08DC0122D102714857
:1006E00002F03CFD0120714908700AE06B48006887
:1006F00040F6B831884204DB6748007840006C4916
:100700000860A7E065480068B0F5FA7F0EDB634833
:100710000068B0F57A7F09DC01229102614802F09D
:100720001DFD0120604908703DE0A7E05B480068BE
:10073000B0F57A7F0DDB59480068B0F5FA6F08DC38
:100740000122D102574802F009FD012057490870E3
:1007500029E052480068B0F5FA6F0BDB4F4800689B
:1007600040F6B831884205DC4B48007840005049DB
:10077000086018E049480068B0F57A6F13DD4D480D
:10078000007880B94148D0F8540600F580503F49C0
:10079000C1F854063E48006800F580503C490860A6
:1007A00001204449087055E03B4800780A30404930
:1007B00008603A480068B0F5FA7F0DDB37480068FA
:1007C000B0F57A7F08DC01229102364802F0C6FCBF
:1007D0000120354908703CE030480068B0F57A7F68
:1007E0000DDB2E480068B0F5FA6F08DC0122D1025B
:1007F0002C4802F0B3FC01202C49087029E027485E
:10080000006840F6B83188420ADB24480068B0F539
:100810007A6F05DA2048007840002549086018E022
:100820001E480068B0F57A6F13DB1748007880B96E
:100830001648D0F8540600F500601449C1F8540673
:100840001348006800F500601149086001200E4956
:10085000087000BF00BF1148006841F27071884203
:1008600004DB06F02FFD0120064908700B480068E4
:10087000401C0A49086000200F49086010BD0000B4
:1008800075000020740000208B000020200700204D
:100890007800002070000020710000207C00002003
:1008A0009000002000040240880000208900002001
:1008B000980000208A0000208000002010B53B48EE
:1008C0000078C0B13A480078A8B900224FF480619E
:1008D000384802F043FC384800784000401E374951
:1008E00008600020364908703649086036490860BB
:1008F0003649087045E02E480078002841D0002194
:100900003348C0F854163048006840F2DC51884241
:1009100009DB2D48006840F6C411884203DC002042
:100920002649086022E02848006840F6C411884241
:100930000FDB2548006840F6B831884209DC002208
:100940004FF400611B4802F009FC002021490870A7
:100950000CE01D48006840F6AC51884206DB06F00A
:10096000B1FC15480078401C134908700020154957
:10097000086015480068401C1349086000201649AB
:1009800008700B48007838B10F480068B0F57A7FDE
:1009900002DC00F06FF901E000F0B0F806480078E2
:1009A000052802DD01200449087010BD72000020F6
:1009B0007300002000040240710000209800002015
:1009C000880000207C000020800000205E000020C5
:1009D00020070020890000207400002010B50020AE
:1009E0002E4908702E4908702E4908702E4908704B
:1009F0002E4908702E4908702E4908602E4908605B
:100A00002E4908602E49086000224FF480612D486D
:100A100002F0A4FB00224FF400612A4802F09EFB82
:100A200000202BE0C0EB4011274A32F9211001EBE6
:100A300081014900412291FBF2F100EE101AB8EE5B
:100A4000C00A224901EB800181ED000A0021C0EBC0
:100A500040121D4B03EB820291601C4901EB8001A7
:100A600091ED000ABDEEC00A10EE101A0AB2C0EBFA
:100A70004013174901EB83014A80401C0428D1DB55
:100A800014491148C0F8E014C0F85C1546F2A811EA
:100A9000C0F8D8150021C0F8541610BD5E00002023
:100AA0005D0000205C000020750000207200002026
:100AB000730000207C0000208000002090000020B7
:100AC0009800002000040240200700204418002065
:100AD0008C0900200CFEFFFF00BFFEE710B50248A6
:100AE00001F08EFC10BD0000F800002010B5024897
:100AF00001F086FC10BD00005C01002010B55048DC
:100B00000078012804D14FF482704E4908601EE03D
:100B10004B480078022803D1DC204A49086016E0DF
:100B200047480078032803D1B420464908600EE006
:100B300043480078042803D18D204249086006E02C
:100B40003F480078052802D16E203E4908603E48A3
:100B50000088B0F5B67F12DB3B48008840F2946114
:100B600088420CDC38490988A1F58061484208F0C8
:100B70002AF90A460146354800F5DA6006C03248CF
:100B80004088B0F5B67F0FDB2F48408840F2946173
:100B9000884209DC2C494988A1F5806008F013F9E6
:100BA0002A4A02F5D96203C227488088B0F5B67F89
:100BB0000FDB2548808840F29461884209DC224995
:100BC0008988A1F5806008F0FEF8204A02F5DB6212
:100BD00003C21F48006890B31E48006878B31E48DF
:100BE000007801282BD11A4800681A490968401A70
:100BF0000F2806D31748006815490968401A0F28BE
:100C000004D29FED160B174880EDB60B1048006814
:100C10000C490968884212D80E48006809490968D9
:100C200088420CD89FED0D0B0E4880EDB20B0120D1
:100C30000D49087000200D4908700D49087010BD5D
:100C40007100002014000020300000202007002048
:100C5000200000202400002074000020000000007C
:100C600000000000200B0020720000207300002014
:100C70007500002018480088B0F5B67F0ADB1648DA
:100C8000008840F29461884204DC9FED140B154803
:100C900080EDB40B10484088B0F5B67F0ADB0E48F3
:100CA000408840F29461884204DC9FED0F0B0D48B0
:100CB00080EDB20B08488088B0F5B67F0ADB0648A5
:100CC000808840F29461884204DC9FED040B054863
:100CD00080EDB60B704700003000002000000000DF
:100CE00000000000200B002000000000000069C090
:100CF00018480088B0F5B67F0ADB1648008840F235
:100D00009461884204DC9FED140B154880EDB40B10
:100D100010484088B0F5B67F0ADB0E48408840F2A4
:100D20009461884204DC9FED0C0B0D4880EDB20B02
:100D300008488088B0F5B67F0ADB0648808840F214
:100D40009461884204DC9FED040B054880EDB60BEE
:100D5000704700003000002000000000000000008C
:100D6000200B002010B52DED0C8B61498988A1F571
:100D7000806008F028F841EC1D0B9FED5E0B53ECF2
:100D8000102B07F05DFE41EC1C0B9FED5C0B53EC50
:100D9000102B08F07FF841EC1B0B9FED5A0B53EC26
:100DA000102B08F077F841EC1A0B9FED580B53EC21
:100DB000102B08F06FF841EC190B9FED560B53EC1C
:100DC000102B08F067F841EC180B544890ED000B1D
:100DD00053EC102B51EC180B07F07EFD4F4A03C269
:100DE0004E4890ED000B53EC102B9FED4D0B51EC4A
:100DF000100B08F04FF841EC190B07F03BFD08EE23
:100E0000100A494890ED050AB3EE041A20EE010AD3
:100E1000F0EE400AB0EE480A444804F0CFF84449E6
:100E200008600846006807F0CEFF424A02F5DB6220
:100E300003C2414890EDB41BB0EE410AF0EE610AE6
:100E40009FED2C1B53EC112B51EC100B07F0F8FD10
:100E500041EC180B9FED390B53EC102B08F01AF8EE
:100E6000344A02F5DA6203C2334890EDB21BB0EEA9
:100E7000410AF0EE610A9FED1F1B53EC112B51EC60
:100E8000100B07F0DDFD41EC180B9FED2C0B53EC24
:100E9000102B07F0FFFF274A02F5D96203C226484C
:100EA00090EDB61BB0EE410AF0EE610A9FED111B0A
:100EB00053EC112B51EC100B07F0C2FD41EC180B59
:100EC0009FED0E0B53EC102B07F0E4FF0A46014692
:100ED000184800F5DB6006C0164800F0EFF805F092
:100EE00037FF144805F078F8BDEC0C8B10BD0000FE
:100EF000300000200000000000A08440000000003E
:100F000000001440000000A099A94C40FCA9F1D2B7
:100F10004D62503F9A9999999999A93F08000020EC
:100F20000000000000003440C4170020E806002044
:100F30001000002020070020200B002000000000EF
:100F40000000F83F10B5024801F066FE10BD000039
:100F50006405002010B5024801F05EFE10BD0000DF
:100F6000C405002010B5024801F056FE10BD000077
:100F7000A404002010B5024801F04EFE10BD000090
:100F80000405002010B5024801F046FE10BD000027
:100F90002406002010B5024801F03EFE10BD0000FE
:100FA0004404002010B5024801F036FE10BD0000D8
:100FB000840600200146087810381823B0FBF3F2AD
:100FC0000848805CC865032A05D908686FF30900E2
:100FD000001D886503E008686FF309008865886D67
:100FE000704700008E950008014600208A6A8B69D0
:100FF000CBB932B1012A0DD0022A03D0032A10D175
:101000000EE000BFCB6A03F08073B3F1807F00D1A4
:10101000012007E0CB6AB3F1C07F00D1012001E0DD
:1010200000E000BF34E08B69B3F5005F1AD132B144
:10103000012A07D0022A03D0032A11D10AE000BFF7
:1010400001200EE0CB6A03F08073B3F1807F00D102
:10105000012006E0CB6AB3F1C07F00D1012000E09F
:1010600000BF15E032B1012A05D0022A04D0032ABC
:101070000CD103E000BF00BF012008E0CB6A03F001
:101080008073B3F1807F00D1012000E000BF00BF7A
:10109000704710B5046863608468402C04D104680C
:1010A000A2600468E16003E00468A1600468E26093
:1010B00010BD704772B600BFFEE7000001B58AB0F0
:1010C0000A9800F5806090EDB20B8DED020B0A9846
:1010D00000F5806090EDB20B8DED000B9DED020BE5
:1010E00053EC102B9DED000B51EC100B07F0D2FED2
:1010F000CDE906010A9800F5806090EDB40B8DED06
:10110000020B0A9800F5806090EDB40B8DED000B9A
:101110009DED020B53EC102B9DED000B51EC100BD1
:1011200007F0B8FECDE904019DED060B53EC102B42
:101130009DED040B51EC100B07F0CEFBCDE908013F
:101140009DED080B06F0C8FEFE4880ED000B0A98E6
:1011500000F5806090EDB20B8DED080B0A9800F55C
:10116000806090EDB40B8DED060B9DED081B9DEDA1
:10117000060B06F0E9FCF44880ED000B0020099016
:1011800012E00998C0EB40110A9800EB8100C0689A
:10119000C117089000EBD1404113EC4A099842F87E
:1011A00020100998401C099009980428E9DB0A9846
:1011B00000F5806090EDB60B8DED080B9FEDE40B14
:1011C00053EC102B9DED080B51EC100B07F090FD2C
:1011D0006CD10A9800F5806090EDB20B8DED080B94
:1011E0009FEDDB0B53EC102B9DED080B51EC100B1E
:1011F00007F07EFD11D10A9800F5806090EDB40BE8
:101200008DED080B9FEDD20B53EC102B9DED080BD1
:1012100051EC100B07F06CFD48D0CB4890ED000B63
:1012200051EC100B07F026FBCB490860C64890ED47
:10123000000B51EC100B07F01DFBC7494860C2487A
:1012400090ED000B51EC100B07F014FBC2498860C5
:10125000BD4890ED000B51EC100B07F00BFBBE49A5
:10126000C860B84890ED000B51EC100B07F002FB82
:10127000BA490860B34890ED000B51EC100B07F031
:10128000F9FAB6494860AF4890ED000B51EC100BED
:1012900007F0F0FAB1498860AA4890ED000B51ECD4
:1012A000100B07F0E7FAAD49C86067E30A9800F54C
:1012B000806090EDB60B8DED080B9FEDA50B53EC08
:1012C000102B9DED080B51EC100B07F011FD7CD09D
:1012D0000A9800F5806090EDB20B8DED080B9FED44
:1012E0009C0B53EC102B9DED080B51EC100B07F0F1
:1012F000FFFC72D10A9800F5806090EDB40B8DED83
:10130000080B9FED930B53EC102B9DED080B51EC4C
:10131000100B07F0EDFC60D19FED910B06F0DCFDAA
:101320008DED080B0A9800F5806090EDB60B8DED01
:10133000060B9DED060B53EC102B9DED080B51ECAD
:10134000100B07F0A7FD7F4A03C27E4890ED000B0B
:1013500051EC100B07F08EFA80490860794890ED47
:10136000000B51EC100B07F085FA7C49486075487A
:1013700090ED000B51EC100B07F070FACDE908016D
:101380009DED080B51EC100B07F074FA734988605F
:101390006C4890ED000B51EC100B07F05FFACDE9B3
:1013A00008019DED080B51EC100B07F063FA6B4937
:1013B000C8609FED6D0A684880ED000A9FED6B0ADA
:1013C00080ED010A9FED690A00E006E080ED020A67
:1013D0009FED650A80ED030AD0E20A9800F580606F
:1013E00090EDB60B8DED080B9FED590B53EC102BC8
:1013F0009DED080B51EC100B07F07AFC7DD00A989C
:1014000000F5806090EDB20B8DED080B9FED500B59
:1014100053EC102B9DED080B51EC100B07F068FC02
:1014200011D10A9800F5806090EDB40B8DED080B9A
:101430009FED470B53EC102B9DED080B51EC100B5F
:1014400007F056FCDAD00A9800F5806090EDB60BF4
:101450008DED060B9DED060B53EC102B394890EDEE
:10146000000B51EC100B07F0EBFA9FED390B53EC2E
:10147000102BCDE908019DED080B51EC100B07F086
:1014800007FE12D20A9800F5806090EDB60B8DED44
:10149000080B9DED080B53EC102B2A4890ED000B28
:1014A00051EC100B07F0CCFA19E00A9800F58060B7
:1014B00090EDB60B8DED060B9DED060B53EC102B4E
:1014C000204890ED000B51EC100B07F0B9FACDE974
:1014D00008019DED080B51EC100B07F0BFF9244AF1
:1014E00003C2194890ED000B51EC100B07F0B6F950
:1014F000CDE904019DED040B00E0FDE306F088FC5E
:101500008DED060B1A4890ED000B53EC102B9DED62
:10151000060B51EC100B07F0BDFCCDE908019DED69
:10152000080B51EC100B07F0A5F9124908600648AA
:1015300090ED000B06F008FC8DED060B0C4890EDCD
:10154000000B19E0B0000020B8000020281800208F
:101550000000000000000000E0170020F417002049
:10156000000000000000C03FD00F49BFD00F493F2E
:10157000C0000020CC00002053EC102B9DED060B8A
:1015800051EC100B07F086FCCDE908019DED080B2E
:1015900051EC100B07F06EF9F94908600A9800F554
:1015A000806090EDB60B8DED080B1FED170B53EC23
:1015B000102B9DED080B51EC100B07F02FFC7CD28B
:1015C000EF4890ED000AF5EE000A30EE200A8DEDAE
:1015D000030A039807F054FFCDE90601E94890EDAE
:1015E000000AF5EE000A30EE200A8DED030A03989A
:1015F00007F046FFCDE904019DED061B9DED040BB0
:1016000006F0A2FA8DED080B9DED080B51EC100BC6
:1016100007F030F9DC49C860D94890ED000AF5EED2
:10162000000A30EE200A8DED010A019807F028FF2C
:10163000CDE90401D34890ED000AF5EE000A30EE42
:10164000600A8DED010A019807F01AFFCDE9020149
:101650009DED041B9DED020B06F076FA8DED060B59
:101660009DED060B51EC100B07F0F8F8CDE90801E1
:101670009DED080B51EC100B07F0FCF8C249886097
:10168000BF4890ED000AF5EE000A30EE600A8DEDDD
:10169000010A019807F0F4FECDE90401B94890ED84
:1016A000000AF5EE000A30EE200A8DED010A0198DD
:1016B00007F0E6FECDE9020100E06DE19DED041BBF
:1016C0009DED020B06F040FA8DED060B9DED060B2D
:1016D00051EC100B07F0C2F8CDE908019DED080BA5
:1016E00051EC100B07F0C6F8A7494860A44890EDEC
:1016F000000AF5EE000A30EE600A8DED030A039849
:1017000007F0BEFECDE906019E4890ED000AF5EE19
:10171000000A30EE600A8DED030A039807F0B0FE70
:10172000CDE904019DED061B9DED040B06F00CFABE
:101730008DED080B9DED080B51EC100B07F09AF89E
:10174000914908608E4890ED000AF5EE000A30EEEF
:10175000200A20EE000A8B48D0ED000AB5EE001AF0
:1017600070EE810A90ED001AF5EE001A31EE211AA2
:1017700000EE810A8DED010A019807F081FECDE9A6
:1017800002019DED020B06F0A7FB8DED040B7F48D7
:1017900090ED000B53EC102B9DED040B51EC100B56
:1017A00007F04EF9CDE90601794890ED000B53ECB6
:1017B000102B9DED060B51EC100B07F06BFBCDE9E8
:1017C00008019DED080B51EC100B07F053F871491F
:1017D00088606B4890ED000AF5EE000A30EE200AB2
:1017E00020EE000A6748D0ED000AB5EE001A70EE50
:1017F000C10A90ED001AF5EE001A31EE611A00EE02
:10180000810A8DED010A019807F03AFECDE9020147
:101810009DED020B06F060FB8DED040B5B4890ED37
:10182000000B53EC102B9DED040B51EC100B07F04B
:1018300007F9CDE90601564890ED000B53EC102B4B
:101840009DED060B51EC100B07F024FBCDE90801D0
:101850009DED080B51EC100B07F00CF84D49C860DA
:10186000474890ED000AF5EE000A30EE600A20EEDF
:10187000000A4448D0ED000AB5EE001A70EE810A65
:1018800090ED001AF5EE001A31EE211A00EE810AF1
:101890008DED010A019807F0F3FDCDE902019DED00
:1018A000020B06F019FB8DED040B384890ED000B90
:1018B00053EC102B9DED040B51EC100B07F0C0F80E
:1018C000CDE90601324890ED000B53EC102B9DED55
:1018D000060B51EC100B07F0DDFACDE908019DED88
:1018E000080B51EC100B06F0C5FF2A49086024488C
:1018F00090ED000AF5EE000A30EE600A20EE000AD4
:101900002048D0ED000AB5EE001A70EEC10A90ED45
:10191000001AF5EE001A31EE611A00EE810A8DED23
:10192000010A019807F0ACFDCDE902019DED020B23
:1019300006F0D2FA8DED040B144890ED000B53EC39
:10194000102B9DED040B51EC100B07F079F8CDE94D
:1019500006010F4890ED000B53EC102B9DED060B8C
:1019600051EC100B07F096FACDE908019DED080B3C
:1019700051EC100B06F07EFF0649486019E20000AA
:10198000C8000020CC000020E0170020C00000208C
:10199000B0000020F4170020F74890ED000AF5EEA3
:1019A000000A30EE200A8DED010A019807F068FD6B
:1019B000CDE90401F148D0ED000AB5EE000A30EEA1
:1019C000800A8DED010A019807F05AFDCDE9020168
:1019D0009DED041B9DED020B06F0B6F88DED060B98
:1019E0009DED060B51EC100B06F038FFCDE9080118
:1019F0009DED080B51EC100B06F03CFFE049086030
:101A0000DD4890ED000AF5EE000A30EE200A8DED7B
:101A1000010A019807F034FDCDE90401D748D0ED63
:101A2000000AB5EE000A30EEC00A8DED010A0198F9
:101A300007F026FDCDE902019DED041B9DED020B93
:101A400006F082F88DED060B9DED060B51EC100BA8
:101A500006F004FFCDE908019DED080B51EC100BD9
:101A600006F008FFC6494860C34890ED000AF5EE4D
:101A7000000A30EE600A8DED010A019807F000FDC2
:101A8000CDE90401BD4890ED000AF5EE000A30EE04
:101A9000200A8DED010A019807F0F2FCCDE9020160
:101AA0009DED041B9DED020B06F04EF88DED060B2F
:101AB0009DED060B51EC100B06F0D0FECDE90801B0
:101AC0009DED080B51EC100B06F0D4FEAC4988607C
:101AD000A94890ED000AF5EE000A30EE600A8DED9F
:101AE000010A019807F0CCFCCDE90401A348D0ED30
:101AF000000AB5EE000A30EEC00A8DED010A019829
:101B000007F0BEFCCDE902019DED041B9DED020B2B
:101B100006F01AF88DED060B9DED060B51EC100B3F
:101B200006F09CFECDE908019DED080B51EC100B71
:101B300006F0A0FE9249C8608F4890ED000AF5EECD
:101B4000000A30EE200A20EE000A8C48D0ED000A90
:101B5000B5EE001A70EE810A90ED001AF5EE001A4B
:101B600031EE211A00EE810A8DED010A019807F08D
:101B700087FCCDE902019DED020B06F0ADF98DED7C
:101B8000040B804890ED000B53EC102B9DED040BE3
:101B900051EC100B06F054FFCDE906017A4890EDA8
:101BA000000B53EC102B9DED060B51EC100B07F0C6
:101BB00071F9CDE908019DED080B51EC100B06F011
:101BC00059FE724908606C4890ED000AF5EE000A73
:101BD00030EE200A20EE000A6848D0ED000AB5EE8B
:101BE000001A70EEC10A90ED001AF5EE001A31EEFF
:101BF000611A00EE810A8DED010A019807F040FCA0
:101C0000CDE902019DED020B06F066F98DED040BA6
:101C10005C4890ED000B53EC102B9DED040B51EC48
:101C2000100B06F00DFFCDE90601574890ED000BB3
:101C300053EC102B9DED060B51EC100B07F02AF91D
:101C4000CDE908019DED080B51EC100B06F012FEDA
:101C50004E494860484890ED000AF5EE000A30EE23
:101C6000600A20EE000A4548D0ED000AB5EE001AE1
:101C700070EE810A90ED001AF5EE001A31EE211A8D
:101C800000EE810A8DED010A019807F0F9FBCDE91C
:101C900002019DED020B06F01FF98DED040B394892
:101CA00090ED000B53EC102B9DED040B51EC100B41
:101CB00006F0C6FECDE90601334890ED000B53EC6B
:101CC000102B9DED060B51EC100B07F0E3F8CDE95E
:101CD00008019DED080B51EC100B06F0CBFD2B49D4
:101CE0008860254890ED000AF5EE000A30EE600AA3
:101CF00020EE000A214800E04AE0D0ED000AB5EEEF
:101D0000001A70EEC10A90ED001AF5EE001A31EEDD
:101D1000611A00EE810A8DED010A019807F0B0FB0F
:101D2000CDE902019DED020B06F0D6F88DED040B16
:101D3000144890ED000B53EC102B9DED040B51EC6F
:101D4000100B06F07DFECDE906010F4890ED000B6B
:101D500053EC102B9DED060B51EC100B07F09AF88D
:101D6000CDE908019DED080B51EC100B06F082FD4A
:101D70000649C8601DE00000C8000020CC0000201B
:101D8000E0170020C0000020B0000020F417002061
:101D90009FED750A754880ED000A9FED730A80ED8E
:101DA000010A9FED710A80ED020A9FED6F0A80ED36
:101DB000030A6E4890ED000A8DED090A9DED090AAF
:101DC00005F0FCFC6A4880ED000A684890ED010AC5
:101DD0008DED090A9DED090A05F0F0FC644880EDDF
:101DE000010A624890ED020A8DED090A9DED090A8B
:101DF00005F0E4FC5E4880ED020A5C4890ED030AC1
:101E00008DED090A9DED090A05F0D8FC584880EDD2
:101E1000030A584890ED000A8DED090A9DED090A64
:101E200004F0C0FF54480168132091FBF0F000EB70
:101E300080004100412091FBF0F0400300EE900A49
:101E4000F8EEE00A30EE200ADFED4C0A20EE200A20
:101E5000F2EE040A80EE201AB3EE030A21EE000A25
:101E6000434880ED040A434890ED010A8DED090ACC
:101E70009DED090A04F096FF3F484068132190FB4E
:101E8000F1F000EB80004000412190FBF1F04003B5
:101E900000EE900AF8EEE00A30EE200ADFED370A95
:101EA00020EE200AF2EE040A80EE201AB3EE030AB6
:101EB00021EE000A2E4880ED050A2E4890ED020A18
:101EC0008DED090A9DED090A04F06CFF2A4881682E
:101ED000132091FBF0F000EB80004000412190FBCB
:101EE000F1F0400300EE900AF8EEE00A30EE200A2E
:101EF000DFED220A20EE200AF2EE040A80EE201A1C
:101F0000B3EE030A21EE000A194880ED060A1948CB
:101F100090ED030A8DED090A9DED090A04F042FFD8
:101F20001548C068132190FBF1F000EB80004000E1
:101F3000412190FBF1F0400300EE900AF8EEE00A38
:101F400030EE200ADFED0D0A20EE200AF2EE040A40
:101F500080EE201AB3EE030A21EE000A044880ED59
:101F6000070A0BB000BD000000000000F4170020BD
:101F700008180020E01700202818002000008242E6
:101F800010B5024692F82030012B01D0022B06D169
:101F900010684069084314686061002010BD506AF1
:101FA00040F4802050620120F8E7F0B504460D4669
:101FB0001E4694F8207020688368A86800B900E085
:101FC00000BF012F01D0022F7CD103F0806030B917
:101FD00003F0006018B903F08050002873D0C3F3F9
:101FE0000161022905D9606A40F4000060620120A5
:101FF000F0BD012088403060A86860B9B5F800C025
:10200000E86840EA4C5C206800F5C07000EB011005
:10201000C0F800C00FE0D5E901C040EACC00D5F817
:102020000CC040EA0C00D4F800C00CF5C07C0CEBEE
:10203000011CCCF80000D5F810C0206800F5C07075
:1020400000EB0110C0F804C0287D01280ED12068E3
:1020500000F5C07000EB0110406840F4807C2068FF
:1020600000F5C07000EB0110C0F804C0D079000684
:1020700092F806C040EA0C4092F805C040EA0C2CE9
:1020800010794CEA000C206800F5C07000EB0110DC
:10209000C0F80CC0D078000692F802C040EA0C40AC
:1020A00092F801C040EA0C2092F800C040EA0C000F
:1020B000D4F800C00CF5C07C0CEB011CCCF8080077
:1020C000206801E016E00FE000F5C07000EB0110A1
:1020D000006840F0010C206800F5C07000EB0110B2
:1020E000C0F800C0002083E7606A40F4001060621E
:1020F00001207DE7606A40F480206062012077E77C
:10210000F0B504460A46216894F82050012D01D00C
:10211000022D7ED1424901F50071086840F00100AE
:102120000860086820F47C5008600868566A40EA35
:1021300006200860107D00F01F06012000FA06F35B
:10214000C8699843C861A1F50071D069C8B9D1F8D0
:102150000C029843C1F80C02908880B2968940EA3C
:10216000064601F51070576940F83760108880B254
:10217000168940EA064601F51070576900EBC70062
:102180004660D069012819D1D1F80C021843C1F872
:102190000C02908880B2168840EA064601F510705D
:1021A000576940F83760908980B2168940EA064640
:1021B00001F51070576900EBC7004660906928B9B7
:1021C000D1F804029843C1F8040204E0D1F80402F3
:1021D0001843C1F80402106928B9D1F814029843D1
:1021E000C1F8140204E0D1F814021843C1F8140233
:1021F000106A012804D1D1F81C021843C1F81C024E
:10220000D1F8000220F00100C1F800020020F0BD6A
:10221000FFE7606A40F4802060620120F7E7000079
:102220000064004010B5024692F82030012B01D026
:10223000022B06D110684069884314686061002051
:1022400010BD506A40F4802050620120F8E77047CA
:1022500070B5044694F82050012D01D0022D7DD197
:1022600051B92068C06800F0030080B9606A40F48A
:1022700000106062012070BD2068006900F003005A
:1022800028B9606A40F4001060620120F3E720681A
:1022900000F5D87000EB0110006800F004009060B9
:1022A000906840B9206800F5D87000EB0110006814
:1022B000400D106007E0206800F5D87000EB0110B9
:1022C0000068C0085060206800F5D87000EB01106D
:1022D000006800F00200D060206800F5D87000EBC4
:1022E0000110406800F00F001061206800F5D87000
:1022F00000EB0110406800F47F40000A9061206804
:1023000000F5D87000EB01104068000C50612068A7
:1023100000F5D87000EB011080681870206800F597
:10232000D87000EB0110806800F47F40000A5870FC
:10233000206800F5D87000EB0110806800F47F0081
:10234000000C9870206800F5D87000EB01108068D0
:10235000000ED870206800F5D87000E02FE000EB88
:102360000110C0681871206800F5D87000EB0110EA
:10237000C06800F47F40000A5871206800F5D870EA
:1023800000EB0110C06800F47F00000C9871206819
:1023900000F5D87000EB0110C068000ED87131B99B
:1023A0002068C06840F020002668F06005E02068E2
:1023B000006940F020002668306100205BE7606A19
:1023C00040F480206062012055E70146002091F82A
:1023D0002020012A01D0022A11D10B689B6803F04A
:1023E000806303B1401C0B689B6803F0006303B17A
:1023F000401C0B689B6803F0805303B1401C70477E
:102400002DE9F05F04460025206846692068D0F871
:102410000490206887682068D0F80CA02068D0F865
:1024200010B02068D0F8188006F00100002855D0C0
:1024300007F00100C0B101202168886007F00200A8
:1024400018B12046A16A88470EE007F0040010B1D9
:1024500045F4006508E007F0080010B145F4805528
:1024600002E02046616B884707F48070C8B14FF4E2
:1024700080702168886007F4007018B12046E16A16
:1024800088470EE007F4806010B145F4005508E07D
:1024900007F4006010B145F4804502E02046A16BCE
:1024A000884707F48030C8B14FF4803021688860D5
:1024B00007F4003018B12046216B88470EE007F47E
:1024C000802010B145F4004508E007F4002010B169
:1024D00045F4803502E02046E16B884706F00800AD
:1024E00038B10AF0100020B145F4007510202168C1
:1024F000C86006F0040040B10AF0080028B10820C6
:102500002168C8602046616C884706F0020038B137
:102510002068C06800F0030010B12046216C884795
:1025200006F0400038B10BF0100020B145F4806592
:1025300010202168086106F0200040B10BF008006F
:1025400028B10820216808612046E16C884706F020
:10255000100038B12068006900F0030010B1204677
:10256000A16C884706F4003040B109F0100028B192
:102570001020216848602046216D884706F480308D
:1025800040B109F0080028B10820216848602046C1
:10259000616D884706F4004088B309F0040078B301
:1025A00006F4807020B108F0010008B145F0010583
:1025B00006F4007020B108F0020008B145F00205F1
:1025C00006F4806020B108F0040008B145F004056D
:1025D00006F40060A0B108F0700088B108F0700047
:1025E000402817D006DC10280BD020280CD030282B
:1025F00019D10CE0502810D0602814D110E01DE053
:1026000019E045F008050FE045F010050CE045F035
:10261000200509E045F0400506E045F0800503E0AF
:1026200045F4807500E000BF00BF2068806920F09D
:102630007000216888610420216848602DB1606ABB
:10264000284360622046A16D8847BDE8F09F0000E6
:1026500070B504460CB9012070BD94F82000002824
:1026600020D168482064684860646848A06468486D
:10267000E0646848A0626848E0626848206368488F
:1026800060636848A0636848E063684820656848FC
:1026900060656848A065E06D08B96748E065204658
:1026A000E16D88472068006840F0010021680860FB
:1026B00000F05AFD05460DE000F056FD401B0A28CB
:1026C00008D9606A40F400306062052084F8200078
:1026D0000120C1E72068406800F001000028EBD02D
:1026E0002068006820F002002168086000F03CFDCE
:1026F00005460DE000F038FD401B0A2808D9606A45
:1027000040F400306062052084F820000120A3E737
:102710002068406800F002000028EBD1207E0128EC
:1027200006D12068006840F080002168086005E05C
:102730002068006820F0800021680860607E012821
:1027400006D12068006840F040002168086005E07C
:102750002068006820F0400021680860A07E012801
:1027600006D12068006840F020002168086005E07C
:102770002068006820F0200021680860E07E0128C1
:1027800006D12068006820F010002168086005E08C
:102790002068006840F0100021680860207F012850
:1027A00006D12068006840F008002168086005E054
:1027B0002068006820F0080021680860607F012818
:1027C00006D12068006840F004002168086005E038
:1027D0002068006820F0040021680860D4E9020144
:1027E000084321690843616908436168491E084339
:1027F0002168C86100206062012084F82000002068
:102800002AE70000552A0008532A0008592A000820
:10281000572A0008BD2A0008C12A0008C52A000856
:10282000BB2A0008BF2A0008C32A00085B2A000848
:10283000C72A00084F2200083D28000810B586B0BE
:102840000446142101A8FDF7B8FD4F4920688842CD
:1028500042D14E480068401C4C4908600846006858
:1028600001280FD100BF002000904948006840F0C7
:102870000070474908600846006800F0007000904A
:1028800000BF00BF00BF0020009041481038006822
:1028900040F001003E49103908600846006800F029
:1028A0000100009000BF00BF4FF4C0500190022013
:1028B000029000200390032004900920059001A9B4
:1028C000344800F053FB00220521142000F0D6FC10
:1028D000142000F0C3FC54E02F492068884250D1F6
:1028E00000BF002000902A48006840F0806028491E
:1028F00008600846006800F08060009000BF00BFDC
:1029000022480068401C21490860084600680128E8
:102910000FD100BF002000901D48006840F00070FB
:102920001B4908600846006800F00070009000BF76
:1029300000BF00BF0020009015481038006840F02C
:1029400002001349103908600846006800F00200D0
:10295000009000BF00BF6020019002200290002084
:102960000390032004900920059001A90B4800F072
:10297000FDFA00220521402000F080FC402000F0FC
:102980006DFC06B010BD0000006400400000002097
:10299000403802400000024000680040000402404D
:1029A00010B5034600242AB9586A40F480005862E2
:1029B000012010BD93F82000012830D10F2927D223
:1029C000DFE801F0080A0C0E10121416181A1C1E6B
:1029D000202224009A6221E0DA621FE01A631DE0DF
:1029E0005A631BE09A6319E0DA6317E01A6415E092
:1029F0005A6413E09A6411E0DA640FE01A650DE09E
:102A00005A650BE09A6509E0DA6507E01A6605E0A9
:102A1000586A40F480005862012400BF17E093F820
:102A2000200078B90D2902D00E2904D101E0DA6521
:102A300007E01A6605E0586A40F4800058620124F5
:102A400000BF04E0586A40F4800058620124204628
:102A5000AFE77047704770477047704770B50446DE
:102A600094F82000012822D1022084F82000206858
:102A7000006820F001002168086000F075FB054641
:102A80000DE000F071FB401B0A2808D9606A40F491
:102A900000306062052084F82000012070BD2068AD
:102AA000406800F001000028EBD16062F6E7606A40
:102AB00040F4002060620120F0E7704770477047E3
:102AC00070477047704770472DE9F04704460E463F
:102AD00017461D46DDF820804FF00009A0688028C9
:102AE00004D1400060654FF0010929E000BF94F86F
:102AF0003400012802D10220BDE8F087012084F8CB
:102B0000340000BF94F83500012817D1022084F862
:102B100035002068006840F4802021680860206843
:102B2000056143463A4631462046FEF7B2FA206830
:102B3000006840F001002168086001E04FF00209E0
:102B40004846D9E770B50446A56D00F00DFB064672
:102B500094F83500022808D08020606500BF00206E
:102B600084F8340000BF012070BD2068006820F0A8
:102B70001600216808602068406920F08000216804
:102B80004861206C08B9A06C28B12068006820F06A
:102B90000800216808602068006820F001002168B2
:102BA000086010E000F0E0FA801B05280BD9202017
:102BB0006065032084F8350000BF002084F83400ED
:102BC00000BF0320D0E72068006800F00100002863
:102BD000E8D194F85C103F208840A860012084F878
:102BE000350000BF002084F8340000BF00BFBBE701
:102BF000014691F83500022803D080204865012065
:102C00007047052081F835000868006820F0010051
:102C10000A6810600020F3E7F8B504460020009031
:102C20008C4800684FF41651B0FBF1F7A56D2E6883
:102C300094F85C1008208840304098B12068006803
:102C400000F0040070B12068006820F004002168E2
:102C5000086094F85C1008208840A860606D40F01F
:102C60000100606594F85C1001208840304068B134
:102C70002068406900F0800040B194F85C100120A9
:102C80008840A860606D40F00200606594F85C10B8
:102C900004208840304068B12068006800F00200DD
:102CA00040B194F85C1004208840A860606D40F04A
:102CB0000400606594F85C1010208840304078B3C0
:102CC0002068006800F0080050B394F85C101020F1
:102CD0008840A8602068006800F4802080B12068E7
:102CE000006800F4002028B9206CC8B12046216C8F
:102CF000884715E0A06C98B12046A16C88470FE08A
:102D00002068006800F4807028B92068006820F00E
:102D1000080021680860206C10B12046216C8847AB
:102D200094F85C10202088403040002865D020684E
:102D3000006800F0100000285FD094F85C1020209C
:102D40008840A86094F83500052828D120680068DC
:102D500020F01600216808602068406920F080009B
:102D600021684861206C08B9A06C28B1206800680F
:102D700020F008002168086094F85C103F2088402B
:102D8000A860012084F8350000BF002084F83400DA
:102D900000BF206D10B12046216D8847F8BD206826
:102DA000006800F4802080B12068006800F40020F2
:102DB00028B9606C10B12046616C88471DE0E06B5B
:102DC000D8B12046E16B884717E02068006800F41E
:102DD000807068B92068006820F0100021680860E1
:102DE000012084F8350000BF002084F8340000BFC3
:102DF000E06B10B12046E16B8847606D38B3606DC1
:102E000000F00100F0B1052084F83500206800686A
:102E100020F001002168086000BF0098401C00906D
:102E2000B84200D905E02068006800F001000028E1
:102E3000F3D100BF012084F8350000BF002084F8E2
:102E4000340000BFE06C10B12046E16C884700BF41
:102E5000A4E70000040000202DE9F041044600250D
:102E600000F082F9074614B90120BDE8F081606ADC
:102E700000B100BF022084F8350000BF002084F8B4
:102E8000340000BF2068006820F00100216808605D
:102E90000AE000F069F9C01B052805D9202060650B
:102EA000032084F83500E0E72068006800F00100A6
:102EB0000028EED12068056821480540D4E90101C9
:102EC0000843E16808432169084361690843A1692F
:102ED0000843E1690843216A08430543606A0428FE
:102EE00003D1D4E90B01084305432068056020683D
:102EF000456925F00705606A0543606A04280DD11D
:102F0000A06A0543E06A48B12046FEF76DF828B193
:102F100040206065012084F83500A6E720684561FF
:102F20002046FEF747F8064694F85C103F2088409C
:102F3000B06000206065012084F83500002094E72F
:102F40003F8010F070B5044600F00EF906462546A5
:102F5000681C10B104480078054400BF00F004F973
:102F6000801BA842FAD370BDF4000020F8B50246D9
:102F70000B460025002400200021D5E0012606FA9A
:102F800001F51E6806EA0504AC4274D11E7906F00C
:102F90000306012E04D01E7906F00306022E13D17B
:102FA00090684F000326BE40B0434F00DE68BE402D
:102FB00030439060506801268E40B0431E79C6F3BE
:102FC00000168E40304350601E7906F00306032E33
:102FD00009D0D0684F000326BE40B0434F009E6822
:102FE000BE403043D0601E7906F00306022E13D196
:102FF000CF0802F1200656F827004E07F70E0F26DD
:10300000BE40B0434F07FF0E1E69BE403043CF089D
:1030100002F1200646F8270010684F000326BE4044
:10302000B0431E7906F003064F00BE4030431060E7
:103030005E6806F44036002E75D000BF002600966C
:103040003B4E366846F48046394F3E603E46366811
:1030500006F48046009600BF00BF364E8F0856F833
:1030600027008E07370F0F26BE40B043324EB242C4
:1030700002D1002624E056E0304EB24201D10126B2
:103080001EE02F4EB24201D1022619E02D4EB2426F
:1030900001D1032614E02C4EB24201D104260FE0E8
:1030A0002A4EB24201D105260AE0294EB24201D190
:1030B000062605E0274EB24201D1072600E0082689
:1030C0008F073F0FBE4030431A4E8F0846F8270047
:1030D000214E3068A0435E6806F4803606B1204376
:1030E0001D4E3060361D3068A0435E6806F4003621
:1030F00006B12043184E361D3060361D3068A0439F
:103100005E6806F4801606B12043134E0836306020
:10311000361D3068A0435E6806F4001606B12043F1
:103120000D4E0C363060491C1029FFF427AFF8BD56
:1031300044380240083801400000024000040240C8
:1031400000080240000C024000100240001402403F
:1031500000180240001C0240003C01400AB181619D
:1031600001E00B048361704701480068704700006C
:10317000EC0000200348006803490978084401492D
:1031800008607047EC000020F400002010B50D48E6
:10319000006840F400700B4908600846006840F47D
:1031A000806008600846006840F480700860032072
:1031B00000F0A2F80F2000F007F800F02BF8002034
:1031C00010BD0000003C024070B504460E48007877
:1031D0004FF47A71B1FBF0F00C490968B1FBF0F5DE
:1031E000284600F02BFC08B1012070BD102C07D23E
:1031F00000222146501E00F041F80548046001E01D
:103200000120F2E70020F0E7F40000200400002095
:10321000F000002008B500BF002000900E480068B4
:1032200040F480400C4908600846006800F4804083
:10323000009000BF00BF00BF00200090081F006882
:1032400040F08050091F08600846006800F0805078
:10325000009000BF00BF08BD443802400146084648
:10326000002809DB00F01F0301229A4043099B005C
:1032700003F1E023C3F8002100BF70472DE9F05FA0
:1032800080460D461646002704F0D4FA0746394614
:103290002A46334601F00700C0F1070ABAF1040FCD
:1032A00002D94FF0040A01E0C0F1070AD14600F14B
:1032B000040ABAF1070F02D24FF0000A01E0A0F1B0
:1032C000030AD4464FF0010A0AFA09FAAAF1010AE0
:1032D0000AEA020A0AFA0CFA4FF0010B0BFA0CFB8D
:1032E000ABF1010B0BEA030B4AEA0B042146404603
:1032F00004F0A8FABDE8F09F00BF00F00702064BFB
:1033000019684FF6FF031940044B0B4343EA0221AF
:10331000014B196000BF70470CED00E00000FA059A
:1033200070B504460D460CB9012070BD58480068C0
:1033300000F00700A84209D255490D700846006800
:1033400000F00700A84201D00120EEE7207800F04D
:10335000020002281DD1207800F00400042805D1C5
:103360004C48006840F4E0504A490860207800F07A
:103370000800082805D14748006840F460404549E6
:1033800008604448006820F0F000A1680843414903
:103390000860207800F00100A8B36068012807D118
:1033A0003C4808380068C0F34040B8B90120BCE789
:1033B0006068022802D06068032807D135480838C1
:1033C0000068C0F3406048B90120AEE731480838D2
:1033D0000068C0F3400008B90120A6E72D48006846
:1033E00020F00300616808432A490860FFF7BCFE2B
:1033F000064609E0FFF7B8FE801B41F2883188429B
:1034000002D9032091E707E02248006800F00C0091
:103410006168B0EB810FEDD11D48006800F0070036
:10342000A84209D91A490D700846006800F0070043
:10343000A84201D0012078E7207800F00400042899
:1034400007D11448006820F4E050E16808431149AE
:103450000860207800F00800082808D10D480068AE
:1034600020F46040216940EAC1000A49086000F088
:103470003FF808490968C1F30311074A515CC84085
:103480000649086006480068FFF79EFE00204CE7EA
:10349000003C0240083802407695000804000020F5
:1034A000F000002001480068704700000400002080
:1034B00000B5FFF7F7FF04490968C1F38221034A09
:1034C000515CC84000BD00000838024086950008E5
:1034D00000B5FFF7E7FF04490968C1F34231034A29
:1034E000515CC84000BD00000838024086950008C5
:1034F0002DE9F047002400250026A1462548006854
:1035000000F00C0020B1042805D008283AD105E0CD
:10351000DFF8849039E0DFF8849036E01D48001F22
:10352000006800F03F041B48001F006800F48000A2
:1035300078B11A481749091F0968C1F38811A0FB1F
:1035400001700146224600233846FCF78DFE0546F1
:103550000EE011480F49091F0968C1F38811A0FB4B
:1035600001700146224600233846FCF77DFE0546E1
:103570000848001F0068C0F30140401C4600B5FB2E
:10358000F6F902E0DFF8109000BF00BF4846BDE842
:10359000F0870000083802400024F40000127A008E
:1035A000F8B504460CB90120F8BD207800F0010000
:1035B000002874D0F948006800F00C0004280DD0F1
:1035C000F648006800F00C00082813D1F348001FEB
:1035D000006800F48000B0F5800F0BD1EF48083888
:1035E0000068C0F34040002859D06068002856D1D8
:1035F0000120D9E700BF6068B0F5803F08D1E748F7
:103600000838006840F48030E449083908601EE05A
:103610006068B0F5A02F0DD1E0480838006840F48C
:103620008020DE49083908600846006840F4803090
:1036300008600CE0D9480838006820F48030D74989
:10364000083908600846006820F48020086000BF40
:10365000606890B1FFF788FD054606E0FFF784FD3E
:10366000401B642801D903209EE7CC480838006835
:10367000C0F340400028F1D011E0FFF775FD05468A
:1036800006E0FFF771FD401B642801D903208BE79A
:10369000C24808380068C0F340400028F1D12078C3
:1036A00000F0020002285FD1BC48006800F00C0066
:1036B00058B1BA48006800F00C0008281CD1B7487F
:1036C000001F006800F48000B0B9B44808380068F2
:1036D000C0F3400020B1E068012801D0012063E779
:1036E000AE480838006820F0F800216940EAC100BF
:1036F000AA490839086037E0E06800B30120A8490A
:103700000860FFF731FD054606E0FFF72DFD401B81
:10371000022801D9032047E7A04808380068C0F311
:1037200040000028F1D09D480838006820F0F800DB
:10373000216940EAC10099490839086014E0002075
:1037400097490860FFF710FD054606E0FFF70CFDFE
:10375000401B022801D9032026E79048083800685A
:10376000C0F340000028F1D1207800F008000828BC
:103770002CD16069A8B101208A490860FFF7F4FCE8
:10378000054606E0FFF7F0FC401B022801D90320A4
:103790000AE782486C300068C0F340000028F1D08E
:1037A00014E000207F490860FFF7DEFC054606E0D4
:1037B000FFF7DAFC401B022801D90320F4E6774822
:1037C0006C300068C0F340000028F1D1207800F090
:1037D0000400042870D1002770483830006800F0D9
:1037E000805090B900BF002000906C4838300068CD
:1037F00040F080506949383108600846006800F0A0
:103800008050009000BF00BF01276748006800F4A7
:103810008070B0B96448006840F480706249086004
:10382000FFF7A2FC054606E0FFF79EFC401B0228BE
:1038300001D90320B8E65C48006800F480700028D5
:10384000F2D000BFA068012808D154486830006851
:1038500040F001005149683108601DE0A06805286A
:103860000DD14E486830006840F004004B49683183
:1038700008600846006840F0010008600CE0474816
:103880006830006820F0010044496831086008464B
:10389000006820F00400086000BFA068A8B1FFF72E
:1038A00063FC054609E0FFF75FFC401B41F28831ED
:1038B000884202D9032077E626E03848683000685D
:1038C000C0F340000028EED013E0FFF74DFC0546A2
:1038D00008E0FFF749FC401B41F28831884201D9DA
:1038E000032061E62D4868300068C0F340000028DE
:1038F000EFD1012F07D129483830006820F08050DF
:1039000026493831086000BFA069002845D0234807
:10391000006800F00C0008285DD0A069022845D19D
:1039200000201F490866FFF71FFC054606E0FFF769
:103930001BFC401B022801D9032035E61748083834
:103940000068C0F340600028F1D1D4E907010843C2
:10395000616A40EA81110122A06AC2EB500041EA8B
:1039600000412C20005D41EA00600C49091F0860FD
:1039700001200B490866FFF7F7FB054606E0FFF755
:10398000F3FB401B022801D903200DE60348083849
:103990000068C0F340600028F1D049E008380240D8
:1039A00000004742800E474200700040002021493D
:1039B0000866FFF7D9FB054606E0FFF7D5FB401B7D
:1039C000022801D90320EFE51B480068C0F34060DE
:1039D0000028F2D12CE0A069012800D1E4E51648C6
:1039E000001D0668A069012820D006F48001E06966
:1039F00081421BD106F03F01206A814216D147F671
:103A0000C0703040616AB0EB811F0FD106F44031C5
:103A10000122A06AC2EB5000B1EB004F06D106F0C4
:103A200070612C20005DB1EB006F01D00120BBE57F
:103A30000020B9E5000047420038024070B5044656
:103A40002546681EB0F1807F01D301200FE0681E7B
:103A50004FF0E02148610F214FF0FF3003F0F2FEFC
:103A600000204FF0E021886107200861002070BD30
:103A7000704770477047000030B502460B4600BFE4
:103A800092F83C00012801D1022030BD012082F8CB
:103A90003C0000BF022082F83D00106844681068B6
:103AA000816824F070041868044310684460184D5D
:103AB0001068A8421BD01068B0F1804F17D0154D88
:103AC0001068A84213D0144D1068A8420FD0134DAF
:103AD0001068A8420BD0124D1068A84207D0114DB3
:103AE0001068A84203D0104D1068A84205D121F0FB
:103AF00080015868014310688160012082F83D0010
:103B000000BF002082F83C0000BF00BFBDE70000FE
:103B1000000001400004004000080040000C00408C
:103B200000040140004001400018004010B5044668
:103B30000CB9012010BD94F83D0060B9002084F854
:103B40003C00204603F05EFBA06C08B91448A0645A
:103B50002046A16C8847022084F83D00211D206882
:103B600003F0D0FA012084F8460000BF84F83E003C
:103B700001213F200155402001554120015500BF42
:103B800000BF012084F84200432001554420015524
:103B90004520015500BF012084F83D000020C9E701
:103BA000A53B000838B504462068B0F1804F17D116
:103BB00000BF002000900B48006840F00100094958
:103BC00008600846006800F00100009000BF00BFD8
:103BD000002205211C20FFF751FB1C20FFF73EFBB4
:103BE00038BD000040380240014691F83D000128F0
:103BF00001D001207047022081F83D000868C068AC
:103C000040F001000B68D8601A4B086898421BD03E
:103C10000868B0F1804F17D0174B0868984213D04E
:103C2000164B086898420FD0154B086898420BD085
:103C3000144B0868984207D0134B0868984203D089
:103C4000124B086898420CD10868806800F007029F
:103C5000062A0CD00868006840F001000B68186064
:103C600005E00868006840F001000B68186000205B
:103C7000C0E70000000001400004004000080040D0
:103C8000000C0040000401400040014000180040CA
:103C90002DE9F04104460D46002700BF94F83C0092
:103CA000012802D10220BDE8F081012084F83C0007
:103CB00000BF022084F83D002068866826F0770661
:103CC00026F47F46206886602868502833D00CDCB4
:103CD000202850D004DC00284BD0102851D149E0D6
:103CE000302849D040284CD139E060282DD07028A8
:103CF00007D0B0F5805F03D0B0F5005F41D10DE093
:103D000041E0D5E902136A68206803F067FA206889
:103D1000866846F077062068866034E0D5E90213AD
:103D20006A68206803F05AFA2068806840F480408E
:103D30002168886027E0EA686968206803F09AFAD9
:103D40005021206803F055FA1DE0EA686968206890
:103D500003F0A3FA6021206803F04BFA13E0EA684D
:103D60006968206803F086FA4021206803F041FA70
:103D700009E000BF00BF00BF2968206803F039FADE
:103D800001E0012700BF00BF012084F83D0000BF13
:103D9000002084F83C0000BF384684E77047704735
:103DA000704710B5044620680069C0F34000F0B1C8
:103DB0002068C068C0F34000C8B16FF002002168FD
:103DC0000861012020772068806900F0030020B19D
:103DD0002046D4F89010884707E02046D4F8981081
:103DE00088472046D4F89C10884700202077206818
:103DF0000069C0F38000F0B12068C068C0F38000A3
:103E0000C8B16FF0040021680861022020772068A3
:103E1000806900F4407020B12046D4F890108847A3
:103E200007E02046D4F8981088472046D4F89C1024
:103E300088470020207720680069C0F3C000F0B1F7
:103E40002068C068C0F3C000C8B16FF008002168E6
:103E50000861042020772068C06900F0030020B1C9
:103E60002046D4F89010884707E02046D4F89810F0
:103E700088472046D4F89C10884700202077206887
:103E80000069C0F30010F0B12068C068C0F30010F2
:103E9000C8B16FF010002168086108202077206801
:103EA000C06900F4407020B12046D4F890108847D3
:103EB00007E02046D4F8981088472046D4F89C1094
:103EC0008847002020772068006900F0010060B179
:103ED0002068C06800F0010038B16FF0010021686F
:103EE00008612046D4F88010884720680069C0F334
:103EF000C01060B12068C068C0F3C01038B16FF066
:103F00008000216808612046D4F8B01088472068F6
:103F10000069C0F3801060B12068C068C0F38010F1
:103F200038B16FF04000216808612046D4F888104D
:103F3000884720680069C0F3401060B12068C068FD
:103F4000C0F3401038B16FF02000216808612046AE
:103F5000D4F8A810884710BD704770477047704765
:103F6000704710B5034600240AB9012010BD00BFF8
:103F700093F83C00012801D10220F7E7012083F8E3
:103F80003C0000BF93F83D00012857D11B2952D2B5
:103F9000DFE801F00E10121416181A1C1E2022243D
:103FA00026282A2D303336393C3F4245484B4E00B7
:103FB0009A6442E0DA6440E01A653EE05A653CE00B
:103FC0009A653AE0DA6538E01A6636E05A6634E017
:103FD0009A6632E0DA6630E01A672EE05A672CE023
:103FE0009A672AE0DA6728E0C3F8802025E0C3F862
:103FF000842022E0C3F888201FE0C3F88C201CE056
:10400000C3F8902019E0C3F8942016E0C3F8982074
:1040100013E0C3F89C2010E0C3F8A0200DE0C3F823
:10402000A4200AE0C3F8A82007E0C3F8AC2004E00D
:10403000C3F8B02001E0012400BF2DE093F83D005B
:1040400048BB0E2924D2DFE801F007090B0D0F1140
:10405000131517191B1D1F219A641BE0DA6419E060
:104060001A6517E05A6515E09A6513E0DA6511E004
:104070001A660FE05A660DE09A660BE0DA6609E010
:104080001A6707E05A6705E09A6703E0DA6701E01C
:10409000012400BF00E0012400BF002083F83C00A1
:1040A00000BF204662E7704770477047704770470F
:1040B000704770472DE9F84F04462068056820686E
:1040C000C668206847694FF00009CA4605F00F0925
:1040D000B9F1000F0AD105F0200038B106F0200038
:1040E00020B1204603F086F9BDE8F88FB9F1000F42
:1040F0007CD007F0010018B906F49070002875D044
:1041000005F0010030B106F4807018B1206C40F069
:104110000100206405F0040030B107F0010018B17F
:10412000206C40F00200206405F0020030B107F07E
:10413000010018B1206C40F00400206405F0080074
:1041400048B106F0200010B907F0010018B1206C4A
:1041500040F008002064206C002846D005F02000C4
:1041600028B106F0200010B1204603F043F9206882
:104170004069C0F3801A206C00F0080010B9BAF151
:10418000000F2DD0204603F0C9F82068406900F0E8
:104190004000402820D100BF00BF2168143151E801
:1041A000001F21F040002168143141E80002002A7C
:1041B000F3D100BFA06B50B17548A16B0865A06B2F
:1041C000FEF716FD88B1A06B016D88470DE0204613
:1041D000616D884709E009E02046616D884704E089
:1041E0002046616D8847002020647DE7206B012810
:1041F00076D105F01000002872D006F010000028DB
:10420000FAD000BF0020009020680068009020686D
:104210004068009000BF00BF2068406900F0400087
:1042200040285ED1A06B006840681FFA80F8B8F1A2
:10423000000F54D0A08D404551DDA4F82E80A06B16
:10424000C069B0F5807F43D000BF00BF21680C314A
:1042500051E8001F21F4807021680C3141E8000210
:10426000002AF3D100BF00BF00BF2168143151E81C
:10427000001F21F001002168143141E80002002AEA
:10428000F3D100BF00BF00BF2168143151E8001F07
:1042900021F040002168143141E80002002AF3D1E6
:1042A00000BF202084F83E000020206300BF00BF34
:1042B00021680C3151E8001F21F0100021680C31F9
:1042C00041E80002002AF3D100BFA06BFEF73AFCE0
:1042D000A08DE38DC01A81B22046A26E904703E7FD
:1042E00040E0A08DE18D401A1FFA80F8E08DC0B348
:1042F000B8F1000F35D000BF00BF21680C3151E884
:10430000001F21F4907021680C3141E80002002A5E
:10431000F3D100BF00BF00BF2168143151E8001F76
:1043200021F001002168143141E80002002AF3D194
:1043300000BF202084F83E000020206300BF00BFA3
:1043400021680C3151E8001F21F0100021680C3168
:1043500041E80002002AF3D100BF41462046A26E88
:104360009047C1E605F0800030B106F0800018B13A
:10437000204603F0D1F9B7E605F0400030B106F071
:10438000400018B1204602F0FFFFADE600BFABE6EB
:104390000973000810B504460CB9012010BDA069CE
:1043A00000B100E000BF94F83D0060B9002084F83F
:1043B0003C00204602F0F8FFE06E08B91548E066C0
:1043C0002046E16E8847242084F83D002068C068BC
:1043D00020F400502168C860204603F087F8206868
:1043E000006920F49040216808612068406920F04D
:1043F0002A00216848612068C06840F400502168A4
:10440000C86000202064202084F83D0084F83E002D
:104410000020C3E71944000810B586B004461421F3
:1044200001A8FBF7CAFFF2492068884259D100BFB2
:1044300000200090EF48006840F01000ED4908604F
:104440000846006800F01000009000BF00BF00BFE9
:1044500000200090E7481438006840F00100E5496A
:10446000143908600846006800F00100009000BFA1
:1044700000BF4FF4C0600190022002900020039022
:10448000032004900720059001A9DB48FEF76EFD8C
:10449000DA48DB4908604FF0006048600021D848E6
:1044A0008160C1604FF480610161002141618161DF
:1044B0004FF48071C161002101624162FEF7CCFCC2
:1044C00008B1FCF7F7FD00BFCD48A063846300BFCF
:1044D000002211462520FEF7D1FE2520FEF7BEFE64
:1044E00083E1C849206888427DD100BF0020009048
:1044F000C048001F006840F40030BE49091F086032
:104500000846006800F40030009000BF00BF00BF04
:1045100000200090B7481438006840F00100B54909
:10452000143908600846006800F00100009000BFE0
:1045300000BF0C2001900220029000200390032075
:1045400004900720059001A9AB48FEF70FFDAE4887
:10455000AE4908604FF0006048600021AB488160C0
:10456000C1604FF4806101610021416181614FF4BC
:104570008071C161002101624162FEF76DFC08B1EA
:10458000FCF798FD00BFA148A063846300BF9E486C
:1045900018309F4908604FF00060486040219C48F7
:1045A00081600021C1604FF480610161002141619F
:1045B00081614FF48071C161002101624162FEF7A7
:1045C0004BFC08B1FCF776FD00BF91486063846343
:1045D00000BF002205212620FEF750FE2620FEF710
:1045E0003DFE02E1FFE78B49206888427FD100BF92
:1045F000002000907F48001F006840F480207D4923
:10460000091F08600846006800F48020009000BF81
:1046100000BF00BF0020009076481438006840F0CA
:1046200004007449143908600846006800F004006A
:10463000009000BF00BF4FF4406001900220029044
:1046400000200390032004900720059001A97248E0
:10465000FEF78CFC6C486038704908604FF00060D1
:10466000486000216D488160C1604FF48061016144
:104670000021416181614FF48071C16100210162BB
:104680004162FEF7E9FB08B1FCF714FD00BF634887
:10469000A063846300BF5C483038614908604FF014
:1046A0000060486040215E4881600021C1604FF495
:1046B000806101610021416181614FF48071C161BC
:1046C000002101624162FEF7C7FB08B1FCF7F2FC72
:1046D00000BF53486063846300BF00221146272057
:1046E000FEF7CCFD2720FEF7B9FD7EE0FFE74D4940
:1046F0002068884279D100BF002000903D480068C2
:1047000040F020003B4908600846006800F02000A7
:10471000009000BF00BF00BF002000903548143853
:10472000006840F004003349143908600846006806
:1047300000F00400009000BF00BFC02001900220E4
:10474000029000200390032004900820059001A906
:104750003148FEF70BFC29481838334908608005BA
:104760004860002130488160C1604FF48061016180
:104770000021416181614FF48071C16100210162BA
:104780004162FEF769FB08B1FCF794FC00BF2648C4
:10479000A063846300BF19486030244908604FF06B
:1047A000206048604021214881600021C1604FF4B1
:1047B000806101610021416181614FF48071C161BB
:1047C000002101624162FEF747FB08B1FCF772FC71
:1047D00000BF16486063846300BF00221146472073
:1047E000FEF74CFD4720FEF739FD06B010BD000076
:1047F0000010014044380240000002404064024082
:10480000440400200044004088600240A4040020CA
:104810000405002000480040000802406405002014
:10482000C405002000140140240600208406002056
:104830000246002329B9106C40F0200010640120CA
:10484000704700BF92F83C00012801D10220F7E731
:10485000012082F83C0000BF92F83D00202801D1E1
:10486000916604E0106C40F020001064012300BF4A
:10487000002082F83C0000BF1846E1E7704770470F
:104880007047704700BFFEE70021827922B9826835
:104890009288028001228271826892880388D21AEB
:1048A00011B2B1F5805F0DDB8268D2688368B3F91D
:1048B00004301A44B0F90030D21AA2F500528368CD
:1048C000DA601BE011F5805F0DDC8268D2688368D6
:1048D000B3F904301A4402F50052B0F90030D21A8C
:1048E0008368DA600AE08268D2688368B3F90430CA
:1048F0001A44B0F90030D21A8368DA60826892886C
:104900000280704770B58AB004460E46354920686B
:10491000884201D1012006E033492068884201D154
:10492000022000E00020054605EB051000EB851095
:104930002E4901EB800000F5987005EB051101EBA5
:1049400085112A4A02EB810191F82C1140F821606F
:1049500005EB051000EB8510114601EB800090F887
:104960002C01401C05EB051101EB851102EB8101C7
:1049700081F82C011B492068884204D10020059051
:104980000E20099002E00E2005900990002004906E
:1049900000900190029003900690012007900890EB
:1049A00069462046FDF7ACFB114A06212046FDF77B
:1049B000F7FF104A00212046FDF7F2FF0D4A0121C2
:1049C0002046FDF7EDFF0B4A02212046FDF7E8FFE8
:1049D00002212046FDF7D4FA2046FEF73FF80AB040
:1049E00070BD00000064004000680040240E0020FC
:1049F000F9490008C94B00082DE9F04106462C4949
:104A00003068884201D1012006E02A493068884296
:104A100001D1022000E00020044604EB041000EB6A
:104A20008410254901EB800304EB041000EB841093
:104A300001EB800000F1500200213046FDF708FC38
:104A400098BB002526E004EB041000EB84101A4903
:104A500001EB800000F5987050F82500C8B104EB18
:104A6000041000EB84100F4607EB800000F59870EF
:104A700050F8253004EB041000EB841007EB8000A5
:104A8000026D04EB041000EB841007EB800120465C
:104A900098476D1C04EB041000EB8410064901EBF1
:104AA000800090F82C01A842CDDCBDE8F081000028
:104AB0000064004000680040240E0020F8B5054660
:104AC0000E4617463D492868884201D1012006E07C
:104AD0003B492868884201D1022000E000200446BA
:104AE0002846FDF772FC30B16B463A4631462846FF
:104AF000FDF75BFA61E004EB041101EB8411314A2C
:104B000002EB81016C3104EB041202EB84122D4B99
:104B100003EB820292F8482002F0070202EB420205
:104B200001EBC20018223146FBF715FC002018E00B
:104B30003A5C04EB041101EB8411224B03EB81017D
:104B4000083104EB041303EB8413DFF878C00CEB9B
:104B5000830393F8483003F0070301EBC3010A54C1
:104B6000401C31698142E3D804EB041000EB84104F
:104B7000144901EB8000806C401C04EB041101EB34
:104B80008411104A02EB8101886404EB041000EBED
:104B90008410114601EB8000806C04EB041101EBE2
:104BA000841102EB8101C96C401A082801D9FCF775
:104BB00081FA01212846FDF7E3F9F8BD00640040C1
:104BC00000680040240E0020F8B5054632492868E8
:104BD000884201D1012006E030492868884201D18D
:104BE000022000E00020044604EB041000EB8410D7
:104BF0002B4901EB8000806C04EB041101EB841164
:104C0000274A02EB8101C96C884240D904EB0410A9
:104C100000EB8410134603EB8000083004EB041310
:104C200003EB8413164606EB830393F84C3003F032
:104C3000070300EBC30204EB041000EB84103346BF
:104C400003EB80006C3004EB041303EB841306EBDE
:104C5000830393F84C3003F0070303EB430300EBAB
:104C6000C3016B462846FDF7A0F904EB041000EBE6
:104C70008410314601EB8000C06C401C04EB041131
:104C800001EB8411324602EB8101C86403E001218B
:104C90002846FDF7C7FAF8BD0064004000680040F0
:104CA000240E00202DE9F04105460C461746B7F5C5
:104CB000007F62D9B7F5027F5FD8FEB205EBC50071
:104CC00000EB40002E4901EB800006EB460100EBB3
:104CD0008100806808B9BDE8F0816078217840EAF9
:104CE000012000B205EBC50101EB4101244A02EBB2
:104CF000810106EB460201EB820189688880E07839
:104D0000A17840EA012000B205EBC50101EB4101A9
:104D10001B4A02EB810106EB460201EB8201896826
:104D200008806079217940EA012000B205EBC501D5
:104D300001EB4101124A02EB810106EB460201EB55
:104D400082014880A07905EBC50101EB41010C4AC5
:104D500002EB810106EB460201EB8201888005EB44
:104D6000C50101EB4101064A02EB810106EB460257
:104D700001EB8200FFF788FD00E0ACE700BFAAE787
:104D8000F011002010B501EBC10303EB4303044C09
:104D900004EB830302EB420403EB8403986010BD31
:104DA000F011002030B589B0054652492868884284
:104DB00001D1012006E050492868884201D1022033
:104DC00000E0002004460020059006904FF400709B
:104DD00003900820079000203BE004EBC40101EBA6
:104DE0004101464A02EB8102411C01EB410102EB09
:104DF0008101896841B9002101AB03F8101000223C
:104E00004100491C5A5423E004EBC40101EB410169
:104E10003A4A02EB8102411C01EB410102EB8101A4
:104E20008968098AC1F3072101AB03F8101004EB6C
:104E3000C40101EB4101314A02EB8102411C01EB4B
:104E4000410102EB810189680A7C4100491C5A54E6
:104E5000401C0428C1DB01AA03A92846FFF72EFE47
:104E600040F2FF10039000203BE004EBC40101EB93
:104E70004101224A02EB8102411D01EB410102EB9B
:104E80008101896841B9002101AB03F810100022AB
:104E90004100491C5A5423E004EBC40101EB4101D9
:104EA000164A02EB8102411D01EB410102EB810137
:104EB0008968098AC1F3072101AB03F8101004EBDC
:104EC000C40101EB41010D4A02EB8102411D01EBDE
:104ED000410102EB810189680A7C4100491C5A5456
:104EE000401C0428C1DB01AA03A92846FFF7E6FD00
:104EF00009B030BD0064004000680040F01100209F
:104F000070B504460D460CB1607800B970BD2078CC
:104F1000617840EA0120C0F30A0027498880607860
:104F2000C010A17840EA4110C0F30A002249C880AD
:104F3000A0788011E17840EA8100217940EA81205F
:104F4000C0F30A001C49088020794010617940EACA
:104F5000C110C0F30A001849488060790011800828
:104F600008726079C0F301104872A079E17940EAD3
:104F7000012000B210494881207A617A40EA01207C
:104F800001B20D488181A07AE17A40EA012001B2A4
:104F90000948C181217B0174617B4174A07BE17B65
:104FA00040EA01200449488200F09AF801200249B1
:104FB000087500BFAAE7000030000020014630EE6F
:104FC000601A81ED031A91ED031AD1ED041AB4EEC3
:104FD000E11AF1EE10FA03DD91ED041A81ED031AE6
:104FE00091ED031AD1ED041AF1EE611AB4EEE11A53
:104FF000F1EE10FA05D291ED041AB1EE411A81EDED
:10500000031A91ED031AB5EEC01AF1EE10FA02DDA3
:1050100091ED031A03E091ED031AB1EE411AD1EDBF
:10502000081AB4EEE11AF1EE10FA03D89FED2B1A2C
:1050300081ED031A91ED031AD1ED091A31EE611ACF
:10504000D1ED001A21EE211AD1ED011A91ED032ABA
:1050500001EE821AD1ED031A91ED092AF0EE002A31
:1050600042EEC21A91ED0A2A71EE821A91ED022ADD
:1050700002EE211AD1ED0B1A31EE211A81ED0B1A35
:1050800091ED0B1AD1ED0C1AB4EEE11AF1EE10FA13
:1050900003DD91ED0C1A81ED0B1A91ED0B1AD1ED98
:1050A0000C1AF1EE611AB4EEE11AF1EE10FA05D223
:1050B00091ED0C1AB1EE411A81ED0B1A91ED091A1E
:1050C00081ED0A1A91ED031A81ED091A91ED0B1A7F
:1050D000BDEEC11A11EE100A70470000000000007A
:1050E0003548807C00F00100344988703248807C6B
:1050F000C0F34001314801722F48807CC0F3800129
:105100002E4881732C48807CC0F3C0012B48017568
:105110002948807CC0F30011284881762648807C8D
:10512000C0F34011254880F820102348807CC0F34C
:105130008011224880F826101F48807CC0F3C011DF
:105140001E4880F82C101C48408AC0F300211B48E0
:1051500080F832101848408AC0F34021174880F880
:1051600038101548408AC0F38021144880F83E105A
:105170001148408AC0F3C021104880F844100E48FE
:10518000408AC0F300310D4880F84A100A48408A2E
:10519000C0F34031094880F850100748408AC0F3F6
:1051A0008031064880F856100348408AC10B0348F6
:1051B00080F85C107047000030000020341300209D
:1051C00080ED000AC0ED010A80ED021AC0ED0C1A54
:1051D00080ED042AC0ED062A80ED083A70470000F1
:1051E000014630EE601A81ED031A91ED031AD1EDFC
:1051F000041AB4EEE11AF1EE10FA03DD91ED041A8F
:1052000081ED031A91ED031AD1ED041AF1EE611A42
:10521000B4EEE11AF1EE10FA05D291ED041AB1EEF6
:10522000411A81ED031A91ED031AB5EEC01AF1EEA1
:1052300010FA02DD91ED031A03E091ED031AB1EECD
:10524000411AD1ED081AB4EEE11AF1EE10FA03D8C2
:105250009FED3E1A81ED031A91ED051AD1ED031A67
:1052600031EE211A81ED051A91ED031AD1ED051ADF
:1052700021EE211AB5EEC01AF1EE10FA03D29FED1D
:10528000331A81ED051A91ED051AD1ED061AB4EE27
:10529000E11AF1EE10FA03DD91ED061A81ED051A1F
:1052A00091ED051AD1ED061AF1EE611AB4EEE11A8C
:1052B000F1EE10FA05D291ED061AB1EE411A81ED28
:1052C000051A91ED031AD1ED091A31EE611A81ED3B
:1052D000071A91ED001AD1ED031A21EE211AD1ED32
:1052E000011A91ED052A01EE821AD1ED021A91ED13
:1052F000072A01EE821A81ED0B1A91ED0B1AD1EDFE
:105300000C1AB4EEE11AF1EE10FA03DD91ED0C1A6D
:1053100081ED0B1A91ED0B1AD1ED0C1AF1EE611A19
:10532000B4EEE11AF1EE10FA05D291ED0C1AB1EEDD
:10533000411A81ED0B1A91ED031A81ED091A91EDD5
:105340000B1ABDEEC11A11EE100A704700000000E2
:1053500070B504460D4631492068884201D10120CC
:105360004EE02068B0F1804F01D1022048E02C4986
:105370002068884201D1032042E02A4920688842FF
:1053800001D104203CE028492068884201D1052051
:1053900036E026492068884201D1062030E02449C1
:1053A0002068884201D107202AE0224920688842EB
:1053B00001D1082024E020492068884201D1092039
:1053C0001EE01E492068884201D10A2018E01C49CD
:1053D0002068884201D10B2012E01A4920688842D7
:1053E00001D10C200CE018492068884201D10D2021
:1053F00006E016492068884201D10E2000E0002016
:105400000646134840F82650124A0E212046FEF761
:10541000A8FD2046FEF7E8FB70BD0000000001403B
:105420000004004000080040000C00400010004054
:1054300000140040000401400040014000440140CD
:105440000048014000180040001C004000200040BF
:10545000941300205954000870B504462F49206861
:10546000884201D101204EE02068B0F1804F01D187
:10547000022048E02A492068884201D1032042E006
:1054800028492068884201D104203CE02649206850
:10549000884201D1052036E024492068884201D1A4
:1054A000062030E022492068884201D107202AE006
:1054B00020492068884201D1082024E01E49206844
:1054C000884201D109201EE01C492068884201D190
:1054D0000A2018E01A492068884201D10B2012E006
:1054E00018492068884201D10C200CE01649206838
:1054F000884201D10D2006E014492068884201D17C
:105500000E2000E000200546114850F8250018B193
:105510000F4951F82500804770BD00000000014090
:105520000004004000080040000C00400010004053
:1055300000140040000401400040014000440140CC
:105540000048014000180040001C004000200040BE
:10555000941300202DE9F04104460E46404920688E
:10556000884201D101201EE03E492068884201D1D5
:10557000022018E03C492068884201D1032012E053
:105580003A492068884201D104200CE0384920685B
:10559000884201D1052006E036492068884201D1C1
:1055A000062000E000200546A06B0068006801218D
:1055B00021EAD04705EBC50000EB40002E4901EB86
:1055C000800090F86400801B00F0FF08A06B00686A
:1055D000006820F00100A16B09680860A06B0068FA
:1055E000006800F4002040B1A06B0068006820F45F
:1055F0000020A16B0968086007E0A06B00680068E4
:1056000040F40020A16B09680860A06B0068006886
:1056100040F00100A16B0968086005EBC50000EBD4
:105620004000154901EB8000806EB0B105EBC5016B
:1056300001EB4101104B03EB810107EBC70303EBC7
:10564000071301EB430005EBC50101EB41010A4BD8
:1056500003EB81018A6E41469047BDE8F08100006E
:10566000001001400044004000480040004C004051
:105670000050004000140140D0130020F8B504464B
:105680000E4631492068884201D101201EE02F4991
:105690002068884201D1022018E02D492068884204
:1056A00001D1032012E02B492068884201D1042057
:1056B0000CE029492068884201D1052006E02749ED
:1056C0002068884201D1062000E0002005463220F3
:1056D00005EBC50101EB4101214A02EB8101A1F873
:1056E000640005EBC50000EB4000114601EB8000B3
:1056F00086661C492046FFF79BF82068C06840F08A
:1057000010002168C860012020633220A08505EBCD
:10571000C50707EB4707DFF848C00CEB870707F121
:10572000320305EBC50707EB47070CEB8702009038
:105730002768391DA06BFDF7C7F92068406940F064
:10574000400021684861F8BD00100140004400405D
:1057500000480040004C0040005000400014014050
:10576000D01300205555000800B502462AB1107824
:105770005A2802D15078A52800D000BDD07BB0288F
:105780002FD1107C537C40EA032000B200EE100AB7
:10579000B8EEC00AF2EE040A80EE201A2D4880ED21
:1057A000001A907CD37C40EA032000B200EE100A7D
:1057B000B8EEC00AF2EE040A80EE201A254880ED09
:1057C000011A107D537D40EA032000B200EE100A5A
:1057D000B8EEC00AF2EE040A80EE201A1D4880EDF1
:1057E000021A507FD02833D112F81E0F537840EAA6
:1057F000032000B200EE100AB8EEC00ADFED160A70
:1058000080EE201A134880ED031A9078D37840EA8E
:10581000032000B200EE100AB8EEC00ADFED0E0A57
:1058200080EE201A0B4880ED061A107953791E3A43
:1058300040EA032000B200EE100AB8EEC00AF2EE11
:10584000040A80EE201A034880ED041AFAF788FE55
:1058500000BF92E7C41700200000C8421649097A29
:1058600003290BD140F6B831884200DA30B9002163
:10587000124A11700321124A11701CE00E49097A74
:1058800001290AD140F6B831884200DA28B901214D
:105890000A4A11700A4A11700DE00749097A022973
:1058A00009D140F6B831884200DA20B90221034A12
:1058B0001170034A11707047300000207000002002
:1058C0008C00002010B50D480D4908600620486086
:1058D00000210B488160C1604FF400310161090172
:1058E00041610021017641768176C1760177417769
:1058F000FCF7AEFE08B1FBF7DDFB10BD0064004015
:10590000F800002010B50D480D49086006204860D9
:1059100000210B488160C1604FF400310161090131
:1059200041610021017641768176C1760177417728
:10593000FCF78EFE08B1FBF7BDFB10BD0068004010
:105940005C01002008B500BF002000902A480068D4
:1059500040F48000284908600846006800F4800090
:10596000009000BF00BF00BF002000900846006804
:1059700040F4001008600846006800F40010009031
:1059800000BF00BF002211460C20FDF777FC0C2061
:10599000FDF764FC002211460E20FDF76FFC0E207F
:1059A000FDF75CFC002211461020FDF767FC10207B
:1059B000FDF754FC002211461120FDF75FFC112079
:1059C000FDF74CFC002211463920FDF757FC392029
:1059D000FDF744FC002211463A20FDF74FFC3A2027
:1059E000FDF73CFC002211464520FDF747FC452011
:1059F000FDF734FC08BD00003038024000B587B028
:105A0000142102A8FAF7D9FC00BF002001902F480A
:105A1000006840F080002D4908600846006800F0EA
:105A20008000019000BF00BF00BF00200190084629
:105A3000006840F0040008600846006800F00400B8
:105A4000019000BF00BF00BF002001900846006821
:105A500040F0010008600846006800F00100019075
:105A600000BF00BF00BF002001900846006840F062
:105A7000020008600846006800F00200019000BFC4
:105A800000BF002203211248FDF768FB00224FF4FB
:105A900040611048FDF762FB032002900120039053
:105AA00004900020059002A90948FDF75FFA4FF421
:105AB000406002900120039004900020059002A90C
:105AC0000448FDF753FA07B000BD0000303802402B
:105AD000000802400004024000B587B00020039097
